:020000040800F2
:10000000B8140020DD010008DF2000083B1B0008B9
:10001000DD2000085D09000835230008000000000D
:100020000000000000000000000000004501000882
:10003000670900080000000089010008E1200008AD
:10004000F7010008F7010008F7010008F7010008B0
:10005000F7010008F7010008F7010008F7010008A0
:10006000F7010008F7010008F7010008F701000890
:10007000F7010008F7010008F7010008F701000880
:10008000F7010008F7010008F7010008F701000870
:10009000F7010008F7010008F7010008F701000860
:1000A000F70100086D210008F7010008F7010008BA
:1000B000F7010008F7010008F7010008F701000840
:1000C000F7010008F7010008F7010008F701000830
:1000D000F7010008F7010008F7010008F701000820
:1000E000F7010008F7010008F7010008F701000810
:1000F000F7010008F7010008F7010008F701000800
:10010000F7010008F7010008F7010008F7010008EF
:10011000F7010008F7010008F7010008F7010008DF
:10012000F7010008F7010008F7010008F7010008CF
:10013000DFF80CD000F064FB00480047652C000895
:10014000B8140020224B19680868B0E8F00F80F35B
:100150000988BFF36F8F4FF0000080F311884EF0D5
:100160000D0E70470000000006480068006880F32C
:10017000088862B661B6BFF34F8FBFF36F8F00DFA1
:1001800000BF00BF08ED00E0EFF30980BFF36F8F01
:100190000F4B1A6820E9F00F106008B54FF05000BF
:1001A00080F31188BFF34F8FBFF36F8F03F018F9FF
:1001B0004FF0000080F31188BDE808401968086816
:1001C000B0E8F00F80F30988BFF36F8F704700BF6E
:1001D00028000020EFF305807047000006488047A4
:1001E00006480047FEE7FEE7FEE7FEE7FEE7FEE71C
:1001F000FEE7FEE7FEE7FEE76B210008310100089D
:10020000202A04DB203A21FA02F00021704721FA6B
:1002100002F3D040C2F120029140084319467047D2
:1002200040EA01039B0703D009E008C9121F08C078
:10023000042AFAD203E011F8013B00F8013B521EF8
:10024000F9D27047D2B201E000F8012B491EFBD26F
:1002500070470022F6E710B513460A4604461946D1
:10026000FFF7F0FF204610BD2DE9F04D81EA0304B1
:1002700004F0004B21F0004514464FF0000A23F033
:10028000004150EA050220D054EA01021DD0C5F316
:100290000A570246C5F31303C1F31300C1F30A560C
:1002A00040F4801543F48013A7EB0608101BD646D4
:1002B00008F2FD3873EB050002D308F1010801E0F4
:1002C00092185B41B8F1000F03DA00200146BDE847
:1002D000F08D00204FF48011064684460EE0171B77
:1002E00073EB050705D3121B63EB050306434CEACA
:1002F000010C49084FEA300092185B4150EA0107AF
:10030000EDD152EA030012D082EA040083EA05012B
:10031000084305D0101BAB4106D20122002306E0A2
:1003200000224FF0004302E06FF0010253101AEB7D
:1003300006004CEB085110EB0A0041EB0B01BDE845
:10034000F04D00F0B6B8C10F80EAE0700844CA076B
:100350009623002100F07FB800F0004230F000400A
:100360000AD0C10D01F56071C0F3160042EA0151D7
:10037000C20840071143704700200146704701F052
:10038000004330B421F0004150EA010206D00A0DCA
:10039000A2F56072C1F31301002A02DC30BC002018
:1003A0007047440F44EAC104C100E01830BC00EBC0
:1003B000C25000F047B830B50B460146002020225D
:1003C000012409E021FA02F59D4205D303FA02F562
:1003D000491B04FA02F52844151EA2F10102F1DCC2
:1003E00030BD2DE9F05F0546002092469B468846C9
:1003F0000646814640241BE02846414647462246A1
:10040000FFF7FEFE53465A46C01A914110D31146DB
:100410001846224600F006FA2D1A67EB01084F46EF
:1004200022460120002100F0FDF917EB00094E41A2
:10043000201EA4F10104DFDC484631462A4643462B
:10044000BDE8F09F0029A8BF7047401C490008BFC5
:1004500020F00100704710B4B0FA80FC00FA0CF0F4
:1004600050EA010404BF10BC704749B1CCF120042C
:1004700021FA04F411FA0CF118BF012121430843B9
:10048000A3EB0C01CB1D4FEA00614FEA102042BFE5
:10049000002010BC704700EBC35010440029A4BFDB
:1004A00010BC7047401C490008BF20F0010010BC80
:1004B000704710B5141E73F1000408DA401C41F1B6
:1004C000000192185B411A4301D120F0010010BDD8
:1004D0002DE9F04D92469B4611B1B1FA81F202E04E
:1004E000B0FA80F22032904600F09CF904460F46A4
:1004F00040EA0A0041EA0B0153465A46084313D02A
:10050000114653EA010019D0C8F140025046FFF7E6
:1005100077FE05460E4650465946424600F082F99F
:10052000084305D0012004E020463946BDE8F08D9F
:100530000020054346EAE0762C4337430A986305DA
:10054000E40AA0EB08000022FD0A44EA47540A30FE
:1005500002D500200146E9E7010510196941DDE9EE
:10056000084500196941BDE8F04DA2E72DE9FE4FAD
:10057000804681EA0300C00F0C46009021F0004144
:1005800023F00045B8EB0200A94105D240462146C0
:1005900090461C460B46024623F00040104347D0CD
:1005A000270DC7F30A00C3F30A510290401A0190C5
:1005B00040286BDAC3F3130040F4801B0098924686
:1005C00020B10023D2EB030A63EB0B0B01985946D1
:1005D000C0F14002504600F025F906460D4650464F
:1005E0005946019A00F02DF910EB080061410024F2
:1005F00087EA115284EAE7731A4340D0009A62B343
:10060000019A012A4FEA075215DC001B61EB020137
:100610004FF0004202EA0752CDE90042001C41F5CA
:10062000801132462B46FFF753FF03B0BDE8F08F31
:1006300040462146F9E7001B61EB0201001C41F531
:10064000801300185B412018A2F5001747EB030147
:1006500040EAD570B6196D4111E06D084FEA3606D3
:1006600045EAC0754FEA0752001B61EB0201001C0E
:1006700041F5801149084FEA3000001951413246D6
:100680002B4603B0BDE8F04FFFF713BF00980122DF
:1006900040000023D0EB020263EBE0730098214698
:1006A0004FEAE074B8EB000061EB0401E9E783F086
:1006B00000435BE781F0004158E72DE9FE4F81EAF6
:1006C000030404F0004421F0004100944FF0000BBB
:1006D00023F0004350EA01045ED052EA03045BD0E9
:1006E000C3F30A54C1F30A552C44A4F2F334019421
:1006F000A0FB0254C1F3130141F48011C3F31303AF
:1007000043F4801301FB024400FB034E840A970A62
:1007100044EA815447EA8357A4FB076802958D0A8F
:1007200005FB07854FEA932C04FB0C542705029D1B
:100730004FEA065847EA1637B5EB08056EEB070C8B
:10074000870E920E47EA811742EA8312A7FB020145
:10075000B6EB0B0164EB00042B0D43EA0C335E187F
:1007600044EB1C50DA465146E7FB0201C5F3130483
:100770004FEA0B3343EA14534FEA0432019C43EA35
:100780000603A4F10C040294009CCDE900B4FFF729
:100790009FFE03B0BDE8F08F00200146F9E7C1F3EA
:1007A0000A52C1F3130140F2FF3341F480119A421F
:1007B00002DA00200146704740F233439A42A2F227
:1007C000334202DC5242FFF71BBD00F02BB80000A1
:1007D00030B5041E71F1000404DB4FF000444042C8
:1007E00064EB0101141E73F1000405DB1C464FF09D
:1007F0000043524263EB0403994208BF904230BD6C
:10080000064C074D06E0E06840F0010394E807005D
:1008100098471034AC42F6D3FFF78EFC58390008E5
:1008200078390008202A04DB203A00FA02F100207F
:1008300070479140C2F1200320FA03F3194390401E
:100840007047202A06DBCB17203A41FA02F043EA30
:10085000E07306E041FA02F3D040C2F12002914079
:10086000084319467047000008B5C82000F07EF81C
:1008700001F08EFB5FF001048DF800400121684615
:1008800001F068F930B100BF9DF800101BA001F025
:1008900053FDF1E710208DF800000121684601F0BA
:1008A00059F90028F0D1C82000F060F802211D4855
:1008B00001F044F918B11CA001F03EFDDCE7194835
:1008C000A0F110020178407800EB01201060FFF7E2
:1008D0003AFDFFF741FD4FF033321B4BFFF7C4FCED
:1008E000FFF74DFDFFF738FD02460B4617A001F05C
:1008F00023FD012002F0CBF9BEE700004932435F3F
:100900004248313735305F4F7065636F64655F57BC
:10091000726974653A20253278204572726F720AC6
:1009200000000000100000204932435F4248313788
:1009300035305F446174615F526561643A202045DF
:1009400072726F720A0000003333F33F64617461A6
:100950003A202566206C780D0A000000FEE7012091
:1009600002F095F9FBE7704772B6FEE770B50446F2
:1009700000F00AF90546601C02D0044800780444DF
:1009800000F002F9401BA042FAD370BD180000200D
:100990002DE9F84FDFF8C8910024A9F1040B234694
:1009A0000F2709F1040AABF1040ED1E00125A5409F
:1009B00006EA0502AA4276D1DFF8A8C14E68A6EB86
:1009C0000C0866452BD00DDC032E34D005DC36B385
:1009D000012E19D0022E2FD11BE0112E16D0122E6F
:1009E0002AD119E0B8F5881F19D006DCB8F5803F88
:1009F00015D0B8F5801F1FD111E0B8F5001F0ED03B
:100A0000B8F5041F18D10AE0CB6815E0CB681B1DB0
:100A100012E0CB6808330FE0CB680C330CE08B6836
:100A20002BB1012B4FF0080303D0456104E00423F0
:100A300002E0056100E00023FF2A01D8064601E03C
:100A400000F104064FEA840501D9A5F12005D6F886
:100A5000008007FA05FC28EA0C0803FA05F548EAC5
:100A60000508C6F800804D68ED0070D53E4DAE69B2
:100A700046F00106AE61AD6924F0030605F00105FC
:100A800000953A4D06EB050CDCF80850A607360F2A
:100A900007FA06F825EA0805DFF8D480404503D1B7
:100AA0004FF0000825E052E0DFF8C880404502D151
:100AB0004FF001081DE0DFF8C080404502D14FF043
:100AC000020816E0DFF8B480404502D14FF0030879
:100AD0000FE0DFF8AC80404502D14FF0040808E099
:100AE000DFF8A080404502D14FF0050801E04FF04B
:100AF000060808FA06F848EA0508CCF808804D68A8
:100B0000D9F80060ED024D4601D5164300E096434A
:100B10002E604D68DAF80060AD02554601D51643E7
:100B200000E096432E604D68DBF80060AD035D4643
:100B300001D5164300E096432E604D68DEF8006054
:100B4000ED03754601D5164300E096432E60641C04
:100B50000A681646E2407FF429AFBDE8F88F00002E
:100B60000804014000001110001002400000014084
:100B700000080140000C0140001001400014014039
:100B800000180140001C01400148806870470000C7
:100B90001800002070B5040025D094F83D00002511
:100BA00020B984F83C50204600F076FA242084F8DE
:100BB0003D002068016821F00101016020680168A2
:100BC00041F4004101602068016821F400410160A6
:100BD00000F0FEFB4D4A6168914201D84C4900E0AB
:100BE0004C49884201D2012070BD4B492368B0FBBB
:100BF000F1F15E6826F03F060E435E606368934243
:100C000006D94FF4967359434FF47A73B1FBF3F15D
:100C10002368491C1E6A26F03F0631431962616849
:100C2000914210D84900401EB0FBF1F2521CC2F3B1
:100C30000B02042A01D2042022E0B0FBF1F0401C98
:100C4000C0F30B001CE0A268F2B301EBC10303EB9D
:100C50000116431EB3FBF6F35B1C43F480431B05F4
:100C600049D092B301EBC10202EB0111401EB0FB6F
:100C7000F1F0401CC0F30B0040F4804040F4004011
:100C80002168CA694CF6FF739A431043C861D4E9DE
:100C9000071001432068026822F0C002114301607E
:100CA000D4E9030101432068826848F2FF339A4384
:100CB00011438160D4E9050108432168CA6822F024
:100CC000FF021043C86001E00EE016E020680168F2
:100CD00041F0010101602564202084F83D00256376
:100CE00084F83E50002070BD01EB4106431EB3FB6B
:100CF000F6F35B1CB3E70120C2E701EB4101401EA4
:100D0000B0FBF1F0401CC0F30B00B7E7A086010078
:100D100080841E0000093D0040420F002DE9F84F7D
:100D20000025DDF82890984617468A460446009527
:100D3000FFF72AFF064694F83D0020287AD11923B0
:100D4000012286492046009601F018F80028F5D1C6
:100D500094F83C0001286DD0012084F83C00206804
:100D60000168C90703D1016841F0010101602068F1
:100D7000016821F400610160222084F83D00102008
:100D800084F83E0025646762A4F82A80608D20857F
:100D90007348E06233464A465146204600F0FEFE64
:100DA00000287CD1208DDFF8BC81202768B1012884
:100DB00014D00228206801681ED041F480610160CF
:100DC0002068416980690090BBE0206841698169C1
:100DD0000091016841F400710160B2E0206801688F
:100DE00021F48061016072B62068416981690091D7
:100DF000016841F400710AE041F40061016072B6DB
:100E00002068416981690091016821F48061016075
:100E100062B696E0032865D801280CD002284B461C
:100E20004FF000024146204600960BD000F0A6FF8E
:100E3000A8BB0CE090E032464946204601F044F859
:100E400068BB71E000F09AFF48BB72B633E02068DF
:100E5000016821F48061016072B620680069616AEE
:100E60000870606A401C6062208D401E2085608D85
:100E7000401E60853C4846F2A8110068B0FBF1F0C6
:100E8000C0EBC00000EB80000090401E009007D037
:100E900020684069C04340070DD50098F5E727E07A
:100EA00044F8305F6773A573206940F0200020612B
:100EB00062B625731CE02068016841F4007101608E
:100EC00020680069616A0870606A401C6062218D58
:100ED000491E2185618D491E618562B621680969B7
:100EE000017025E032464946204600F0EDFF10B182
:100EF0000120BDE8F88F20680069616A0870606AA7
:100F0000401C6062208D401E81B22185608D401E94
:100F1000608520684269D243520712D4032903D165
:100F2000016821F48061016020680069616A0870CD
:100F3000606A401C6062208D401E2085608D401ECE
:100F40006085208D00287FF465AF84F83D7084F8BB
:100F50003E5084F83C50CCE70220CAE70200100063
:100F60000000FFFF04000100240000202DE9F84FDD
:100F70001F4690468A460446DDF82890FFF704FE97
:100F8000054694F83D0020287FD1192301224049CD
:100F90002046009500F0F2FE002876D194F83C003F
:100FA000012872D0012084F83C0020680168C9073C
:100FB00003D1016841F0010101602068016821F45A
:100FC00000610160212084F83D00102084F83E007B
:100FD00000262664C4F824806785608D20852D480E
:100FE000E0622B464A465146204600F04DFE90B93D
:100FF000206841698069009036E02A4649462046CB
:1010000000F09AFF50B1206C042804D120680168D8
:1010100041F4007101600120BDE8F88F606A216829
:1010200000780861606A401C6062618D491E6185BC
:10103000218D491E89B2218522685369DB435B07F4
:101040000BD451B100781061606A401C6062608D01
:10105000401E6085208D401E20852A464946204638
:1010600000F060FE0028CED1208D0028C5D154F8B4
:101070003D0B016841F400710160202004F81E0955
:10108000E67766770020C7E7FFE70220C4E70000A5
:10109000020010000000FFFF10B586B00021009193
:1010A00001910291039100680F4988421AD10F4CB7
:1010B000A06940F00800A061A069694600F008003E
:1010C0000490C02000901220019003200390084853
:1010D000FFF75EFCE06940F40010E061E06900F4B5
:1010E0000010049006B010BD0054004000100240F3
:1010F000000C014002488168027811448160704709
:1011000018000020074810B5016841F01001016087
:10111000032000F095F80F2000F006F800F03EF8EC
:10112000002010BD0020024000B5014687B000221B
:10113000192000F065F8192000F054F8134881696F
:1011400041F400618161806905A900F400600690A6
:10115000684600F01DF900F04BF90D490D4AB0FB4F
:10116000F1F10D48491E0260416040F2E732002172
:10117000C0E90321816000F003FB10B1012007B03A
:1011800000BD054800F02AFBF9E70000001002400E
:1011900040420F00002C01407C0300200F4808B59E
:1011A000816941F001018161816901F001010091D2
:1011B000C16941F08051C161C069002200F08050D6
:1011C00000900F21901E00F01BF80548416821F0A7
:1011D000E06141F00071416008BD00000010024074
:1011E00000000140002809DB00F01F0201219140AE
:1011F0004009800000F1E020C0F8001170470000B5
:10120000F0B40E4B1B680C46C3F30223C3F1070571
:10121000042D00D90425191D072901D2002300E05F
:10122000DB1E012606FA05F1491E214099409E4029
:10123000761E16403143F0BC01F08EB80CED00E094
:10124000064900F0070208684FF6FF03184040EA1D
:101250000220034A10430860704700000CED00E0D4
:101260000000FA052DE9F0470F46050061D0434E16
:10127000306800F00700B84209D2306820F007005B
:1012800038433060306800F00700B84251D1286818
:101290003B4C810712D5400703D5606840F4E060FD
:1012A00060602878000703D5606840F46050606093
:1012B0006068A96820F0F000084360602878C007E3
:1012C00028D06868012810D02168022810D089072A
:1012D00000292EDA616821F0030101436160FFF704
:1012E00053FC804641F288390DE021688903EFE71D
:1012F0008901EDE7FFF748FCA0EB0801494502D959
:101300000320BDE8F0876068696800F00C00B0EB6E
:10131000810FEFD1306800F00700B8420BD9306878
:1013200020F0070038433060306800F00700B84212
:1013300001D00120E5E72878400705D56068E96815
:1013400020F4E060084360602878000706D56068F4
:10135000296920F4605040EAC100606000F058F84C
:101360006168084AC1F30311515CC840064908602E
:1013700006480068FFF7D8FE0020C2E700200240C0
:101380000010024026390008240000201C00002024
:101390000F2202600C4A536803F003034360536852
:1013A00003F0F0038360536803F4E063C3605268A2
:1013B0004FF4E06303EAD20202610448006800F0DF
:1013C0000700086070470000001002400020024043
:1013D0000448054900684968044AC1F30221515C88
:1013E000C840704724000020001002403639000831
:1013F0000448054900684968044AC1F3C221515CA8
:10140000C840704724000020001002403639000810
:101410000E4A51680E4801F00C03042B11D0082B22
:101420000FD10C48C1F38343C903C05C0AD551688E
:10143000084AC1F34041921E515C054A5043B0FB3B
:10144000F1F0704704494843704700000010024023
:1014500000127A001639000800093D002DE9F84F06
:10146000040070D02078C04DC00749D06868C0F330
:101470008100012807D06868C0F38100022809D1E3
:101480006868C00306D52868800339D560680028DD
:10149000E7D035E06068B0F5803F0BD010B1B0F513
:1014A000A02F11D0286820F480302860286820F40C
:1014B000802002E0286840F480302860606890B1A5
:1014C000FFF762FB06460AE0286840F480202860A7
:1014D000F0E700BFFFF758FB801B642873D828682B
:1014E0008003F7D50CE0FFF74FFB064605E000BF91
:1014F000FFF74AFB801B6428F0D828688003F7D4E4
:1015000020789A4E80074FF001094FF0000839D536
:10151000686810F00C0F07D06868C0F381000228DB
:1015200009D16868C00306D42868800714D52069EB
:10153000012808D110E02069B0B1C6F80090FFF78B
:1015400023FB074605E00AE1FFF71EFBC01B02284C
:10155000C4D828688007F7D52868616920F0F800AA
:1015600040EAC10028600DE0C6F80080FFF70CFBE0
:10157000074604E0FFF708FBC01B022823D82868B1
:101580008007F7D4207800072CD57948A169D9B114
:10159000C0F80090FFF7F8FA074604E0FFF7F4FA06
:1015A000C01B02280FD8686A8007F7D571484FF42E
:1015B000FA510068B0FBF1F0009000BF0098411EA6
:1015C0000091FAD20EE080E0C0F80080FFF7DCFA6C
:1015D000074604E0FFF7D8FAC01B022875D8686AEE
:1015E0008007F7D42078400760D5E8690027C0005D
:1015F00008D4E86940F08050E861E869012700F00C
:10160000805000905C480168C90513D40168834686
:1016100041F480710160FFF7B7FA824606E000BF2F
:10162000FFF7B2FAA0EB0A0064284ED8DBF80000FE
:10163000C005F5D5E06801280AD008B1052813D007
:10164000286A20F001002862286A20F0040002E0E5
:10165000286A40F001002862E06841F2883B98B1B6
:10166000FFF792FA82460BE0286A40F004002862F5
:10167000EEE700BFFFF788FAA0EB0A0159455AD8F8
:10168000286A8007F6D50CE0FFF77EFA824605E06F
:10169000FFF77AFAA0EB0A0159454CD8286A80076F
:1016A000F6D41FB1E86920F08050E861E06988B3A2
:1016B0006968C1F38101022944D00228C6F860801C
:1016C00004D0FFF761FA044638E034E0FFF75CFA33
:1016D000074604E0FFF758FAC01B02282BD82868F9
:1016E0008001F7D4206AB0F5803F05D16868A16811
:1016F00020F4003008436860D4E9080108436968B1
:1017000021F4741108436860C6F86090FFF73CFA52
:10171000044606E025E000BFFFF736FA001B02286A
:1017200009D828688001F7D51BE000BFFFF72CFA25
:10173000001B022802D90320BDE8F88F2868800129
:10174000F4D40EE00128F7D06868226A00F48031F2
:10175000914204D1616A00F47010884201D00120E6
:10176000EAE70020E8E700000010024000004242E3
:1017700080044242240000200070004070477047FF
:1017800010B5040003D094F83D0010B107E001202B
:1017900010BD002084F83C00204600F01EF8022016
:1017A00084F83D00211D206800F0E6FC012084F84B
:1017B000460084F83E0084F83F0084F8400084F836
:1017C000410084F8420084F8430084F8440084F81F
:1017D000450084F83D00002010BD704790F83D1092
:1017E000012901D001207047022180F83D100168D5
:1017F000CA6842F00102CA6000680E4988420ED0F1
:101800000D4988420BD0B0F1804F08D00B49884277
:1018100005D00B49884202D00A49884204D1816828
:1018200001F00701062903D0016841F001010160C0
:1018300000207047002C01400034014000040040AB
:1018400000080040000C0040704770B50446006876
:1018500001694FF00005C943890715D4C168C94320
:10186000890711D4E91E0161012020772068806971
:101870008007204602D0FFF7E7FF04E000F098F869
:10188000204600F096F8257720680169C94349078A
:1018900017D4C168C943490713D46FF0040101612B
:1018A000022020772068806910F4407F204602D013
:1018B000FFF7CAFF04E000F07BF8204600F079F85B
:1018C000257720680169C943090716D4C168C9434F
:1018D000090712D46FF00801016104202077206805
:1018E000C0698007204602D0FFF7AEFF04E000F099
:1018F0005FF8204600F05DF8257720680169C9434C
:10190000C90617D4C168C943C90613D46FF01001C2
:101910000161082020772068C06910F4407F2046CC
:1019200002D0FFF791FF04E000F042F8204600F0FB
:1019300040F8257720680169C943C90708D1C16803
:10194000C943C90704D1891E0161204600F032F85D
:1019500020680169C943090609D4C168C943090659
:1019600005D46FF0800101612046FFF707FF206872
:101970000169C943490609D4C168C943490605D468
:101980006FF040010161204600F01EF820680169F7
:10199000C94389060BD4C168C943890607D46FF0CF
:1019A000200101612046BDE87040FFF7E8BE70BD30
:1019B0007047704700680349884201D1FFF79ABB1E
:1019C00070470000002C0140704770B5040004D03F
:1019D00094F84100002510B106E0012070BD84F8A4
:1019E0004050204600F024F8242084F8410020686C
:1019F000C16821F40051C160204600F003FC20685A
:101A0000016921F4904101612068416921F02A01B6
:101A100041612068C16841F40051C16065642020C3
:101A200084F8410084F842006563002070BD000026
:101A300030B585B0002400940194029403940068AA
:101A40001449884224D11448816941F4804181615C
:101A5000816901F480410491816941F0040181614F
:101A600080690E4D00F0040004904FF40070009067
:101A7000022001900320039069462846FEF788FF64
:101A80002815CDE90004694628460294FEF780FF38
:101A900005B030BD00380140001002400008014090
:101AA0002DE9F843044690F841001F4616460D46BE
:101AB000202802D00220BDE8F8837DB176B1002055
:101AC0006064212084F84100FFF75EF8A684804618
:101AD000E684A068B0F5805F02D003E00120EAE769
:101AE000206910B12E4600250EE000260CE0802172
:101AF000204600F0E3FBA0B9AEB116F8010B216857
:101B00004860E08C401EE084E08C43464FF00002C9
:101B100000970028EBD14FF04001204600F0CEFBAB
:101B200030B10320C7E735F8020BC0F30800E6E741
:101B3000202084F841000020BDE7FEE708B501221F
:101B400000920B46024647210148FFF7E7F808BD1F
:101B5000E002002008B5012200920B460246462111
:101B60000148FFF703FA08BDE002002001684A6956
:101B7000D24352050FD46FF480624A61002140F8CD
:101B8000301F202242738173026942F00402026115
:101B90000173012070470020704700002DE9F84FC5
:101BA0000446C06A1E4693460D4621680A6842F400
:101BB00080620A60082807D0012805D010F5803F10
:101BC00002D0206B112804D12068016841F4807193
:101BD00001604FF001195B460022494620460096FD
:101BE00000F0CCF84FF4007840B120680068C005E0
:101BF00001D5C4F840800320BDE8F88F2069DFF8E4
:101C000084A0B0F5804F0FD00620216800EAD517D8
:101C100047F0F000086133465A460AF106012046B3
:101C200000F0F4F858BB03E0E8B240F001001CE01B
:101C30002168E8B2086133465A465146204600F012
:101C4000E5F8E0B92068416981690091016841F4D3
:101C5000807101605B46002249462046009600F0F4
:101C60008DF80028C1D147F0F100216808613346A2
:101C70005A465146204600F0C9F80028BCD0012041
:101C8000BAE7000002000100F8B50446C06A1E462B
:101C90000D461746082807D0012805D010F5803FCB
:101CA00002D0206B122804D12068016841F48071B1
:101CB0000160134600224FF001112046009600F00B
:101CC0005DF840B120680068C00502D54FF400708F
:101CD00020640320F8BD2069B0F5804F0ED00620A7
:101CE000216800EAD51040F0F000086133463A461A
:101CF0000B49204600F08AF878B902E005F0FE00B2
:101D000000E0E8B221680861054933463A46891F78
:101D1000204600F07BF80028DCD00120F8BD000050
:101D20000800010070B516460D4604461EE0204628
:101D3000FFF71CFF08B1012070BD681C16D0FEF72C
:101D400023FF801BA84200D885B920684069C043A2
:101D500040070BD5002044F8300F20216173A07399
:101D6000216941F0200121612073E4E72068406986
:101D7000C0434007DBD4002070BD00002DE9F047D0
:101D8000984617460D460446C1F30746DDF82090F5
:101D90002AE000BFB8F1FF3F26D0FEF7F5FEA0EB2A
:101DA0000901414502D8B8F1000F1DD12068012E6C
:101DB00016D0806925EA00000004000C12D0002033
:101DC000B84211D1002044F8300F20216173A07374
:101DD000216941F02001216120730120BDE8F087D5
:101DE0004069E7E70120EBE72068012E0AD080690F
:101DF00025EA00000004000C06D00020B842C9D03B
:101E00000020EBE74069F3E70120F7E72DE9F04711
:101E1000984616460D4604464FF000094FF0200A3A
:101E2000C1F3074723E020684069C043400515D44B
:101E30002068016841F40071016021686FF48060DE
:101E40004861C4F8309084F83DA084F83E90216C3D
:101E500041F00401216484F83C9021E0701C06D01C
:101E6000FEF792FEA0EB0800B04203D816B1012F96
:101E70001FD021E02068012F15D0806925EA0000DD
:101E80000004000C18D000BF44F8309F84F80DA067
:101E900084F80E90216941F02001216184F80C90B2
:101EA0000120BDE8F087406925EA00000004000C2D
:101EB000EAD12068406901E02068806925EA0000D5
:101EC0000004000CAFD1ECE72DE9F041002590466D
:101ED0000E460446202728E04069C043C0060CD4C3
:101EE00054F8301B6FF01000486144F810596777C0
:101EF000A577206A2062257714E0FEF745FEA0EB67
:101F00000800B04200D886B920684069C043400646
:101F10000BD544F8305F6773A573206940F020004B
:101F2000206125730120BDE8F08120684169C94323
:101F30004906D1D40020F6E770B516460D46044692
:101F40001EE02046FFF712FE08B1012070BD681C9C
:101F500016D0FEF719FE801BA84200D885B920686C
:101F60004069C04300060BD5002044F8300F202103
:101F70006173A073216941F0200121612073E4E7BE
:101F800020684069C0430006DBD4002070BD00001B
:101F900008B501208DF8000001466846FFF7DAFD1C
:101FA00018B103A000F0C8F908BD06A0FAE70000C8
:101FB000496E69745F424831373530204572726F1F
:101FC000720A0000496E69745F424831373530202B
:101FD0004F6B0A0010B5124B92B00EAC0FCB84E8D9
:101FE0000F0000210EA800F05EFE0E4C0C491C22D2
:101FF000E06010316846FEF713F90021684600F0F2
:1020000065FE074960601C222C3107A8FEF708F91D
:10201000002107A800F05AFEA06012B010BD000019
:10202000CC380008000000200D4808B5816941F057
:1020300020018161816901F020010091816941F0F5
:1020400004018161816901F004010091816941F01D
:1020500008018161806900F00800009008BD00005F
:10206000001002400D4810B50B4901600C49416059
:1020700000214FF480428160C0E903124161816117
:10208000C1610162FEF786FD002803D0BDE8104063
:10209000FEF76ABC10BD000000540040E0020020C2
:1020A000A08601000C4810B50A4901604FF4E131E7
:1020B0004160002181600C22C160C0E9041281618D
:1020C000C161FFF782FC002803D0BDE81040FEF795
:1020D0004BBC10BD0038014034030020FEE7FEE792
:1020E00010B5502080F31188BFF34F8FBFF36F8F6F
:1020F00001F0ECFA18B104494FF08050086000205C
:1021000080F3118810BD000004ED00E030B58FB001
:1021100028216846FEF79DF814210AA8FEF799F8D1
:1021200001210804CDE90010002402940225049145
:10213000CDE907504FF4E01009906846FFF78EF99B
:1021400008B172B6FEE70F20CDE90A054FF48060B2
:10215000CDE90C4002210AA80E94FFF783F800286D
:1021600001D072B6FEE70FB030BD70470148FFF7EF
:102170006CBB00007C030020F0B502681C4B1D4DB9
:102180001D4E1E4F1E4C4FF0804C984209D0A0426D
:1021900007D0604505D0A84203D0B04201D0B84274
:1021A00004D122F0700E4A6842EA0E02984209D029
:1021B000A04207D0604505D0A84203D0B04201D06C
:1021C000B84203D122F44075CA682A434D6922F00F
:1021D00080022A4302608A68C2620A688262984268
:1021E00001D0A04201D10969016301214161F0BD23
:1021F000002C01400004004000080040000C00409A
:102200000034014070B5044600680169E26821F4B9
:102210004051114301612169A06808436169084385
:102220002168CA6841F20C639A430243CA6020687D
:102230004169A26921F44071114341611E4920683E
:10224000884202D1FFF7D4F801E0FFF7C1F800EBB4
:10225000C00101EB0012606864218000B2FBF0F362
:10226000B3FBF1F36FF018067343B2FBF0F5B2FB6A
:10227000F0F605EB8305322303EB0515B5FBF1F50D
:10228000B6FBF1F605F0F00505EB0615B2FBF0F62E
:10229000B2FBF0F0B0FBF1F06FF01802504306EB28
:1022A000800003EB0010B0FBF1F0216800F00F009C
:1022B0002844886070BD0000003801402DE9F041DD
:1022C000984617460E460446069D27E0681C25D012
:1022D0002DB1FEF759FCA0EB0800A8421ED92068DA
:1022E0000C3050E8001F21F4D07140E80012002AA1
:1022F000F5D12068143050E8001F21F0010140E8BA
:102300000012002AF5D1202084F8410084F8420010
:10231000002084F840000320BDE8F08120680068B8
:1023200036EA000004D00020B842CFD00020F3E706
:102330000120F9E7FEE700000FB4054B10B503A933
:10234000044A029800F0EAF810BC5DF814FB0000A3
:102350004D2C0008880000200907090E002804DB26
:1023600000F1E02080F80014704700F00F0000F149
:10237000E02080F8141D704702E008C8121F08C151
:10238000002AFAD170477047002001E001C1121FF6
:10239000002AFBD1704700002DE9FF5F82B00021C9
:1023A000DDE90430020DDDF840B0034318D044F6F7
:1023B0001050A2F2FF3242431514119801281FD089
:1023C000A5EB0B00401C5FEA000A4FF000064E4FE1
:1023D000DFF83891B046504615D5CAF1000413E035
:1023E000119801244AA3012801D16FEA0B01029838
:1023F000119AC0E90031C0E9024206B0BDE8F09F81
:10240000CBF10000DFE704460021404A491842EBC7
:102410000450CDE9001012E0E00707D032463B46F9
:1024200040464946FEF749F98046894632463B46D2
:1024300010461946FEF741F906460F466410002C77
:10244000EAD1DDE90401DDE90023BAF1000F06DA83
:10245000FEF733F942464B46FEF72FF905E0FDF74C
:1024600003FF42464B46FDF7FFFE04460E460022A0
:10247000284BFEF7ADF903D84FF0FF30014607E0D7
:102480000022254B20463146FEF770F8FEF787F90B
:10249000102409E0002C0ADB0A220023FDF7A1FF2B
:1024A000039B30321A55641E50EA0102F2D1641CBB
:1024B000039AC4F111031444119A012A03D0012292
:1024C00008430DD10AE0084304D000204FF0110B5F
:1024D000119072E7A3EB0B056D1E0DE05B4504DD6B
:1024E0004FF0000205F1010504E003DA4FF00002AD
:1024F000A5F10105002AECD002981199C0E902313A
:10250000C0E9004579E70000000014400000F03FFA
:10251000300000000000F0430000E03F2DE9FF4FD5
:1025200095B09B468946064600250FE2252877D1BF
:1025300000242746F84A0121059400E0044316F8D8
:10254000013F203B01FA03F01042F7D130782A28EE
:1025500011D06FF02F033078A0F13002092A16D87D
:10256000059A44F0020402EB820203EB420210449B
:10257000761C0590EFE759F8042B0592002A03DA40
:10258000504244F40054059044F00204761C307824
:102590002E2816D116F8010F44F004042A280DD075
:1025A0006FF02F023078A0F13003092B09D807EB28
:1025B000870302EB4303C718761CF3E759F8047B43
:1025C000761C30786C280FD006DC4C2817D0682891
:1025D0000DD06A2814D104E0742810D07A280FD1C5
:1025E0000DE044F400140AE044F4801401E044F4E3
:1025F00040147278824202D104F58014761C761C55
:10260000307866280BD013DC582877D009DC0028F6
:1026100075D04528F6D04628F4D047281AD19DE138
:1026200018E0632835D0642879D0652812D195E167
:10263000702873D008DC6728F1D069286FD06E2825
:102640000DD06F2806D1B5E073282CD0752875D031
:10265000782874D05A46179990476D1C75E1C4F3D9
:102660000250022809D003280DD0D9F80010042800
:102670000DD00D6009F1040967E1D9F80010EA17DF
:10268000C1E90052F6E7D9F800100D80F2E70D70AD
:10269000F0E719F8041B8DF8001000208DF80100F8
:1026A000EA46012003E059F804AB4FF0FF30610720
:1026B0004FF0000102D40DE008F101018846B94253
:1026C0000FDA8045F8DB1AF808100029F4D108E089
:1026D00008F1010188468142FADB1AF80810002946
:1026E000F6D105985B46A0EB080721463846179AB5
:1026F00000F094FA284400EB080507E04DE029E1DA
:102700000DE01AF8010B5A4617999047B8F10108E5
:10271000F7D25B4621463846179A13E142E00A2277
:102720000092C4F302524FF0000A022A08D059F86E
:1027300004CB032A4FEAEC710AD00DE029E02AE02D
:1027400009F1070121F00702F2E802C1914609E010
:102750000FFA8CFC4FEAEC71042A03D14FFA8CFC7F
:102760004FEAEC71002907DA0A460021DCF1000C7F
:1027700061EB02012D2202E0220504D52B228DF807
:102780000420012203E0E20701D02022F7E790466F
:1027900059E00A2102E010220DE010214FF0000A5A
:1027A00000910BE010224FF0000A44F004040827C7
:1027B000009203E008224FF0000A0092C4F3025294
:1027C000022A05D059F804CB0021032A08D009E0D9
:1027D00009F1070121F00702F2E802C1914605E084
:1027E0001FFA8CFC042A01D10CF0FF0C4FF00008FA
:1027F000220728D5702806D0009B83F0100353EAE7
:102800000A0305D00EE040228DF80420012208E0E2
:102810005CEA010206D030228DF804208DF8050014
:1028200002229046009B83F0080353EA0A030AD170
:102830005CEA010201D1620705D530228DF804203F
:102840004FF001087F1E582804D034A003900EA832
:1028500002900DE036A0F9E753466046009AFDF776
:10286000C0FD84460398825C0298401E029002706C
:102870005CEA0100F0D1029806A9081A00F1200ACA
:10288000600702D524F4803400E00127574502DDBB
:10289000A7EB0A0000E0002000EB0A010090059879
:1028A0004144401A0590E00306D45B462146179A3E
:1028B000059800F0B3F90544002706E001A85A4640
:1028C000C05D179990476D1C7F1C4745F6DBE00300
:1028D0000CD55B462146179A059800F09FF90544F0
:1028E00004E030205A46179990476D1C0099481E05
:1028F00000900029F5DC08E0029802995A46007819
:10290000491C0291179990476D1CBAF10001AAF178
:10291000010AF1DC65E100000928010030313233A1
:10292000343536373839616263646566000000000B
:1029300030313233343536373839414243444546F5
:102940000000000000F058F90544761C307800289B
:102950007FF4ECAD19B02846BDE8F08F620700D4D3
:10296000062709F1070222F0070CFCE80223E146E2
:1029700003F000485FEA080C02D00FF2702C0DE063
:102980005FEA045C02D50FF2682C07E05FEAC47CC2
:1029900002D00FF2602C01E0AFF2700C4FF0FF3864
:1029A00023F00043CDF850C065280CD006DC452844
:1029B00009D046281DD047283DD13DE0662818D0D3
:1029C00067287ED138E00021112F01DB112000E0C3
:1029D000781CCDE9000106A90EA8FFF7DDFCDDE9B2
:1029E0000F010E9A03910021009207F1010A049150
:1029F0004DE04FF000400097CDE9011006A90EA868
:102A0000FFF7CAFCDDE90F0203920E9B1199002229
:102A1000DDF80CA00093049211B9791C00EB010AB7
:102A2000B7EB0A0004D4C0F1FF3007F1010A0490AB
:102A3000AAEB0700019044E0012F00DA01270021F2
:102A4000112F01DD112000E03846CDE9000106A973
:102A50000EA8FFF7A1FCDDE90F010E9A03910021FA
:102A600004910092BA4621070CD40399514500DA2B
:102A70008A46BAF1010F05DD009AAAF10101515C05
:102A8000302908D0B84202DA10F1040F06DA012129
:102A9000CDE9011015E0AAF10101E9E7002805DC04
:102AA000049901440491AAEB000102E0411C514544
:102AB00000DD8A460499401A401C01904FF0004006
:102AC0000290200704D40198504501DBCDF8048022
:102AD00000208DF84F0002980DF14F07B0F1004F24
:102AE00025D02B200E9002984FF0020800280CDA17
:102AF000404202902D200E9007E00A210298FDF737
:102B00005AFC3031029007F8011DB8F10001A8F11C
:102B10000108F2DC02980028EFD1791E0E980870A7
:102B2000307800F0200040F0450007F8020D12A8B0
:102B3000C01B00F107081498007800B1012000EBD9
:102B40000A01019801EBE07105984144401A401ECA
:102B50000590E00306D45B462146179A059800F0DD
:102B60005DF805441498007818B15A4617999047B3
:102B70006D1CE00324D55B462146179A059800F0AA
:102B80004DF805441CE00498002807DBDDE903014B
:102B9000884203DD0098405C179901E017993020C6
:102BA0005A469047049805F10105401C049001988D
:102BB000401E019004D12E205A46179990476D1C53
:102BC000BAF10001AAF1010ADDDC05E017F8010BFA
:102BD0005A46179990476D1CB8F10001A8F10108F9
:102BE000F4DC5B462146179A0598ABE62D00000001
:102BF0002B000000200000002DE9F04104460025D4
:102C00001E461746880404D405E039462020B04704
:102C10006D1C641EF9D52846BDE8F0812DE9F04110
:102C2000044600251E469046C80301D5302700E023
:102C30002027880404D505E041463846B0476D1C7E
:102C4000641EF9D52846BDE8F081000013B54FF6A3
:102C5000FF73012269460248FEF722FF00981CBD5F
:102C600034030020FEF74EFAFFF750FAFFF7DCF9C5
:102C7000FFF718FAFFF7F6F9FFF7ACF900F00EF8D6
:102C8000FEE701460020842900D0C81C704710B51B
:102C900000B9012000F040FB002010BD10B500F08D
:102CA00061FB002010BD38B5D0E9011204683AB1CB
:102CB000C3682BB100200090204600F037FC38BDDF
:102CC0002046BDE83840002200F00CBC7FB50D4620
:102CD00004464169B0F9080081B1A16971B1FFF7FB
:102CE000D0FFD4E905128DE80700D4E900102B4687
:102CF000226900F0C0FC039004B070BDFFF7C1FF73
:102D000003A9CDE90001208A2B4682B2D4E9001044
:102D100000F084FC012801D00020EDE70398EBE7E8
:102D20002DE9F0411A4C0F460546666921680020DE
:102D300081F852002068001D00F02AFA38B9206896
:102D400090F82C1001208840A1698143A161681C82
:102D500007D137B12168BDE8F0410E48091D00F0E8
:102D60005BBA20683544B5424560216805D2A06849
:102D7000BDE8F041091D00F037BA6068091D00F098
:102D800033FA206B854200D22563BDE8F081000054
:102D900028000020A00400202DE9F041054600F0A5
:102DA00047FA2E4C2069401C206120682C4F10B13E
:102DB000E06940B32DE025602069012829D1002673
:102DC00006EB860007EB800000F000FA761C072E69
:102DD000F6D323488C3000F0F9F92148A03000F0F8
:102DE000F5F91F48B43000F0F1F91D48C83000F083
:102DF000EDF91B48DC3000F0E9F919488C306060CF
:102E00001430A06005E02068E96AC06A884200D8F2
:102E10002560E06A401CE062E96A0120A2698840FE
:102E20001043A06101EB810007EB8000291D00F039
:102E3000F3F900F01DFAE06900280CD02068E96A77
:102E4000C06A884207D207494FF080500860BFF33C
:102E50004F8FBFF36F8FBDE8F08100002800002086
:102E6000C403002004ED00E010B5044690F85100C2
:102E700058B101280CD002280FD0502080F31188BF
:102E8000BFF34F8FBFF36F8FFEE7206B00F004FAA4
:102E90002046BDE8104000F0FFB910BD10484FF4C7
:102EA0004061420706D0C01D0D4920F00700411ABD
:102EB000C1F540610B4A00230144C2E9000308390F
:102EC000103A21F0070111604B600B600B1AC0E94A
:102ED000001393604FF000405360D06070470000D3
:102EE000B404002074000020144E154CA6F1C8074D
:102EF0004FF08058DFF84C9012E000BF00F098F9D6
:102F0000F068C568281D00F043F92069401E206163
:102F1000E068401EE06000F0ABF92846FFF7A4FF30
:102F2000E0680028EAD138680128F9D9C9F800809A
:102F3000BFF34F8FBFF36F8FF2E700008C040020C8
:102F40002800002004ED00E00346009829B102604B
:102F5000C0E90F31012100F01DBB0060F8E72DE949
:102F6000F0470E46DDE909841746824691009946EE
:102F7000089DA522206BFDF765F96FF00301206B1A
:102F800001EB8701084420F00707780707D050209D
:102F900080F31188BFF34F8FBFF36F8FFEE72218C6
:102FA000315C82F83410315C11B1401C1028F6D32A
:102FB000002684F84360072D00D30625E562C4E9A6
:102FC0001156201D00F00DF904F1180000F009F968
:102FD0002461C5F107006462A061E66484F8506072
:102FE00084F852604A465146384600F0BFF82060E7
:102FF000B8F1000F01D0C8F80040BDE8F08700002C
:1030000030B5114900E011460A688242FBD34B6893
:103010005C18844203D140681844486008464368FD
:103020001C18944209D1084C103C2468A24209D0D3
:1030300052681A4442600A6812680260814200D0F5
:10304000086030BD0460F9E774000020064841685C
:10305000096829B14168C968C9684968016370474E
:103060004FF0FF31FAE700002800002008484068D0
:10307000401C4FF0500080F3118804D0BFF34F8FF5
:10308000BFF36F8FFEE7BFF34F8FBFF36F8FFEE786
:103090007C0000202DE9F0410546002700F098F95A
:1030A000314E306808B9FFF7F9FEF06805424BD1A0
:1030B000C5B3083568070ED005F00700C0F1080059
:1030C0000544680707D0502080F31188BFF34F8F65
:1030D000BFF36F8FFEE72DB37068854234D8224866
:1030E000103001460C6801E020460C466168A94298
:1030F00002D221680029F7D131688C4224D00768B8
:103100002168016060680837411B10290FD96019D8
:10311000420708D0502080F31188BFF34F8FBFF3D0
:103120006F8FFEE710E041606560FFF769FF61683F
:103130007068401A7060B268904200D2B060F06867
:1031400001430020C4E9000100F05EFB780707D0CE
:10315000502080F31188BFF34F8FBFF36F8FFEE7CE
:103160003846BDE8F08100006400002010B5031F60
:103170004FF080741C601B1F21F001011960191FA2
:10318000024B0B60143940380A6010BD6D300008E6
:10319000D0E9013201699A60D0E901235A604A6896
:1031A000824201D182684A60002202610868401EA2
:1031B0000860086870470000034B036003F1540087
:1031C00008608020106070478C00002000F108012A
:1031D0004FF0FF32C0E90112C160016100210160BE
:1031E000704700210161704730B50B685A1C02D04E
:1031F00000F1080202E0026904E0224654682568F2
:103200009D42FAD953684B6099608A6051600861A9
:103210000168491C016030BD42684A6093688B6058
:1032200093685960916008610168491C01607047AA
:10323000502080F31188BFF34F8FBFF36F8F0A497F
:103240004868401C486001280CD10848006810F00C
:10325000FF0F07D0502080F31188BFF34F8FBFF3CB
:103260006F8FFEE7704700007C00002004ED00E057
:103270000849486828B1401E486001D180F3118890
:103280007047502080F31188BFF34F8FBFF36F8FCB
:10329000FEE700007C00002070B5002827D0144D08
:1032A000A0F108046168E868014207D1502080F36A
:1032B0001188BFF34F8FBFF36F8FFEE722683AB1DB
:1032C000502080F31188BFF34F8FBFF36F8FFEE75D
:1032D0008143616000F07CF8606869680844686058
:1032E0002046FFF78DFEBDE8704000F08DBA70BD3E
:1032F000640000204FF0E020002101618161054958
:103300004FF47A720968B1FBF2F1491E416107215D
:10331000016170472400002010B5020014D00F484E
:10332000806B38B1502080F31188BFF34F8FBFF30B
:103330006F8FFEE700F04CF800211046FFF7F0FC1D
:1033400000F062FA002807D105494FF0805008606C
:10335000BFF34F8FBFF36F8F10BD00002800002018
:1033600004ED00E010B586B00024039405AA04A97A
:1033700003A80494FFF720FFDDE903010094CDE9E1
:10338000011000230EA11048059A00F074F90F49AE
:103390000028486311D0502080F31188BFF34F8F6D
:1033A000BFF36F8F4FF0FF3008630120C8614C619D
:1033B00006B0BDE8104000F041B806B010BD0000F6
:1033C00049444C4500000000E92E00082800002078
:1033D0000248816B491C816370470000280000206F
:1033E0001448816B11B10121416270470021416293
:1033F0008169B1FA81F1C1F11F0101EB81020E492E
:1034000051F822306BB101EB820101F108034A68E7
:1034100052684A609A4201D152684A60D16801609C
:103420007047502080F31188BFF34F8FBFF36F8F29
:10343000FEE7000028000020C40300201CB5264938
:1034400008780190FF20087008788DF800009DF83A
:1034500000009DF8002000F0F000904207D05020BE
:1034600080F31188BFF34F8FBFF36F8FFEE79DF896
:1034700000001A4B00F0500018700720986005E01B
:103480009DF8002052008DF80020401E9DF800207D
:103490001206F5D49860032807D0502080F31188D5
:1034A000BFF34F8FBFF36F8FFEE74FF4407098600C
:1034B000019808700A48016841F4700101600168D0
:1034C00041F070410160FFF715FF00205860FCF7E4
:1034D0004BFE00201CBD000000E400E07C0000204A
:1034E00020ED00E0F8B517460E46050014D0DEB119
:1034F00005FB06F04830FFF7CDFD04000AD00020A0
:1035000084F8460004F148023B46314628460094C0
:10351000FFF71AFD2046F8BD502080F31188BFF355
:103520004F8FBFF36F8FFEE70020E3E738B5049DB0
:1035300018B153B1CAB181B120E0502080F3118895
:10354000BFF34F8FBFF36F8FFEE7502080F31188DA
:10355000BFF34F8FBFF36F8FFEE7502080F31188CA
:10356000BFF34F8FBFF36F8FFEE739B1502080F369
:103570001188BFF34F8FBFF36F8FFEE748241C46BF
:10358000012384F846302B460094FFF7DDFC2046EB
:1035900038BD000070B50D46040025D0FFF748FE89
:1035A000D4E90F20216802FB001161600021A163B2
:1035B0002168A1600A46D4E90F01401E00FB0121E9
:1035C000E16021464FF0FF3001F8440F487004F1EC
:1035D00010008DB1FFF7FAFD04F12400FFF7F6FDAE
:1035E000FFF746FE012070BD502080F31188BFF325
:1035F0004F8FBFF36F8FFEE721690029F0D000F0F5
:10360000C9F80028ECD004494FF080500860BFF39F
:103610004F8FBFF36F8FE3E704ED00E02DE9FF5F0D
:103620008346DDE90E87994616468A469000FFF7E5
:1036300031FD05001CD05420FFF72CFD040014D0F0
:103640000020256384F85100CDE90240CDE90087D0
:103650004B46324651465846FFF781FC2046FFF75D
:103660009BFB012004B0BDE8F09F2846FFF714FE45
:103670004FF0FF30F6E7F0B585B0DDE90B640A9D49
:10368000A6B1DCB1542700972663022684F8516066
:10369000002604AFCDE90246CDE90057FFF75FFCF5
:1036A0002046FFF779FB049805B0F0BD502080F369
:1036B0001188BFF34F8FBFF36F8FFEE7502080F369
:1036C0001188BFF34F8FBFF36F8FFEE72DE9F041F5
:1036D0002E4C0027A06B40B1206A401C2062606A1B
:1036E00000B101273846BDE8F0816669761C666145
:1036F00013D16068006838B1502080F31188BFF39F
:103700004F8FBFF36F8FFEE76068A1686160A060B4
:10371000A06A401CA062FFF799FC206BDFF8708064
:10372000864209D36068006880B16068C068C56877
:10373000686886420DD220632068C06A00EB800171
:1037400058F821000128CAD90127C8E74FF0FF30F7
:10375000F1E7281DFFF71CFDA86A18B105F1180054
:10376000FFF716FDE86A0121A26981401143A161BA
:1037700000EB800108EB8100291DFFF74DFDE86A91
:103780002168C96A8842CDD30127CBE728000020F1
:10379000C40300202DE9F041C068C468ACB104F155
:1037A00018000746FFF7F4FC154DA86B0126A0B1E1
:1037B00039461448FFF730FDE06A2968C96A884233
:1037C0001CD901206E62BDE8F081502080F3118881
:1037D000BFF34F8FBFF36F8FFEE7201DFFF7D8FCBD
:1037E000E16AAA6906FA01F01043A86101EB8100C1
:1037F0000449B43901EB8000211DDBE70020E2E73A
:1038000028000020780400202DE9F0472C4D0024EA
:103810002746A86B38B1FFF70BFDA86B401EA863C5
:10382000A86B40B146E0502080F31188BFF34F8F62
:10383000BFF36F8FFEE72969224E0120D1B3A6F1B5
:10384000B40980463068E8B1F068C46804F1180033
:10385000FFF79EFC201DFFF79BFCE06AAA6908FAAF
:1038600000F11143A96100EB800109EB8100211DEA
:10387000FFF7D2FCE06A2968C96A8842E2D3C5F83A
:103880002480DFE70CB1FFF7E1FB2C6A44B1464628
:10389000FFF71CFF00B16E62641EF9D100202862A0
:1038A000686A38B10849012738070860BFF34F8FAD
:1038B000BFF36F8FFFF7DCFC3846BDE8F0870000F0
:1038C000280000207804002004ED00E01000000033
:1038D0000200000000000000000000004C39000859
:1038E00069080008000000000000000080000000DF
:1038F0000000000000000000403900085F090008D7
:103900000000000000000000800000000000000037
:1039100000000000010202030405060708090A0B63
:103920000C0D0E0F1010000000000000000001023E
:103930000304060708090000000001020304000058
:1039400044485431315F5441534B000042483137B1
:1039500035305F5461736B00783900080000002037
:103960008C00000078230008043A00088C00002036
:103970002C14000088230008000000000000000054
:103980000000000000000000000000000000000037
:103990000100000010000000000000000024F400FE
:1039A0000000000000000000000000000000000017
:1039B0000000000000000000000000000000000007
:1039C00000000000000000000000000000000000F7
:1039D00000000000000000000000000000000000E7
:1039E00000000000000000000000000000000000D7
:1039F0000000000000000000AAAAAAAA000000001F
:043A000000000000C2
:0400000508000131BD
:00000001FF
