:020000040800F2
:10000000782D0020DD0100083B440008133400086F
:10001000394400080114000849500008000000009D
:100020000000000000000000000000004501000882
:10003000031400080000000089010008E94B0008D3
:10004000B1500008F7010008F7010008F7010008A7
:10005000F7010008F7010008ED160008F701000895
:10006000F7010008F7010008F7010008F701000890
:10007000F7010008F7010008F7010008F701000880
:10008000F7010008F7010008F7010008F701000870
:10009000F7010008F7010008F7010008F701000860
:1000A000F7010008994C0008F7010008F701000863
:1000B000F7010008F7010008F7010008F701000840
:1000C000F7010008F7010008F7010008F701000830
:1000D000F7010008F7010008FD4F0008F7010008CC
:1000E000F7010008F7010008F7010008F701000810
:1000F000F7010008F7010008F7010008F701000800
:10010000F7010008F7010008F7010008F7010008EF
:10011000F7010008F7010008F7010008F7010008DF
:10012000F7010008F7010008F7010008F7010008CF
:10013000DFF80CD000F0A8FC00480047B15A0008D6
:10014000782D0020224B19680868B0E8F00F80F382
:100150000988BFF36F8F4FF0000080F311884EF0D5
:100160000D0E70470000000006480068006880F32C
:10017000088862B661B6BFF34F8FBFF36F8F00DFA1
:1001800000BF00BF08ED00E0EFF30980BFF36F8F01
:100190000F4B1A6820E9F00F106008B54FF05000BF
:1001A00080F31188BFF34F8FBFF36F8F06F09AFD76
:1001B0004FF0000080F31188BDE808401968086816
:1001C000B0E8F00F80F30988BFF36F8F704700BF6E
:1001D00054000020EFF30580704700000648804778
:1001E00006480047FEE7FEE7FEE7FEE7FEE7FEE71C
:1001F000FEE7FEE7FEE7FEE7954C00083101000848
:10020000202A04DB203A21FA02F00021704721FA6B
:1002100002F3D040C2F120029140084319467047D2
:1002200040EA01039B0703D009E008C9121F08C078
:10023000042AFAD203E011F8013B00F8013B521EF8
:10024000F9D27047D2B201E000F8012B491EFBD26F
:1002500070470022F6E710B513460A4604461946D1
:10026000FFF7F0FF204610BD421E12F8013F002BA1
:10027000FBD111F8013B02F8013B002BF9D170478B
:1002800030B505462A460B4612F8010B13F8014B10
:1002900008B1A042F8D01CB1002802D06D1CF1E7D3
:1002A000284630BDCAB2401E10F8011F8A4202D053
:1002B0000029F9D100207047421C10F8011B0029C9
:1002C000FBD1801A704710B5044600E0401C03784B
:1002D000002BFBD100E0401C521E04D311F8013B5F
:1002E0000370002BF7D100210170204610BDF0B43F
:1002F00080EA0102D40F4200B2EB410F02D2024663
:10030000084611464A0042D0C30DDDB2C1F3C752C0
:10031000AD1A202D35DAC1F3160141F4000204B103
:100320005242C5F1200602FA06F12A411044B3EB0D
:10033000D05F23D0C4B1012DA0EBC35009DCF0BCC9
:100340004FF0004202EAC352DBB200F5000000F0B9
:10035000E0BA400000F1807000EBC350A0F1807063
:1003600040EAD170490009E0490841EAC071A0EBB8
:10037000C35000F50000400800EBC350F0BC00F093
:10038000BFBA6142012202EB4101001BF6E7F0BC5B
:10039000704781F00041AAE780F00040A7E780EABB
:1003A000010210B502F00043400022D04A001FD0E5
:1003B000010E01EB1261C0F35600C2F3560240F485
:1003C000000042F40002A0FB022000047F39140464
:1003D00000D0401C50EA124001D44000491EC2B275
:1003E0000C0604EBD010401C4008802A02D003E029
:1003F000002010BD20F00100002900DA0020184381
:1004000010BD30B480EA010202F0004530F0004235
:1004100021F0004013D090B1C30DD40DC2F31601EA
:10042000C0F31600E41A41F4000140F400027D34E8
:10043000914201D3641C00E04900002C02DA30BC78
:10044000002070474FF400000023914201D3891A25
:10045000034340084FEA4101F7D151B1914202D123
:100460004FF0004105E002D24FF0010101E06FF0D2
:10047000010103EBC450284430BC00F041BA2DE91F
:10048000FE4F804681EA0300C00F0C46009021F029
:10049000004123F00045B8EB0200A94105D24046D7
:1004A000214690461C460B46024623F0004010436E
:1004B00047D0270DC7F30A00C3F30A510290401A30
:1004C000019040286BDAC3F3130040F4801B0098BE
:1004D000924620B10023D2EB030A63EB0B0B019889
:1004E0005946C0F14002504600F0E9F906460D4673
:1004F00050465946019A00F0F1F910EB08006141AD
:10050000002487EA115284EAE7731A4340D0009A24
:1005100062B3019A012A4FEA075215DC001B61EB16
:1005200002014FF0004202EA0752CDE90042001CEE
:1005300041F5801132462B4600F028FA03B0BDE8A1
:10054000F08F40462146F9E7001B61EB0201001CD9
:1005500041F5801300185B412018A2F5001747EB06
:10056000030140EAD570B6196D4111E06D084FEAFC
:10057000360645EAC0754FEA0752001B61EB0201DF
:10058000001C41F5801149084FEA30000019514123
:1005900032462B4603B0BDE8F04F00F0E8B90098B2
:1005A000012240000023D0EB020263EBE0730098CD
:1005B00021464FEAE074B8EB000061EB0401E9E783
:1005C00083F000435BE781F0004158E72DE9FE4FDF
:1005D00081EA030404F0004421F0004100944FF04C
:1005E000000B23F0004350EA01045ED052EA0304FA
:1005F0005BD0C3F30A54C1F30A552C44A4F2F3347C
:100600000194A0FB0254C1F3130141F48011C3F320
:10061000130343F4801301FB024400FB034E840ADE
:10062000970A44EA815447EA8357A4FB0768029576
:100630008D0A05FB07854FEA932C04FB0C54270514
:10064000029D4FEA065847EA1637B5EB08056EEBF0
:10065000070C870E920E47EA811742EA8312A7FB26
:100660000201B6EB0B0164EB00042B0D43EA0C33E3
:100670005E1844EB1C50DA465146E7FB0201C5F315
:1006800013044FEA0B3343EA14534FEA0432019C3C
:1006900043EA0603A4F10C040294009CCDE900B4E3
:1006A00000F074F903B0BDE8F08F00200146F9E7CF
:1006B0002DE9F04D81EA030404F0004B21F00045E0
:1006C00014464FF0000A23F0004150EA050220D002
:1006D00054EA01021DD0C5F30A570246C5F31303BD
:1006E000C1F31300C1F30A5640F4801543F480139C
:1006F000A7EB0608101BD64608F2FD3873EB050081
:1007000002D308F1010801E092185B41B8F1000F33
:1007100003DA00200146BDE8F08D00204FF480117F
:10072000064684460EE0171B73EB050705D3121B24
:1007300063EB050306434CEA010C49084FEA30001D
:1007400092185B4150EA0107EDD152EA030012D042
:1007500082EA040083EA0501084305D0101BAB417F
:1007600006D20122002306E000224FF0004302E0FF
:100770006FF0010253101AEB06004CEB085110EB1E
:100780000A0041EB0B01BDE8F04D00F0F0B8C10FDD
:1007900080EAE0700844CA079623002100F0B9B847
:1007A00096230022114600F0B4B800F0004230F069
:1007B00000400AD0C10D01F56071C0F3160042EA95
:1007C0000151C2084007114370470020014670479D
:1007D00001F0004330B421F0004150EA010206D09C
:1007E0000A0DA2F56072C1F31301002A02DC30BCCD
:1007F00000207047440F44EAC104C100E01830BC37
:1008000000EBC25000F07CB8002801DBC0F10040D2
:10081000002901DBC1F1004181427047002801DB62
:10082000C0F10040002901DBC1F10041884270475E
:1008300030B50B46014600202022012409E021FAB0
:1008400002F59D4205D303FA02F5491B04FA02F5AD
:100850002844151EA2F10102F1DC30BD2DE9F05F44
:100860000546002092469B4688460646814640241F
:100870001BE02846414647462246FFF7C1FC534647
:100880005A46C01A914110D311461846224600F02C
:1008900016F82D1A67EB01084F4622460120002169
:1008A00000F00DF817EB00094E41201EA4F10104E1
:1008B000DFDC484631462A464346BDE8F09F202A01
:1008C00004DB203A00FA02F1002070479140C2F1A7
:1008D000200320FA03F3194390407047202A06DBD7
:1008E000CB17203A41FA02F043EAE07306E041FAFE
:1008F00002F3D040C2F120029140084319467047EC
:100900000029A8BF7047401C490008BF20F0010023
:10091000704710B4B0FA80FC00FA0CF050EA010401
:1009200004BF10BC704749B1CCF1200421FA04F493
:1009300011FA0CF118BF012121430843A3EB0C016C
:10094000CB1D4FEA00614FEA102042BF002010BCCF
:10095000704700EBC35010440029A4BF10BC70477F
:10096000401C490008BF20F0010010BC704710B5C2
:10097000141E73F1000408DA401C41F100019218C2
:100980005B411A4301D120F0010010BD2DE9F04D6B
:1009900092469B4611B1B1FA81F202E0B0FA80F2C0
:1009A00020329046FFF78BFF04460F4640EA0A00CC
:1009B00041EA0B0153465A46084313D0114653EA05
:1009C000010019D0C8F140025046FFF719FC054656
:1009D0000E46504659464246FFF771FF084305D080
:1009E000012004E020463946BDE8F08D0020054393
:1009F00046EAE0762C4337430A986305E40AA0EB05
:100A000008000022FD0A44EA47540A3002D50020BB
:100A10000146E9E7010510196941DDE908450019BA
:100A20006941BDE8F04DA2E7C1F30A52C1F31301D9
:100A300040F2FF3341F480119A4202DA002001466D
:100A4000704740F233439A42A2F2334202DC5242F0
:100A5000FFF7D6BBFFF733BF30B5041E71F10004BA
:100A600004DB4FF00044404264EB0101141E73F1BB
:100A7000000405DB1C464FF00043524263EB0403C5
:100A8000994208BF904230BD064C074D06E0E06831
:100A900040F0010394E8070098471034AC42F6D3C5
:100AA000FFF74AFB487B0008687B00082DE9F04F00
:100AB000ABB092468B46D0E901120688701E0E92AA
:100AC0000391029001EB80040020CDE90063B0EBBC
:100AD000D30F00F0BF83A0EBD600DB080D460690D5
:100AE00046F0070001EB80000B9026F0070002EBB8
:100AF00080000590F008089006F00700079040423B
:100B0000049000BFDBF80000CDF830B02F46206025
:100B1000DBF804006060DBF80800A060DBF80C0084
:100B2000E060DBF810002061DBF814006061DBF8A6
:100B30001800A061DBF81C00E061D5E90028AD6871
:100B4000D7E903B1D7E9056E08980F97CDE9093ABF
:100B500000282195CDE9288B00F0C88200230D9450
:100B60001446069AB346002088464FF0000C4FF01A
:100B7000000975461893002326461D9300231A93F7
:100B80000023199300231C9300231B9310920E9AA9
:100B90001290CDF850C01158141830462291FFF72A
:100BA000FEFB01464846FFF7A2FBDDF8A0A0616806
:100BB000074650462A91FFF7F2FB01463846FFF7F9
:100BC00096FBDDF88490A168074648462391FFF71D
:100BD000E6FB01463846FFF78AFB299EE168074697
:100BE000304627912996FFF7DAFB01463846FFF792
:100BF0007EFB216907464046CDF880802591FFF7AE
:100C0000CEFB01463846FFF772FB6169074658463E
:100C1000D8462491FFF7C3FB01463846FFF767FB30
:100C2000A16907462846AB462691FFF7B8FB014667
:100C30003846FFF75CFB074612980F990844E169B4
:100C40001F90C0691E910446FFF7A9FB0146384674
:100C5000FFF74DFB229917905046FFF7A0FB014686
:100C60001B98FFF744FB2A9907464846FFF797FB76
:100C700001463846FFF73BFBDDF88CA007463046BF
:100C80005146FFF78CFB01463846FFF730FB209DAD
:100C9000279907462846FFF782FB01463846FFF7AB
:100CA00026FB2599074640464646FFF778FB014656
:100CB0003846FFF71CFBDDF8908007465846CDF814
:100CC0004CB04146FFF76BFB01463846FFF70FFB80
:100CD0002699074620461194FFF761FB01463846E6
:100CE000FFF705FB07461F981E99006A1590FFF74E
:100CF00056FB01463846FFF7FAFA22991B90484600
:100D0000FFF74DFB01461C98FFF7F1FA0746DDE9B6
:100D10002901FFF744FB01463846FFF7E8FA07468A
:100D200028465146FFF73BFB01463846FFF7DFFAFE
:100D3000279907463046FFF732FB01463846FFF752
:100D4000D6FA259907465846FFF729FB014638464B
:100D5000FFF7CDFA074620464146FFF720FB014644
:100D60003846FFF7C4FA159D269907462846FFF72F
:100D700016FB01463846FFF7BAFADDF87CB0DDF81D
:100D800078900746DBF8248049464046FFF707FB8A
:100D900001463846FFF7ABFADDF888A01C90299889
:100DA0005146FFF7FCFA01461998FFF7A0FA0446EE
:100DB00020982A99FFF7F3FA01462046FFF797FAA1
:100DC0002399044630461696FFF7E9FA0146204675
:100DD000FFF78DFA044613982799FFF7E0FA0146CA
:100DE0002046FFF784FA119F259904463846FFF7FD
:100DF000D6FA01462046FFF77AFA24990446284697
:100E0000FFF7CDFA01462046FFF771FA269904460E
:100E10004046CDF8A080FFF7C2FA01462046FFF712
:100E200066FADBF828B0044649465846CDF884B047
:100E3000FFF7B5FA01462046FFF759FA19902098B6
:100E40005146FFF7ACFA01461A98FFF750FA2A9973
:100E500004463046FFF7A3FA01462046FFF747FA5B
:100E6000139E239904463046FFF799FA014620461F
:100E7000FFF73DFA279904463846BA46FFF78FFA3E
:100E800001462046FFF733FADDF89490159F04469B
:100E900038464946FFF783FA01462046FFF727FA0E
:100EA000249904464046FFF77AFA01462046FFF7A8
:100EB0001EFA04465846DDF898B05946FFF76FFA17
:100EC00001462046FFF713FA05461F98DDF87880A3
:100ED000C06A41462990FFF762FA01462846FFF7AB
:100EE00006FA1A9016982299FFF759FA01461D98AA
:100EF000FFF7FDF92A9905463046FFF750FA0146FB
:100F00002846FFF7F4F92399054650465446FFF763
:100F100046FA01462846FFF7EAF9DDF89CA00546A7
:100F200038465146FFF73BFA01462846FFF7DFF9FE
:100F3000054628984946FFF732FA01462846FFF74A
:100F4000D6F9219F249905463846FFF728FA01462D
:100F50002846FFF7CCF9054629985946FFF71FFAAE
:100F600001462846FFF7C3F91F9D06464146286BF8
:100F70002090FFF714FA01463046FFF7B8F91D90AC
:100F800013982299FFF70BFA01461898FFF7AFF96B
:100F90002A9906462046FFF702FA01463046FFF737
:100FA000A6F9159C239906462046FFF7F8F9014655
:100FB0003046FFF79CF9DDF8A0B00646514658468A
:100FC000FFF7EDF901463046FFF791F925990646FE
:100FD0003846FFF7E4F901463046FFF788F9DDF8B7
:100FE000A480249906464046FFF7D9F901463046C9
:100FF000FFF77DF9DDF88090269906464846FFF711
:10100000CEF9014630462646FFF771F9D5F834A0EF
:101010001E9907465046FFF7C2F901463846FFF7CA
:1010200066F9189022981199179DFFF7B8F90146B3
:101030001498FFF75CF907462A982146FFF7AFF9A5
:1010400001463846FFF753F9074623985946FFF7FC
:10105000A6F901463846FFF74AF90746279821992D
:10106000FFF79DF901463846FFF741F907462598F5
:101070004146FFF794F901463846FFF738F907462D
:1010800024984946C846FFF78AF901463846FFF7D3
:101090002EF9074626985146D346A946FFF77FF911
:1010A00001463846FFF723F907461F98856B1E98BF
:1010B0002946FFF774F901463846FFF718F9109AE8
:1010C00084461298203001327FF460ADCDF858B0DC
:1010D0000DF16C08AA46DDE9191B059CDDF82CE032
:1010E0002A940D9C98E80C01189E14E0CDE9152671
:1010F000209107F11C00F2464FF000090022002366
:101100004FF0000B4FF0000800264FF0000C0E9936
:1011100086462A9100210C9820340D9420300C90A2
:101120000798CDE9191B00281BA880E80C01CDE920
:10113000179669D0049DDDE928B6DDE92093DDE945
:101140001501DDF8A8807446CDF858A058F804AB16
:101150004F468946CDF850C0CDF8A8B028932196C7
:101160005146FFF71CF901461798FFF7C0F8179092
:1011700058465146FFF713F901461B98FFF7B7F899
:101180001B9028985146FFF70AF901461C98FFF773
:10119000AEF81C9030465146FFF701F90146199808
:1011A000FFF7A5F81990384651463E46FFF7F7F885
:1011B00001461A98FFF79BF81A9048465146FFF7E8
:1011C000EEF801461D98FFF792F8DDF858B01D9033
:1011D00051465846FFF7E3F801461898FFF787F89D
:1011E00054F8047B189050463946BA46FFF7D7F8B2
:1011F00001461498FFF77BF859468446219BDDF899
:10120000A0B02A9801359FD1DDF828A01798CAF818
:1012100000001B98CAF804001C98CAF80800199826
:10122000CAF80C001A98CAF810001D98CAF81400E1
:101230001898CAE9060C0AF1200A0B98099B0F9D21
:101240002030013B05F120050B90DDE90CB47FF463
:1012500059AC00E00D46019810F0070926D000981F
:10126000DDF8388040422A90DBF800002A9E0D9479
:1012700000272060002400BFE85958F80710FFF746
:101280008EF801462046FFF732F80446013607F192
:101290000407F1D14AF8044B0D9CB9F1010905F19D
:1012A00004050BF1040B04F10404DDD1029B0020C2
:1012B000B0EB930F11D09808039A4042296801308F
:1012C000116069685160A9689160E96805F11005CD
:1012D000D16002F11002F1D100E0039A13F0030093
:1012E00006D0404255F8041B013042F8041BF9D1E6
:1012F0002BB0BDE8F08FB0B5826005460180049840
:101300001C4608446FF0030101EB80011846FEF70C
:10131000A0FF6C60B0BD00007FB50020029000907F
:10132000019002F0C9FAC82000F0A0FA5FF00104B1
:101330008DF80C40012103A802F078F838B910208C
:101340008DF80C00012103A802F070F828B19DF877
:101350000C1017A003F0B2FE7FBDC82000F086FA83
:101360000221684602F056F818B11BA003F0A6FE51
:101370007FBD9DF800009DF8011001EB0020FFF7F4
:1013800006FAFFF712FA4FF033321B4BFFF790F9D2
:10139000FFF71EFA194D02900123E8609A1E02A978
:1013A000686A05F0BDFD4FF4FA6004F048FDBFE740
:1013B0004932435F4248313735305F4F7065636F64
:1013C00064655F57726974653A20253278204572EA
:1013D000726F720A000000004932435F42483137A1
:1013E00035305F446174615F526561643A20204525
:1013F00072726F720A0000003333F33F0000002066
:10140000FEE7704710B580210348FEF722FF03492D
:101410000020088010BD0000640F0020380000206C
:1014200010B5044600F052F958B90AA10B48FEF76E
:1014300027FF30B13A21FEF735FF002800D0401CCD
:1014400010BD052000F012FA2046641EA4B2E9D2B5
:1014500010BD00004950442C00000000640F002023
:10146000314810B50068C16841F02001C160FFF744
:10147000C9FF02E0C82000F0F9F92CA12CA000F06F
:10148000DDF80028F6D12CA12E4803F0DFFD29A1BC
:101490002DA000F0D3F8C82000F0E8F925A12DA078
:1014A00000F0CCF8C82000F0E1F92EA1254803F0A7
:1014B000CDFD02E0C82000F0D9F91CA12DA000F05C
:1014C000BDF80028F6D12FA11E4803F0BFFD02E0B1
:1014D000C82000F0CBF915A12FA000F0AFF800282C
:1014E000F6D131A1174803F0B1FD02E0C82000F0A9
:1014F000BDF931A132A000F0A1F80028F6D138A141
:10150000104803F0A3FD02E0C82000F0AFF938A1B5
:1015100039A000F093F80028F6D1BDE8104041A1B1
:10152000084803F093BD0000300D00204F4B000031
:1015300041540D0A000000000D0A312E2052535470
:101540000D0A0000E80C002041542B5253540D0AA0
:101550000000000041542B434950434C4F53450D6C
:101560000A0000000D0A322E2043574D4F44450D0E
:101570000A00000041542B43574D4F44453D310D67
:101580000A0000000D0A332E2041542B43574448D3
:1015900043500D0A0000000041542B435744484378
:1015A000503D312C310D0A000D0A342E2043574A8C
:1015B00041500D0A00000000474F542049500000E0
:1015C00041542B43574A41503D2241636532222CFE
:1015D00022313233373830383037220D0A000000DC
:1015E0000D0A352E2043495053544152540D0A00E0
:1015F000434F4E4E4543540041542B43495053549E
:101600004152543D22544350222C223138332E3241
:1016100033302E34302E3339222C363030320D0A0E
:10162000000000000D0A362E204553503832363661
:1016300020496E6974204F4B0D0A000070B50E46AC
:101640000546C824FEF738FE82B229460B4803F04F
:101650001DFD0EE000F03AF840B931460848FEF7AB
:101660000FFE18B1FFF7CEFE002070BD0A2000F07B
:10167000FDF8641EE4B2EDD2012070BD300D0020F3
:10168000640F002030B589B00C460546FFF7BAFE5E
:10169000224608A1684603F021FD0AA16846FFF72B
:1016A000CDFF002804D122462946074803F0EEFC6E
:1016B00009B030BD41542B43495053454E443D255C
:1016C000640D0A003E000000300D0020064801882D
:1016D00031B14288914205D100210180084670470E
:1016E000012070474180FBE738000020012000F016
:1016F000D7B872B6FEE710B590F821100022022983
:1017000005D00421816380F82020012010BD0168EC
:101710000B6823F00E030B6001680B6823F00103D4
:101720000B6090F84030C46B012101FA03F3636051
:1017300080F8211080F82020104610BD2DE9F05FC0
:1017400090F821100024022903D004218163012490
:1017500085E001680A6822F00E020A6001680A68E2
:1017600022F001020A603F4E3E4FB215DFF8F4C08E
:10177000DFF8F090DFF8ECA0DFF8E8B0DFF8E4E0A5
:101780000168783F13011502ACF1640CA9F150090E
:10179000AAF13C0AABF1280BAEF1140E4FF48018FD
:1017A000B14227D9B9420ED0614512D049451DD06A
:1017B000514518D0594518D0714501D1424615E020
:1017C000294EB14201D1012210E0274E1436B14218
:1017D00001D110220AE0244E2836B14206D0224A16
:1017E0003C32914201D11A4600E02A461E49091FA7
:1017F0000A602BE0B94213D0614517D0494522D089
:1018000051451DD059451DD0714501D142461AE0C0
:10181000B14202D14FF0807215E0134EB14201D1B6
:10182000012210E0104E1436B14201D110220AE01C
:101830000D4E2836B14206D00B4A3C32914201D1BE
:101840001A4600E02A46074980394A60012180F89B
:101850002110002180F82010416B01B188472046FB
:10186000BDE8F09F800002400804024070B50446C5
:1018700000F024F90546601C02D0044800780444B6
:1018800000F01CF9401BA042FAD370BD44000020B8
:10189000012801D101490870704700003400002080
:1018A000044910B50A68024202D00860FFF7F0FF51
:1018B00010BD0000140401402DE9F84FDFF8C89175
:1018C0000024A9F1040B23460F2709F1040AABF108
:1018D000040ED1E00125A54006EA0502AA4276D110
:1018E000DFF8A8C14E68A6EB0C0866452BD00DDCCE
:1018F000032E34D005DC36B3012E19D0022E2FD1A1
:101900001BE0112E16D0122E2AD119E0B8F5881F2F
:1019100019D006DCB8F5803F15D0B8F5801F1FD16F
:1019200011E0B8F5001F0ED0B8F5041F18D10AE079
:10193000CB6815E0CB681B1D12E0CB6808330FE0C5
:10194000CB680C330CE08B682BB1012B4FF00803F4
:1019500003D0456104E0042302E0056100E00023B8
:10196000FF2A01D8064601E000F104064FEA84058B
:1019700001D9A5F12005D6F8008007FA05FC28EA70
:101980000C0803FA05F548EA0508C6F800804D681A
:10199000ED0070D53E4DAE6946F00106AE61AD6911
:1019A00024F0030605F0010500953A4D06EB050C01
:1019B000DCF80850A607360F07FA06F825EA0805EE
:1019C000DFF8D480404503D14FF0000825E052E015
:1019D000DFF8C880404502D14FF001081DE0DFF874
:1019E000C080404502D14FF0020816E0DFF8B48015
:1019F000404502D14FF003080FE0DFF8AC804045CE
:101A000002D14FF0040808E0DFF8A080404502D181
:101A10004FF0050801E04FF0060808FA06F848EA1A
:101A20000508CCF808804D68D9F80060ED024D46F5
:101A300001D5164300E096432E604D68DAF8006049
:101A4000AD02554601D5164300E096432E604D6821
:101A5000DBF80060AD035D4601D5164300E0964318
:101A60002E604D68DEF80060ED03754601D5164323
:101A700000E096432E60641C0A681646E2407FF43C
:101A800029AFBDE8F88F00000804014000001110E4
:101A9000001002400000014000080140000C01401D
:101AA000001001400014014000180140001C0140DA
:101AB0000AB1016170470904FBE700000148806832
:101AC000704700004400002070B5040025D094F851
:101AD0003D00002520B984F83C50204600F076FAFD
:101AE000242084F83D002068016821F00101016094
:101AF0002068016841F4004101602068016821F418
:101B00000041016000F0F4FC4D4A6168914201D847
:101B10004C4900E04C49884201D2012070BD4B493C
:101B20002368B0FBF1F15E6826F03F060E435E606D
:101B30006368934206D94FF4967359434FF47A730E
:101B4000B1FBF3F12368491C1E6A26F03F063143BE
:101B500019626168914210D84900401EB0FBF1F251
:101B6000521CC2F30B02042A01D2042022E0B0FB73
:101B7000F1F0401CC0F30B001CE0A268F2B301EBD3
:101B8000C10303EB0116431EB3FBF6F35B1C43F4E6
:101B900080431B0549D092B301EBC10202EB011156
:101BA000401EB0FBF1F0401CC0F30B0040F480403D
:101BB00040F400402168CA694CF6FF739A43104311
:101BC000C861D4E9071001432068026822F0C0020E
:101BD00011430160D4E9030101432068826848F29F
:101BE000FF339A4311438160D4E90501084321681A
:101BF000CA6822F0FF021043C86001E00EE016E060
:101C00002068016841F0010101602564202084F80A
:101C10003D00256384F83E50002070BD01EB410675
:101C2000431EB3FBF6F35B1CB3E70120C2E701EBF5
:101C30004101401EB0FBF1F0401CC0F30B00B7E7C0
:101C4000A086010080841E0000093D0040420F0074
:101C50002DE9F84F0025DDF82890984617468A466A
:101C600004460095FFF72AFF064694F83D00202819
:101C70007AD11923012286492046009601F0EAFC18
:101C80000028F5D194F83C0001286DD0012084F89B
:101C90003C0020680168C90703D1016841F00101D7
:101CA00001602068016821F400610160222084F84D
:101CB0003D00102084F83E0025646762A4F82A8065
:101CC000608D20857348E06233464A46514620467F
:101CD00001F0D0FB00287CD1208DDFF8BC812027CB
:101CE00068B1012814D00228206801681ED041F490
:101CF000806101602068416980690090BBE02068D4
:101D0000416981690091016841F400710160B2E0AC
:101D10002068016821F48061016072B62068416921
:101D200081690091016841F400710AE041F40061A9
:101D3000016072B62068416981690091016821F4EF
:101D40008061016062B696E0032865D801280CD056
:101D500002284B464FF000024146204600960BD029
:101D600001F078FCA8BB0CE090E0324649462046E2
:101D700001F016FD68BB71E001F06CFC48BB72B667
:101D800033E02068016821F48061016072B6206848
:101D90000069616A0870606A401C6062208D401EA4
:101DA0002085608D401E60853C4846F2A811006881
:101DB000B0FBF1F0C0EBC00000EB80000090401ED3
:101DC000009007D020684069C04340070DD50098B7
:101DD000F5E727E044F8305F6773A573206940F0AA
:101DE0002000206162B625731CE02068016841F480
:101DF0000071016020680069616A0870606A401CB7
:101E00006062218D491E2185618D491E618562B602
:101E100021680969017025E032464946204601F0F3
:101E2000BFFC10B10120BDE8F88F20680069616A2D
:101E30000870606A401C6062208D401E81B221855E
:101E4000608D401E608520684269D243520712D4DB
:101E5000032903D1016821F48061016020680069D1
:101E6000616A0870606A401C6062208D401E208597
:101E7000608D401E6085208D00287FF465AF84F85A
:101E80003D7084F83E5084F83C50CCE70220CAE70D
:101E9000020010000000FFFF0400010050000020BD
:101EA0002DE9F84F1F4690468A460446DDF82890F3
:101EB000FFF704FE054694F83D0020287FD1192342
:101EC000012240492046009501F0C4FB002876D14C
:101ED00094F83C00012872D0012084F83C0020686E
:101EE0000168C90703D1016841F001010160206860
:101EF000016821F400610160212084F83D00102078
:101F000084F83E0000262664C4F824806785608D2E
:101F100020852D48E0622B464A465146204601F076
:101F20001FFB90B9206841698069009036E02A461D
:101F30004946204601F06CFC50B1206C042804D1C5
:101F40002068016841F4007101600120BDE8F88F4C
:101F5000606A216800780861606A401C6062618D77
:101F6000491E6185218D491E89B2218522685369E8
:101F7000DB435B070BD451B100781061606A401CF1
:101F80006062608D401E6085208D401E20852A463F
:101F90004946204601F032FB0028CED1208D002892
:101FA000C5D154F83D0B016841F400710160202057
:101FB00004F81E09E67766770020C7E7FFE70220EE
:101FC000C4E70000020010000000FFFF30B585B03C
:101FD000002100910191029103911E4D03681E4C56
:101FE000122103221D48AB4216D1A36943F0080316
:101FF000A361A369039203F008030493C023CDE90E
:1020000000316946FFF758FCE06940F40010E061D8
:10201000E06900F4001019E0114DAB4217D1A3693B
:1020200043F00803A361A369039203F00803049338
:102030004FF44063CDE900316946FFF73DFCE069AC
:1020400040F48000E061E06900F48000049005B095
:1020500030BD00000054004000100240000C014060
:10206000005800400248816802781144816070473E
:1020700044000020074810B5016841F010010160DC
:10208000032000F095F80F2000F006F800F03EF86D
:10209000002010BD0020024000B5014687B000229C
:1020A000192000F065F8192000F054F813488169F0
:1020B00041F400618161806905A900F40060069027
:1020C000684600F0F5F900F023FA0D490D4AB0FB1F
:1020D000F1F10D48491E0260416040F2E7320021F3
:1020E000C0E90321816000F0A8FD10B1012007B014
:1020F00000BD054800F0D0FDF9E7000000100240E7
:1021000040420F00002C01408C0D00200F4808B504
:10211000816941F001018161816901F00101009152
:10212000C16941F08051C161C069002200F0805056
:1021300000900F21901E00F01BF80548416821F027
:10214000E06141F00071416008BD000000100240F4
:1021500000000140002809DB00F01F02012191402E
:102160004009800000F1E020C0F800117047000035
:10217000F0B40E4B1B680C46C3F30223C3F10705F2
:10218000042D00D90425191D072901D2002300E0E0
:10219000DB1E012606FA05F1491E214099409E40AA
:1021A000761E16403143F0BC02F0BEBF0CED00E0DD
:1021B000064900F0070208684FF6FF03184040EA9E
:1021C0000220034A10430860704700000CED00E055
:1021D0000000FA05014901200862704700000E4224
:1021E00010B501460020284C04292FD00BDC012912
:1021F00030D0022929D100F08BF96168C1F3813117
:10220000491C49001FE0082920D010291DD1616810
:102210002268D20119D51D48C1F38342C903805CED
:102220000AD56168194AC1F34041921E515C184AAF
:10223000B2FBF1F1484301E01649484361684902A5
:1022400003D440000321B0FBF1F010BDBDE8104005
:1022500000F06EB9226AC2F30121012903D192076D
:1022600001D5C80310BD022905D1626A920702D5C3
:1022700049F6404010BD0329FCD121688903F9D5F6
:102280004FF2244010BD000000100240E07A000828
:1022900000127A0000093D002DE9F8430546007858
:1022A000354CC00754D0E0690026C00008D4E0696E
:1022B00040F08050E061E069012600F0805000901D
:1022C0002E480168C90512D40168804641F4807126
:1022D0000160FFF7F3FB074605E000BFFFF7EEFBE9
:1022E000C01B642823D8D8F80000C005F6D5206AA2
:1022F00010F4407021D0A98801F4407181421CD0B3
:10230000206A1F49012220F440700A6000220A60FE
:102310002062C00711D0FFF7D1FB074641F2883891
:1023200008E000BFFFF7CAFBC11B414502D90320EB
:10233000BDE8F883206A8007F4D5206A696820F434
:102340004070084320621EB1E06920F08050E061D7
:102350002878800705D56068A96820F440400843C4
:1023600060602878C00605D56068696920F480003F
:10237000084360600020DBE700100240007000406E
:10238000400442422DE9F0470F46050061D0434E1C
:10239000306800F00700B84209D2306820F007002A
:1023A00038433060306800F00700B84251D12868E7
:1023B0003B4C810712D5400703D5606840F4E060CC
:1023C00060602878000703D5606840F46050606062
:1023D0006068A96820F0F000084360602878C007B2
:1023E00028D06868012810D02168022810D08907F9
:1023F00000292EDA616821F0030101436160FFF7D3
:102400005DFB804641F288390DE021688903EFE7E2
:102410008901EDE7FFF752FBA0EB0801494502D91E
:102420000320BDE8F0876068696800F00C00B0EB3D
:10243000810FEFD1306800F00700B8420BD9306847
:1024400020F0070038433060306800F00700B842E1
:1024500001D00120E5E72878400705D56068E968E4
:1024600020F4E060084360602878000706D56068C3
:10247000296920F4605040EAC100606000F058F81B
:102480006168084AC1F30311515CC84006490860FD
:1024900006480068FFF700FE0020C2E70020024067
:1024A00000100240F07A0008500000204800002090
:1024B0000F2202600C4A536803F003034360536821
:1024C00003F0F0038360536803F4E063C360526871
:1024D0004FF4E06303EAD20202610448006800F0AE
:1024E0000700086070470000001002400020024012
:1024F0000448054900684968044AC1F30221515C57
:10250000C84070475000002000100240007B0008C7
:102510000448054900684968044AC1F3C221515C76
:10252000C84070475000002000100240007B0008A7
:102530000E4A51680E4801F00C03042B11D0082BF1
:102540000FD10C48C1F38343C903C05C0AD551685D
:10255000084AC1F34041921E515C054A5043B0FB0A
:10256000F1F07047044948437047000000100240F2
:1025700000127A00CE7A000800093D002DE9F84FDC
:10258000040070D02078C04DC00749D06868C0F3FF
:102590008100012807D06868C0F38100022809D1B2
:1025A0006868C00306D52868800339D560680028AC
:1025B000E7D035E06068B0F5803F0BD010B1B0F5E2
:1025C000A02F11D0286820F480302860286820F4DB
:1025D000802002E0286840F480302860606890B174
:1025E000FFF76CFA06460AE0286840F4802028606D
:1025F000F0E700BFFFF762FA801B642873D82868F1
:102600008003F7D50CE0FFF759FA064605E000BF56
:10261000FFF754FA801B6428F0D828688003F7D4A9
:1026200020789A4E80074FF001094FF0000839D505
:10263000686810F00C0F07D06868C0F381000228AA
:1026400009D16868C00306D42868800714D52069BA
:10265000012808D110E02069B0B1C6F80090FFF75A
:102660002DFA074605E00AE1FFF728FAC01B022809
:10267000C4D828688007F7D52868616920F0F80079
:1026800040EAC10028600DE0C6F80080FFF716FAA6
:10269000074604E0FFF712FAC01B022823D8286877
:1026A0008007F7D4207800072CD57948A169D9B1E3
:1026B000C0F80090FFF702FA074604E0FFF7FEF9C2
:1026C000C01B02280FD8686A8007F7D571484FF4FD
:1026D000FA510068B0FBF1F0009000BF0098411E75
:1026E0000091FAD20EE080E0C0F80080FFF7E6F932
:1026F000074604E0FFF7E2F9C01B022875D8686AB4
:102700008007F7D42078400760D5E8690027C0002B
:1027100008D4E86940F08050E861E869012700F0DA
:10272000805000905C480168C90513D40168834655
:1027300041F480710160FFF7C1F9824606E000BFF5
:10274000FFF7BCF9A0EB0A0064284ED8DBF80000C4
:10275000C005F5D5E06801280AD008B1052813D0D6
:10276000286A20F001002862286A20F0040002E0B4
:10277000286A40F001002862E06841F2883B98B185
:10278000FFF79CF982460BE0286A40F004002862BB
:10279000EEE700BFFFF792F9A0EB0A0159455AD8BE
:1027A000286A8007F6D50CE0FFF788F9824605E035
:1027B000FFF784F9A0EB0A0159454CD8286A800735
:1027C000F6D41FB1E86920F08050E861E06988B371
:1027D0006968C1F38101022944D00228C6F86080EB
:1027E00004D0FFF76BF9044638E034E0FFF766F9F0
:1027F000074604E0FFF762F9C01B02282BD82868BF
:102800008001F7D4206AB0F5803F05D16868A168DF
:1028100020F4003008436860D4E90801084369687F
:1028200021F4741108436860C6F86090FFF746F918
:10283000044606E025E000BFFFF740F9001B022830
:1028400009D828688001F7D51BE000BFFFF736F9EB
:10285000001B022802D90320BDE8F88F28688001F8
:10286000F4D40EE00128F7D06868226A00F48031C1
:10287000914204D1616A00F47010884201D00120B5
:10288000EAE70020E8E700000010024000004242B2
:10289000800442425000002000700040F8B505005E
:1028A0004FF0000016460C46009006D02CB10022D6
:1028B0006946284600F019F808B10120F8BD287BC8
:1028C0002070E87BE070697B6170A97BA17056B1D4
:1028D00002F087F8E070607802F083F86070A0780A
:1028E00002F07FF8A0700020F8BD2DE9F047914676
:1028F0000C465FEA00084AD084B3D8F8000040686C
:10290000400744D4404602F00BF94FF4616205469B
:10291000B0FBF2F1B0FBF2F302FB13503C23B0FB2F
:10292000F3F0B5FBF2F6607002FB1650B0FBF3F269
:1029300003FB1200A070182931D31820B1FBF0F767
:10294000B1FBF0F200FB12102070404602F0E1F8FB
:10295000411C04D0A84202D9461B02E017E04FF008
:10296000FF36A7EB071000EB4000C0EB001005EBB3
:10297000C0152946404602F022F940B9701C01D02A
:10298000711900E03146404602F005F910B101200E
:10299000BDE8F0873946404602F02EF800E021708D
:1029A000B9F1000F0BD0207802F01BF8207060788E
:1029B00002F017F86070A07802F013F8A070002001
:1029C000E6E7000070B5040003D0607C002610B17B
:1029D00005E0012070BD2674204600F03DF802207D
:1029E0006074204600F00AF9042550BB204602F02E
:1029F0005AF830BB2068416821F007014160A068A7
:102A000020B11448016821F0010101601148001F44
:102A10000168A26821F46071114301606068411C83
:102A200004D10120FFF7DCFB58B1401E2268C0F33F
:102A300003419160216880B2C860204602F04EF8E0
:102A400008B16574C5E7E67301206073A073607414
:102A5000002070BD306C004008B50068084988420D
:102A60000DD1FFF7B7FB0748C16941F00061C161B3
:102A7000C069054900F0006000900120086008BDB1
:102A800000280040001002403C0442422DE9F04181
:102A90000D4604003BD0C5B3207C01283AD04FF04E
:102AA000010884F8108002206074E87872B301F0A5
:102AB0008FFFE073687801F08BFF6073A87801F0F6
:102AC00087FFA073C2B2617BE07B02F039F820730C
:102AD0002870204602F024F84FF46161B0FBF1F158
:102AE000002518292DD91822B1FBF2F1A1EB011113
:102AF00001EB4101C1EB011100EBC116314620464B
:102B000002F05DF80427C8B90BE000E004E0012002
:102B1000BDE8F0810220FBE7E07368786073A87875
:102B2000CFE7204601F0F5FF411C0AD0B04208D2A1
:102B300006490144204602F02EF810B1677425744E
:102B4000E5E784F8118025740020E1E78051010059
:102B50002DE9F0410D46040024D01DB3207C01284E
:102B600023D04FF0010884F8108002206074287888
:102B7000EAB101F02DFF4FF4616100FB01F66878C6
:102B800001F026FFC0EB001006EB8006A87801F0EC
:102B90001FFF35182946204602F011F800260427A9
:102BA00010BB0FE00120BDE8F0810220FBE74FF4ED
:102BB000616148436978C1EB011100EB8100A9789C
:102BC0004518E7E72068416821F00501416020468B
:102BD00001F09FFF411C0AD0A84208D206490144D7
:102BE000204601F0D8FF10B167742674DAE784F844
:102BF000118026740020D6E78051010070B50400D2
:102C00000AD02068416821F008014160FEF756FFB4
:102C100005464FF47A7608E0012070BDFEF74EFFBE
:102C2000401BB04201D9032070BD206840680007F6
:102C3000F4D5002070BD7047704710B5040003D074
:102C400094F83D0010B107E0012010BD002084F889
:102C50003C00204600F01EF8022084F83D00211DB3
:102C6000206802F01FF8012084F8460084F83E0036
:102C700084F83F0084F8400084F8410084F8420062
:102C800084F8430084F8440084F8450084F83D004B
:102C9000002010BD7047000090F83D10012901D0C0
:102CA00001207047022180F83D100168CA6842F097
:102CB0000102CA6000680E4988420ED00D49884260
:102CC0000BD0B0F1804F08D00B49884205D00B499A
:102CD000884202D00A49884204D1816801F0070184
:102CE000062903D0016841F001010160002070470E
:102CF000002C014000340140000400400008004066
:102D0000000C0040704770B50446006801694FF040
:102D10000005C943890715D4C168C943890711D47F
:102D2000E91E016101202077206880698007204624
:102D300002D0FFF7E7FF04E000F098F8204600F02B
:102D400096F8257720680169C943490717D4C168F7
:102D5000C943490713D46FF00401016102202077B1
:102D60002068806910F4407F204602D0FFF7CAFF38
:102D700004E000F07BF8204600F079F82577206821
:102D80000169C943090716D4C168C943090712D4A8
:102D90006FF008010161042020772068C069800776
:102DA000204602D0FFF7AEFF04E000F05FF82046B7
:102DB00000F05DF8257720680169C943C90617D47A
:102DC000C168C943C90613D46FF01001016108201E
:102DD00020772068C06910F4407F204602D0FFF7BA
:102DE00091FF04E000F042F8204600F040F825771B
:102DF00020680169C943C90708D1C168C943C90727
:102E000004D1891E0161204600F032F82068016972
:102E1000C943090609D4C168C943090605D46FF03E
:102E2000800101612046FFF706FF20680169C94360
:102E3000490609D4C168C943490605D46FF0400169
:102E40000161204600F01EF820680169C943890627
:102E50000BD4C168C943890607D46FF02001016112
:102E60002046BDE87040FFF7E7BE70BD7047704771
:102E700000680349884201D1FFF7F4B870470000A9
:102E8000002C01407047704770470000F8B501689A
:102E900004460868CA684B6910F00F0F4FF0000530
:102EA00059D003F0010602F49077374365D0C1078B
:102EB00005D0D10503D5616C41F001016164410782
:102EC00005D5D90703D0616C41F002016164810727
:102ED00005D5D90703D0616C41F004016164010795
:102EE00007D502F02001314303D0616C41F00801A5
:102EF0006164616C00293AD0800604D5900602D541
:102F0000204601F082FF20684069616CC0F38010A8
:102F1000090700D460B3204601F050FF20684069E3
:102F2000400621D52068143050E8001F21F04001F0
:102F300040E80012002AF5D1E06BA8B16D49416369
:102F4000E06BFEF7FBFB002811D0E06B416B01B09A
:102F5000BDE8F040084783060FD593060DD52046FF
:102F6000BDE8F84001F051BF2046FFF78DFFF8BDE6
:102F70002046FFF789FF6564F8BD266B2023012EEC
:102F80007CD1C6067AD5D60678D508684868009000
:102F900048694FF00206400640D5E16B086840687A
:102FA0000004000CE8D0A28D8242E5D9E085886952
:102FB00020282DD020680C3050E8001F21F48071AB
:102FC00040E80012002AF5D12068143050E8001FB4
:102FD00021F0010140E80012002AF5D120681430E8
:102FE00050E8001F21F0400140E80012002AF5D10E
:102FF00084F84230256320680C3050E8001F21F02F
:10300000100140E80012002AF5D1E06BFEF773FBD7
:103010006663A08DE18D401A81B22AE0A08DE18D1A
:10302000401A81B2E08D0028A6D00029A4D02268E1
:103030000C3252E8000F20F4907042E80007002F95
:10304000F5D12068143050E8002F22F0010240E84A
:103050000027002FF5D184F84230256320680C301A
:1030600050E8002F22F0100240E80023002BF5D199
:1030700066632046FFF707FFF8BDFFE705062BD57F
:10308000150629D594F841002128F5D1A068B0F59E
:10309000805F01D12069B0B1206A411C21622168A2
:1030A00000784860E08C401E0004000CE084E3D10E
:1030B0002068C16821F08001C1602068C16841F0CA
:1030C0004001C160D8E7206A0088C0F3080048606A
:1030D000206A801C2062E5E74006CDD55006CBD59E
:1030E000CA68204622F04002CA6084F8413000F0ED
:1030F0003FF9C1E7AD4D000870B5040004D094F865
:103100004100002510B106E0012070BD84F8405058
:10311000204600F023F8242084F841002068C1688C
:1031200021F40051C160204601F0D0FE2068016901
:1031300021F4904101612068416921F02A01416137
:103140002068C16841F40051C1606564202084F8A2
:10315000410084F842006563002070BD70B586B000
:10316000002400940194029403942B4E03682B498D
:10317000022003222A4DB34221D18B6943F48043BC
:103180008B618B6903F4804304938B6943F00403E0
:103190008B618969039201F0040104910102CDE978
:1031A000001069462846FEF787FB2815CDE9000484
:1031B000694628460294FEF77FFB06B070BD194EA3
:1031C000B342FAD1CB6943F40033CB61CB6903F44A
:1031D000003304938B6943F004038B618969039284
:1031E00001F0040104910421CDE90010694628464C
:1031F000FEF762FB0820CDE90004694628460294E8
:10320000FEF75AFB002205212620FEF7B1FF2620FB
:10321000FEF7A0FFD1E70000003801400010024097
:1032200000080140004400402DE9F843044690F8AE
:103230004200994616460D46202802D00220BDE8DD
:10324000F883ADB1A6B100206064222184F8421059
:103250002063FEF733FCA6858046E685A0684FF420
:103260008057B84201D1206920B12E46002526E0C2
:103270000120E4E7002622E04346002220212046E8
:10328000CDF8009001F07EFE08B10320D7E726B10B
:10329000A068B8421BD038B108E020684068C0F38D
:1032A000080025F8020B07E0206980B1206840681B
:1032B00000F07F0006F8010BE08D401EE085E08DF8
:1032C0000028D9D1202084F842000020B7E72068E8
:1032D0004068EFE770472DE9F843044690F8410055
:1032E0001F4616460D46202802D00220BDE8F8836E
:1032F0007DB176B100206064212084F84100FEF7A2
:10330000DDFBA6848046E684A068B0F5805F02D02D
:1033100003E00120EAE7206910B12E4600250EE007
:1033200000260CE08021204601F02CFEA0B9AEB1B1
:1033300016F8010B21684860E08C401EE084E08CA8
:1033400043464FF0000200970028EBD14FF04001B8
:10335000204601F017FE30B10320C7E735F8020B15
:10336000C0F30800E6E7202084F841000020BDE714
:1033700070470000024A0121117000F045B80000BA
:103380000000002010B501684A68D243920507D4B6
:103390008A68D243D20703D1921E8A60FFF7EAFF00
:1033A00010BD10B504000FD000F010F8E0682168DF
:1033B00040F080000860616820690843A168084304
:1033C00021684860002010BD012010BD08B50068CC
:1033D0000B49884212D10B48C16941F40061C161B7
:1033E000C069002200F40060009005211046FEF73D
:1033F000BFFEBDE808400020FEF7ACBE08BD0000DF
:10340000002C004000100240C168006801600020EC
:103410007047FEE708B5012200920B46024647219D
:103420000148FEF715FC08BD2C0C002008B5012250
:1034300000920B46024646210148FEF731FD08BDC9
:103440002C0C002001684A69D24352050FD46FF456
:1034500080624A61002140F8301F2022427381734C
:10346000026942F0040202610173012070470020EA
:10347000704700002DE9F84F0446C06A1E46934687
:103480000D4621680A6842F480620A60082807D065
:10349000012805D010F5803F02D0206B112804D1FF
:1034A0002068016841F4807101604FF001195B46AA
:1034B000002249462046009600F0CCF84FF40078F0
:1034C00040B120680068C00501D5C4F840800320E1
:1034D000BDE8F88F2069DFF884A0B0F5804F0FD0E9
:1034E0000620216800EAD51747F0F000086133464E
:1034F0005A460AF10601204600F0F4F858BB03E0F2
:10350000E8B240F001001CE02168E8B208613346EF
:103510005A465146204600F0E5F8E0B92068416976
:1035200081690091016841F4807101605B4600226D
:1035300049462046009600F08DF80028C1D147F09A
:10354000F1002168086133465A465146204600F092
:10355000C9F80028BCD00120BAE700000200010031
:10356000F8B50446C06A1E460D461746082807D01F
:10357000012805D010F5803F02D0206B122804D11D
:103580002068016841F480710160134600224FF009
:1035900001112046009600F05DF840B120680068F7
:1035A000C00502D54FF4007020640320F8BD2069E7
:1035B000B0F5804F0ED00620216800EAD51040F00B
:1035C000F000086133463A460B49204600F08AF87D
:1035D00078B902E005F0FE0000E0E8B22168086179
:1035E000054933463A46891F204600F07BF80028FB
:1035F000DCD00120F8BD00000800010070B51646BF
:103600000D4604461EE02046FFF71CFF08B10120CE
:1036100070BD681C16D0FEF751FA801BA84200D876
:1036200085B920684069C04340070BD5002044F8A5
:10363000300F20216173A073216941F020012161C5
:103640002073E4E720684069C0434007DBD40020D2
:1036500070BD00002DE9F047984617460D46044618
:10366000C1F30746DDF820902AE000BFB8F1FF3F24
:1036700026D0FEF723FAA0EB0901414502D8B8F1A4
:10368000000F1DD12068012E16D0806925EA0000A8
:103690000004000C12D00020B84211D1002044F8E0
:1036A000300F20216173A073216941F02001216155
:1036B00020730120BDE8F0874069E7E70120EBE7D0
:1036C0002068012E0AD0806925EA00000004000C61
:1036D00006D00020B842C9D00020EBE74069F3E7EC
:1036E0000120F7E72DE9F047984616460D460446B7
:1036F0004FF000094FF0200AC1F3074723E020688C
:103700004069C043400515D42068016841F4007148
:10371000016021686FF480604861C4F8309084F8DB
:103720003DA084F83E90216C41F00401216484F8AE
:103730003C9021E0701C06D0FEF7C0F9A0EB080019
:10374000B04203D816B1012F1FD021E02068012F0D
:1037500015D0806925EA00000004000C18D000BFD5
:1037600044F8309F84F80DA084F80E90216941F050
:103770002001216184F80C900120BDE8F0874069A8
:1037800025EA00000004000CEAD12068406901E04D
:103790002068806925EA00000004000CAFD1ECE746
:1037A0002DE9F041002590460E460446202728E0EA
:1037B0004069C043C0060CD454F8301B6FF01000B1
:1037C000486144F810596777A577206A2062257709
:1037D00014E0FEF773F9A0EB0800B04200D886B9F8
:1037E00020684069C04340060BD544F8305F6773DA
:1037F000A573206940F02000206125730120BDE8F9
:10380000F08120684169C9434906D1D40020F6E718
:1038100070B516460D4604461EE02046FFF712FE20
:1038200008B1012070BD681C16D0FEF747F9801B57
:10383000A84200D885B920684069C04300060BD56E
:10384000002044F8300F20216173A073216941F0FA
:10385000200121612073E4E720684069C04300062D
:10386000DBD4002070BD000008B50C4D4FF0FF36D2
:1038700000244FF47A7732466946A86A03F05EFC6A
:103880009DF8000008B106A000E008A001F016FCB9
:103890008DF80040384602F0D2FAECE70000002034
:1038A0000D0A4C4544204F4E0D0A00000D0A4C45B0
:1038B00044204F46460D0A0008B501208DF800004F
:1038C00001466846FFF7B2FD18B103A001F0F6FB10
:1038D00008BD06A0FAE70000496E69745F424831EE
:1038E000373530094572726F720D0A00496E69747E
:1038F0005F424831373530094F4B0D0A0000000058
:103900001CB500251C4FDFF874801D4C6E1E4FF453
:103910007A790195324601A9606A03F00FFC01989B
:10392000B8420EDA00220C214046FEF7C1F8012011
:1039300000238DF800001A461946206B03F0F0FAB8
:103940000AE001220C214046FEF7B2F88DF8005043
:103950000021206B03F08EFC012805D101233246A3
:103960006946A06A03F0DCFA9DF8000060704846E2
:1039700002F065FACEE700000000A041001001400F
:103980000000002086B00020ADF80000019002F099
:1039900017FA02F009F918A001F090FB1B4C04ABD8
:1039A00002AA01A9684600F05DF801281FD1BDF800
:1039B000001017A001F082FBBDF800006188401ADA
:1039C000322801DB17A005E01F38132801D219A007
:1039D00000E01CA001F072FBBDF8000060800198BF
:1039E000FCF7E3FE02460B461AA001F067FB01203C
:1039F00002F025FAD3E700004D61783330313032E0
:103A000020496E6974094F4B0D0A00000000002028
:103A10000D0AD0C4C2CAA3BA2564B4CE2F6D696E94
:103A20000D0A00000D0AD1B9C1A6BAC3B4F30D0A3C
:103A3000000000000D0AD1B9C1A6D5FDB3A30D0A3F
:103A4000000000000D0ACDEAC8ABC3BBD1B9C1A6C6
:103A50000D0A0000D1AAD1F5A3BA252E326625257C
:103A60000D0A00002DE9F0470746204889461D460B
:103A700001789046A9B300260670104602F06CF853
:103A80002946404602F008F8291D08F1040002F01A
:103A9000E5FE1748D8F80010164C814222DDD8F810
:103AA000041081421EDD144A2088296842F8201043
:103AB000124A696842F82010401C80B22080962883
:103AC00011D396210C4802F08BF8388096220B49CE
:103AD000094802F0D3F8C9F8000026800120BDE8AB
:103AE000F08700E026800020F9E700003400002085
:103AF0000050C347360000202C030020D4000020D3
:103B000010B50446007B012802D1206801F096FF21
:103B1000002020606060A060207310BD5FF0010293
:103B200000F07F030B70C00909D043F08003521CE2
:103B300001F8013B042AF3DD4FF0FF3070471046D7
:103B400070472DE9F0410446002500680F462E46D7
:103B500010B10220207315E001202073084601F007
:103B6000C5FF2060002808D0C4E9016702E0206892
:103B700046556D1CA068A842F9D8BDE8F0812068C0
:103B800046556D1CA068A842F9D866608842F4D2F8
:103B90002660F2E72DE9FF47174688468146FCF785
:103BA0008BFB84B24046FCF787FB0026A01D01F08A
:103BB0009DFF050025D0A11DFCF74BFB12A022465E
:103BC000016829608088A88049462846FCF77BFB6D
:103BD0004046FCF771FB034600200DF1040A012169
:103BE00000908AE88300424629460A2000F042F904
:103BF00000B10126284601F021FF304604B0BDE89F
:103C0000F0870120FAE7000024637273702F000030
:103C10002DE9FF5F9A46934600251046DDF8449053
:103C20000E9F139CFCF748FB06B2BBF1000F1FD0A0
:103C300006F111001FFA80F807B10225109868B14B
:103C400045F00405FCF738FBC7B24846FCF734FBE7
:103C5000C11901EB0800001D1FFA80F80F9870B120
:103C6000012807D0022808D0022004B0BDE8F09F48
:103C70000120FAE745F00C0501E045F01405129823
:103C800008B145F02405009860B3019850B345F0A1
:103C9000C0070098FCF710FB05460198FCF70CFBE9
:103CA000291801EB0800001D85B229462046FFF7C0
:103CB00048FF2068C0B12946FCF7CBFAD4E90030B0
:103CC000411C102261601A54D4E900010144681FAC
:103CD000FFF724FF00B2002808DA2046FFF710FFA4
:103CE0000520C2E70320C0E70420BEE7616823681F
:103CF0000844411C616000221A54D4E90030421C7F
:103D0000042162601954D4E90050421C4D236260C2
:103D10002B54D4E90050421C626051232B54D4E947
:103D20000030451C542265601A54D4E90050431CED
:103D300063602A54D4E90030421C62601954D4E90B
:103D40000020411C61601754D4E90030411C4FEA47
:103D50001A2261601A54D4E90030421C626003F8F0
:103D600000A0D4E90030411C320A61601A54D4E941
:103D70000020411C61601654D4E900010844324619
:103D80005946FCF7A0FA606830446060780736D581
:103D9000B9F1000F01D10FF2D8091098FCF78CFA95
:103DA00085B2D4E90030411C2A0A61601A54D4E972
:103DB0000020411C61601554D4E9000108442A46E2
:103DC0001099FCF780FA6068284460604846FCF768
:103DD00073FA85B2D4E90030411C2A0A61601A5492
:103DE000D4E90020411C61601554D4E90001084465
:103DF0002A464946FCF767FA60682844606038063E
:103E000018D50098FCF758FA85B2D4E90030411C67
:103E10002A0A61601A54D4E90020411C61601554DB
:103E2000D4E9000108442A460099FCF74CFA60687E
:103E300028446060780618D50198FCF73DFA85B2F1
:103E4000D4E90030411C2A0A61601A54D4E90020E8
:103E5000411C61601554D4E9000108442A460199C7
:103E6000FCF731FA6068284460600020FDE600003D
:103E7000000000002DE9FF5F8B46DDE90EA24FF048
:103E80000005119C99465FEA0008294608D10120E7
:103E900004B0BDE8F09F232817D02B2815D06D1C47
:103EA0001BF805000028F6D141F030070AB147F0B1
:103EB000010705EB0906B61C5FEA0A000DD00128D0
:103EC00005D0022806D00320E2E70220E0E747F011
:103ED000020701E047F00407B61CF11C2046FFF77B
:103EE00030FE2068A0B1F11CFCF7B3F9D4E9002042
:103EF000411C61601754D4E9000101443046FFF7CA
:103F00000DFE002806DA2046FFF7FAFD0520BFE780
:103F10000420BDE7616823680844411C2A0A6160E7
:103F20001A54D4E90020411C61601554D4E9000101
:103F300008442A465946FCF7C6F96068BAF1000FF2
:103F4000284460600BD02368411C4FEA182261604E
:103F50001A54D4E90030421C626003F800800298D1
:103F600050B1D4E9000108444A460299FCF7ABF984
:103F7000616801EB09006060002089E77FB50D46AC
:103F80000120089C0021CDE90204CDE900011E4674
:103F90000A46EB1C0CA10A20FFF76CFF10B10120B0
:103FA00004B070BDD4E90020411C61601654D4E90E
:103FB0000030411C2A0A61601A54D4E90020411CD7
:103FC000616015540020EBE724647000F0B50446EE
:103FD000002001235D05106012E0275C166807F0E1
:103FE0007F0707FB03661660265C360601D4401C7B
:103FF000F0BDDB01AB4202D36FF00100F0BD401C0D
:104000008842EADB4FF0FF30F0BD2DE9F8430E4661
:1040100007461D4690462F21C01CFCF743F900219E
:10402000009150B3441C6A460421781CFFF7CEFF70
:10403000252001F05BFD306008B32521FCF709F96C
:10404000242221463068FCF7EBF8009824342C3801
:1040500080B22880401C01F049FDC8F8000080B102
:104060002988491CFCF7F5F82A882146D8F8000071
:10407000FCF7D6F80020BDE8F8830120FBE702201A
:10408000F9E7306801F0DAFC0320F4E7417802290F
:1040900001D001207047817819B1012901D0FF209A
:1040A0007047C07870474178022904D1817811B9EE
:1040B000C0780A2801D00120704700207047000016
:1040C00038B504460078FF210009421E0E2A01D3AC
:1040D000084638BD0328FCD1002000906A46042120
:1040E000601CFFF773FF20440099401C022907D38E
:1040F0002278D20704D1028852BA921C8A4201D98E
:10410000FF2038BD04A1801CFCF7BAF808B10F20CD
:1041100038BD032038BD00002463726571000000C3
:1041200030B5AFB000202B902C9001212BA801F0CE
:10413000A5FE314C314D00222063D5E90001CDE9C7
:104140002D0101212DA801F0E3FE44F62061E0627B
:1041500001F0FEFE08350DF18C0C95E80F008CE89F
:104160000F00002123A8083D01F075FE183560629C
:1041700095E80F0027AD85E80F00002127A801F082
:104180006AFE1E49A0621C2228316846FCF748F8E6
:104190000021684601F091FE184920611C2244313B
:1041A00007A8FCF73DF8002107A801F086FE134997
:1041B00060611C2260310EA8FCF732F800210EA8C5
:1041C00001F07BFE0D49A0611C227C3115A8FCF793
:1041D00027F8002115A801F070FE0849E0611C22B3
:1041E00098311CA8FCF71CF800211CA801F065FE02
:1041F00020622FB030BD000000000020A47900082C
:1042000030B585B0002000900190029003902248C4
:10421000816941F010018161816901F0100104910F
:10422000816941F020018161816901F020010491DF
:10423000816941F004018161816901F00401049107
:10424000816941F0080181618069144D00F0080026
:10425000049001220C212846FDF72AFC0124104875
:104260006946CDE9004028460294FDF725FB0C2065
:10427000CDE900040320CDE9024069462846FDF758
:104280001BFB002205210620FDF772FF0620FDF72B
:1042900061FF05B030BD0000001002400010014079
:1042A000000021100D4810B50B4901600C49416018
:1042B00000214FF480428160C0E9031241618161B5
:1042C000C1610162FDF700FC002803D0BDE8104089
:1042D000FDF70FBA10BD0000005400402C0C002068
:1042E000A08601000D4810B50B4901600C494160E2
:1042F00000214FF480428160C0E903124161816175
:10430000C1610162FDF7E0FB002803D0BDE8104069
:10431000FDF7EFB910BD000000580040800C0020F0
:10432000A08601001CB50024184801941649009489
:104330000160611E41604FF480718160FEF742FBB5
:1043400008B1FDF7D6F98DF804408DF805408DF8D9
:104350000640012201A90D48FEF7FAFB08B1FDF75E
:10436000C8F901208DF800008DF801008DF80200D9
:1043700002468DF8034069460448FEF787FB002893
:1043800001D0FDF7B6F91CBD00280040D40C002078
:104390000C4810B50A4901604FF4E1314160002139
:1043A00081600C22C160C0E904128161C161FEF725
:1043B000A3FE002803D0BDE81040FDF79AB910BD58
:1043C00000380140E80C00200C4810B50A49016093
:1043D0004FF4E1314160002181600C22C160C0E9ED
:1043E00004128161C161FEF787FE002803D0BDE899
:1043F0001040FDF77EB910BD00440040300D002094
:104400000C4810B50A4901604FF4C07141605F214A
:1044100081607F21C1604FF400710161FEF7C1FF2F
:10442000002803D0BDE81040FDF763B910BD0000BF
:10443000002C0040780D0020FEE7FEE70024FDF789
:104440000FF800BF00F024F80028FBD10AA000F00C
:1044500035FE641CA4B2642C04D300F06BFA002473
:10446000FCF7D0FF0320FCF7DBFF08B100F0C6F932
:10447000642001F0E4FCECE7C1ACBDD34F4E454EE7
:104480004554B3C9B9A6095B4F4B5D0D0A00000046
:1044900030B58BB000242FA00090069407940894A8
:1044A00001252FA32FA231A109943D4800F0CEFD94
:1044B00006A8CDE904400294039400942B0225A29F
:1044C00027A128A00194FFF7A3FB50B135A13448E0
:1044D00000F0BCFD37A1324800F0B8FD0BB0284613
:1044E00030BD079881B20698FDF7CCF83AA12C4868
:1044F00000F0ACFDFA20FCF793FF040024D03DA1AE
:10450000274800F0A3FD2046FFF7DAFD02281BD163
:104510002046FFF7BBFD06281AD2DFE800F00309AA
:104520000B0D0F1137A11E4800F090FD00250BE088
:1045300039A106E040A104E048A102E04FA100E05B
:1045400058A1174800F082FD06A8FFF7D9FAC5E781
:104550005FA1F6E7393730373531323435000000A6
:104560003132330035333531343600000D0A4F6EA9
:10457000654E65745F4465764C696E6B0D0A5052EA
:104580004F49443A2025732C09415549463A202584
:10459000732C0944455649443A25730D0A0000001E
:1045A000E80C00200D0AC6BDCCA8CEDECFECD3A609
:1045B0000D0A00000D0A5741524E3A094D5154540C
:1045C0005F5061636B6574436F6E6E656374204604
:1045D00061696C65640D0A000D0AC1ACBDD3C9CF19
:1045E000B4ABCDEAB3C90D0AB5C8B4FDCFECD3A6C0
:1045F0000D0A00000D0AC6BDCCA8D2D1CFECD3A6BF
:104600000D0A00000D0A546970733A09C1ACBDD39C
:10461000B3C9B9A60D0A00000D0A5741524E3A0916
:10462000C1ACBDD3CAA7B0DCA3BAD0ADD2E9B4ED5A
:10463000CEF30D0A000000000D0A5741524E3A0910
:10464000C1ACBDD3CAA7B0DCA3BAB7C7B7A8B5C4BD
:10465000636C69656E7469640D0A00000D0A574148
:10466000524E3A09C1ACBDD3CAA7B0DCA3BAB7FE5B
:10467000CEF1C6F7CAA7B0DC0D0A00000D0A5741FB
:10468000524E3A09C1ACBDD3CAA7B0DCA3BAD3C35A
:10469000BBA7C3FBBBF2C3DCC2EBB4EDCEF30D0A88
:1046A000000000000D0A5741524E3A09C1ACBDD37B
:1046B000CAA7B0DCA3BAB7C7B7A8C1B4BDD328B1E5
:1046C000C8C8E7746F6B656EB7C7B7A8290D0A0035
:1046D0000D0A4552523A09C1ACBDD3CAA7B0DCA3FA
:1046E000BACEB4D6AAB4EDCEF30D0A0070B5054625
:1046F00010212848FBF7ADFD274C2078012804D075
:1047000000282CD0022823D024E0244E3068FCF767
:104710004CF802460B4622A000F0D0FC27A0102146
:10472000008828801B48FBF794FD3068FCF73DF8B3
:1047300002460B4622A1174800F0D0FC1549284636
:10474000FBF792FD21A12846FBF78EFD0220207089
:10475000002020702846FBF7AFFDC0B270BD1C4E94
:104760001CA0317800F0AAFC14A010210088288039
:104770000848FBF76EFD32781DA1064800F0AEFC3C
:1047800004492846FBF770FD10A12846FBF76CFD95
:104790000120DEE7E40F00203C0000200C00002098
:1047A0000D0AB1BEB4CECAE4B3F6B9E2D5D5C7BFDF
:1047B000B6C83A2025660D0A000000007B00000004
:1047C000224C494748223A25660000007D0000003F
:1047D000010000200D0AB1BEB4CECAE4B3F6B5C6DE
:1047E000B9E2D7B4CCAC3A2025640D0A0000000031
:1047F000224C454453223A256400000030B589B06C
:1048000005460020069002900390049005900190C8
:10481000ADF81C002846FFF753FC044604282AD0B4
:104820000F2C2CD107AB01AA02A92846FFF7EDFBFC
:10483000050004D0FCF7E6FD6D1C22D025E0BDF894
:104840001C000090DDE901321DA1264800F0FEFBAE
:10485000DDE9011003AAFFF79DF9A0B922A12148C3
:1048600000F0F4FB049881B20398FCF70BFF03A857
:10487000FFF746F907E02846FFF715FC18B1FCF7EB
:10488000C1FD09B030BDFCF7BDFD1DA10198FBF7CE
:10489000F7FC08B11CA105E01FA10198FBF7F0FC93
:1048A00018B11FA10F4800F0D1FB0F2C01D0032C31
:1048B000E7D1029801F0C2F8019801F0BFF8E0E7F3
:1048C0000D0A636D6469643A2025732C207265714A
:1048D0003A2025732C207265715F6C656E3A202535
:1048E000640D0A00E80C00200D0A546970733A093F
:1048F00053656E6420436D64526573700D0A000049
:104900004F50454E000000000D0A426C75655F4C2B
:1049100065645F4F4E0D0A00434C4F454400000054
:104920000D0A426C75655F4C65645F4F46460D0A23
:104930000000000030B5A7B00020239024902590FF
:1049400004462690802101A8FBF783FC01A8FFF70D
:10495000CDFE05000CD023A8009003230022294699
:104960000FA0FFF70BFB78B110A1184800F06EFB09
:1049700027B030BD015DDDE92323D1542499491CC2
:10498000641C24B2249100E001A8AC42F2DB24981C
:1049900081B22398FCF776FE23A8FFF7B1F8E7E78A
:1049A0003937303735313234350000000D0A574180
:1049B000524E3A094D5154545F4E657742756666C2
:1049C0006572204661696C65640D0A00E80C002080
:1049D000010901EB810100F00F0000EB4100C0B2C2
:1049E0007047002102E00A38C0B2491C0A28FAD2F6
:1049F000090740EA116070472DE9F041044600259F
:104A0000C07B627BA37B42E0012A16D0032A14D02C
:104A1000052A12D0072A10D0082A0ED00A2A0CD054
:104A20000C2A0AD0042A10D0062A0ED0092A0CD04B
:104A30000B2A0AD0022A0DD028E01F2B0CD30C2AF7
:104A400005D101221346401C20E01E2B04D3012374
:104A5000521C1BE01C2B02D203F1010316E011D102
:104A600083B29E0710D16426B3FBF6F706FB173618
:104A700036B94FF4C876B3FBF6F706FB17331BB90C
:104A80001D2303E01D2B01D1032201236D1C8D4248
:104A9000BAD3D1B2E0736173DAB2A27300F050F806
:104AA0002073BDE8F08170B50446FDF707F80546B0
:104AB0004FF47A7606E0FDF701F8401BB04201D9C9
:104AC000032070BD206840688006F4D520684168E6
:104AD00041F010014160002070BD000070B5044637
:104AE0000068416821F010014160FCF7E7FF0546CE
:104AF0004FF47A7607E000BFFCF7E0FF401BB042BE
:104B000001D9032070BD206840688006F4D50020DC
:104B100070BD0168086A496A89B241EA004070477D
:104B2000006881698AB2C1698BB2816989B28A429F
:104B300003D0C06961F31F40704743EA02407047E9
:104B4000F0B56424C1EBC1030927A500072603EBD8
:104B500001130329B3FBF7F100F5FA601144014496
:104B60000AD2401EB0FBF4F201EB9001B0FBF5F06D
:104B7000891A0844001D08E0B0FBF4F201EB900133
:104B8000B0FBF5F0891A0844801CB0FBF6F106FB77
:104B90001100C0B2F0BD70B50D4606460024FFF707
:104BA00082FF48B93168280C08623168A8B24862AF
:104BB0003046FFF793FF00B10124204670BD70B569
:104BC0000D4606460024FFF76EFF48B93168280CF1
:104BD00088613168A8B2C8613046FFF77FFF00B135
:104BE0000124204670BD000010B5502080F31188CC
:104BF000BFF34F8FBFF36F8F02F0A8FC18B10449C9
:104C00004FF080500860002080F3118810BD000034
:104C100004ED00E070B596B028216846FBF719FB5B
:104C200014210AA8FBF715FB18210FA8FBF711FBAD
:104C30000124052000250090CDE902544FF4803076
:104C4000019002260494CDE907604FF4E01009902A
:104C50006846FDF793FC08B172B6FEE70F20CDE978
:104C60000A064FF48060CDE90C5002210AA80E9587
:104C7000FDF788FB08B172B6FEE74FF48070CDE90E
:104C80000F400FA8FDF708FB002801D072B6FEE721
:104C900016B070BD704700000148FEF734B8000040
:104CA0008C0D0020F0B502681C4B1D4D1D4E1E4F93
:104CB0001E4C4FF0804C984209D0A04207D060456E
:104CC00005D0A84203D0B04201D0B84204D122F0AE
:104CD000700E4A6842EA0E02984209D0A04207D0FC
:104CE000604505D0A84203D0B04201D0B84203D1FC
:104CF00022F44075CA682A434D6922F080022A4393
:104D000002608A68C2620A688262984201D0A04248
:104D100001D10969016301214161F0BD002C01400D
:104D20000004004000080040000C00400034014036
:104D300010B5002211491248FDF7D7FD0F49002296
:104D4000C91C0F48FDF7AAFD0C48001F0178012976
:104D500013D100210170C01DC1788378427809A069
:104D600001F5FA6100F0AAF90448837842780178E5
:104D7000BDE8104008A000F0A1B910BD040000205B
:104D8000D40C00200D0A253032642F253032642FD8
:104D9000253032640D0A0000253032643A25303265
:104DA000643A253032640D0A0000000010B5406AF4
:104DB0000021C185C184FEF767F810BD01680C3180
:104DC00051E8002F22F4907241E80023002BF5D126
:104DD0000168143151E8002F22F0010241E800235C
:104DE000002BF5D1016B012909D101680C3151E883
:104DF000002F22F0100241E80023002BF5D12021E2
:104E000080F8421000210163704708B590F8421005
:104E1000222901D0022008BD82684FF480539A42B3
:104E200001D1016921B1816A9A421BD04AB10AE0DD
:104E30000268816A5268C2F308020A80816A891C8A
:104E400008E0026972B10268526802F07F020A70DB
:104E5000816A491C8162C18D491E0904090CC18502
:104E600003D01BE002685268F1E70168CA6822F0CB
:104E70002002CA600168CA6822F48072CA600168B0
:104E80004A6922F001024A61202180F84210002183
:104E90004163026B012A03D0FEF71CFA002008BD13
:104EA000016301680C3151E8002F22F0100241E843
:104EB0000023002BF5D101680A68D20602D50A68E2
:104EC00049680091818DFDF7DEFFE7E770B5044684
:104ED00000680169E26821F44051114301612169D0
:104EE000A0680843616908432168CA6841F20C63FD
:104EF0009A430243CA6020684169A26921F4407163
:104F0000114341611E492068884202D1FDF700FB30
:104F100001E0FDF7EDFA00EBC00101EB0012606863
:104F200064218000B2FBF0F3B3FBF1F36FF01806DD
:104F30007343B2FBF0F5B2FBF0F605EB83053223C9
:104F400003EB0515B5FBF1F5B6FBF1F605F0F00541
:104F500005EB0615B2FBF0F6B2FBF0F0B0FBF1F09A
:104F60006FF01802504306EB800003EB0010B0FB1B
:104F7000F1F0216800F00F002844886070BD000047
:104F8000003801402DE9F041984617460E46044688
:104F9000069D27E0681C25D02DB1FCF78FFDA0EB06
:104FA0000800A8421ED920680C3050E8001F21F4E8
:104FB000D07140E80012002AF5D12068143050E882
:104FC000001F21F0010140E80012002AF5D1202045
:104FD00084F8410084F84200002084F84000032057
:104FE000BDE8F0812068006836EA000004D00020A7
:104FF000B842CFD00020F3E70120F9E708B50F4809
:10500000FDF744FF0D4800680068C043800613D4D4
:105010004FF47A73012269460848FEF705F90849FA
:105020000888802801D300200880064B80B29DF8B4
:1050300000201A54401C088008BD0000300D0020DC
:1050400038000020640F0020FEE700000FB40D4878
:1050500070B506AA059900F055F80A48FBF72CF937
:1050600081B2094A0020074B141D06E015686D0641
:10507000FCD51D5C2560401C80B28842F6D370BC14
:105080005DF814FBD40D00200038014030B5074B0B
:1050900000201C1D07E01D686D06FCD511F8015BA2
:1050A0002560401C80B29042F5D330BD00440040E2
:1050B0000148FEF767B90000780D00200FB4054BDA
:1050C00010B503A9044A029800F010F910BC5DF86D
:1050D00014FB0000255A0008C80000200FB4084B3C
:1050E00010B504A902AA039800F000F9044602A929
:1050F000002000F092FC204610BC5DF814FB00007C
:105100001B5A000837B514460846064B6A46214626
:1051100000F0ECF804466946002000F07EFC2046D2
:105120003EBD00001B5A00080907090E002804DBD9
:1051300000F1E02080F80014704700F00F0000F14B
:10514000E02080F8141D704702E008C8121F08C153
:10515000002AFAD170477047002001E001C1121FF8
:10516000002AFBD1704700002DE9FF5F82B00021CB
:10517000DDE90430020DDDF840B0034318D044F6F9
:105180001050A2F2FF3242431514119801281FD08B
:10519000A5EB0B00401C5FEA000A4FF000064E4FE3
:1051A000DFF83891B046504615D5CAF1000413E037
:1051B000119801244AA3012801D16FEA0B0102983A
:1051C000119AC0E90031C0E9024206B0BDE8F09F83
:1051D000CBF10000DFE704460021404A491842EBCA
:1051E0000450CDE9001012E0E00707D032463B46FC
:1051F00040464946FBF7EAF98046894632463B4637
:1052000010461946FBF7E2F906460F466410002CDB
:10521000EAD1DDE90401DDE90023BAF1000F06DA85
:10522000FBF7D4F942464B46FBF7D0F905E0FBF714
:105230003FFA42464B46FBF73BFA04460E46002235
:10524000284BFBF709FC03D84FF0FF30014607E07D
:105250000022254B20463146FBF711F9FBF7E4FB12
:10526000102409E0002C0ADB0A220023FBF7F6FADF
:10527000039B30321A55641E50EA0102F2D1641CBD
:10528000039AC4F111031444119A012A03D0012294
:1052900008430DD10AE0084304D000204FF0110B61
:1052A000119072E7A3EB0B056D1E0DE05B4504DD6D
:1052B0004FF0000205F1010504E003DA4FF00002AF
:1052C000A5F10105002AECD002981199C0E902313C
:1052D000C0E9004579E70000000014400000F03FFD
:1052E000300000000000F0430000E03F2DE9FF4FD8
:1052F00095B09B468946064600250FE2252877D1C2
:1053000000242746F84A0121059400E0044316F8DA
:10531000013F203B01FA03F01042F7D130782A28F0
:1053200011D06FF02F033078A0F13002092A16D87F
:10533000059A44F0020402EB820203EB420210449D
:10534000761C0590EFE759F8042B0592002A03DA42
:10535000504244F40054059044F00204761C307826
:105360002E2816D116F8010F44F004042A280DD077
:105370006FF02F023078A0F13003092B09D807EB2A
:10538000870302EB4303C718761CF3E759F8047B45
:10539000761C30786C280FD006DC4C2817D0682893
:1053A0000DD06A2814D104E0742810D07A280FD1C7
:1053B0000DE044F400140AE044F4801401E044F4E5
:1053C00040147278824202D104F58014761C761C57
:1053D000307866280BD013DC582877D009DC0028F9
:1053E00075D04528F6D04628F4D047281AD19DE13B
:1053F00018E0632835D0642879D0652812D195E16A
:10540000702873D008DC6728F1D069286FD06E2827
:105410000DD06F2806D1B5E073282CD0752875D033
:10542000782874D05A46179990476D1C75E1C4F3DB
:105430000250022809D003280DD0D9F80010042802
:105440000DD00D6009F1040967E1D9F80010EA17E1
:10545000C1E90052F6E7D9F800100D80F2E70D70AF
:10546000F0E719F8041B8DF8001000208DF80100FA
:10547000EA46012003E059F804AB4FF0FF30610722
:105480004FF0000102D40DE008F101018846B94255
:105490000FDA8045F8DB1AF808100029F4D108E08B
:1054A00008F1010188468142FADB1AF80810002948
:1054B000F6D105985B46A0EB080721463846179AB7
:1054C00000F094FA284400EB080507E04DE029E1DC
:1054D0000DE01AF8010B5A4617999047B8F10108E8
:1054E000F7D25B4621463846179A13E142E00A227A
:1054F0000092C4F302524FF0000A022A08D059F871
:1055000004CB032A4FEAEC710AD00DE029E02AE02F
:1055100009F1070121F00702F2E802C1914609E012
:105520000FFA8CFC4FEAEC71042A03D14FFA8CFC81
:105530004FEAEC71002907DA0A460021DCF1000C81
:1055400061EB02012D2202E0220504D52B228DF809
:105550000420012203E0E20701D02022F7E7904671
:1055600059E00A2102E010220DE010214FF0000A5C
:1055700000910BE010224FF0000A44F004040827C9
:10558000009203E008224FF0000A0092C4F3025296
:10559000022A05D059F804CB0021032A08D009E0DB
:1055A00009F1070121F00702F2E802C1914605E086
:1055B0001FFA8CFC042A01D10CF0FF0C4FF00008FC
:1055C000220728D5702806D0009B83F0100353EAE9
:1055D0000A0305D00EE040228DF80420012208E0E5
:1055E0005CEA010206D030228DF804208DF8050017
:1055F00002229046009B83F0080353EA0A030AD173
:105600005CEA010201D1620705D530228DF8042041
:105610004FF001087F1E582804D034A003900EA834
:1056200002900DE036A0F9E753466046009AFBF77A
:1056300015F984460398825C0298401E029002701D
:105640005CEA0100F0D1029806A9081A00F1200ACC
:10565000600702D524F4803400E00127574502DDBD
:10566000A7EB0A0000E0002000EB0A01009005987B
:105670004144401A0590E00306D45B462146179A40
:10568000059800F0B3F90544002706E001A85A4642
:10569000C05D179990476D1C7F1C4745F6DBE00302
:1056A0000CD55B462146179A059800F09FF90544F2
:1056B00004E030205A46179990476D1C0099481E07
:1056C00000900029F5DC08E0029802995A4600781B
:1056D000491C0291179990476D1CBAF10001AAF17B
:1056E000010AF1DC65E100000928010030313233A4
:1056F000343536373839616263646566000000000E
:1057000030313233343536373839414243444546F7
:105710000000000000F058F90544761C307800289D
:105720007FF4ECAD19B02846BDE8F08F620700D4D5
:10573000062709F1070222F0070CFCE80223E146E4
:1057400003F000485FEA080C02D00FF2702C0DE065
:105750005FEA045C02D50FF2682C07E05FEAC47CC4
:1057600002D00FF2602C01E0AFF2700C4FF0FF3866
:1057700023F00043CDF850C065280CD006DC452846
:1057800009D046281DD047283DD13DE0662818D0D5
:1057900067287ED138E00021112F01DB112000E0C5
:1057A000781CCDE9000106A90EA8FFF7DDFCDDE9B4
:1057B0000F010E9A03910021009207F1010A049152
:1057C0004DE04FF000400097CDE9011006A90EA86A
:1057D000FFF7CAFCDDE90F0203920E9B119900222C
:1057E000DDF80CA00093049211B9791C00EB010ABA
:1057F000B7EB0A0004D4C0F1FF3007F1010A0490AE
:10580000AAEB0700019044E0012F00DA01270021F4
:10581000112F01DD112000E03846CDE9000106A975
:105820000EA8FFF7A1FCDDE90F010E9A03910021FC
:1058300004910092BA4621070CD40399514500DA2D
:105840008A46BAF1010F05DD009AAAF10101515C07
:10585000302908D0B84202DA10F1040F06DA01212B
:10586000CDE9011015E0AAF10101E9E7002805DC06
:10587000049901440491AAEB000102E0411C514546
:1058800000DD8A460499401A401C01904FF0004008
:105890000290200704D40198504501DBCDF8048024
:1058A00000208DF84F0002980DF14F07B0F1004F26
:1058B00025D02B200E9002984FF0020800280CDA19
:1058C000404202902D200E9007E00A210298FAF73C
:1058D000AFFF3031029007F8011DB8F10001A8F1C7
:1058E0000108F2DC02980028EFD1791E0E980870AA
:1058F000307800F0200040F0450007F8020D12A8B3
:10590000C01B00F107081498007800B1012000EBDB
:105910000A01019801EBE07105984144401A401ECC
:105920000590E00306D45B462146179A059800F0DF
:105930005DF805441498007818B15A4617999047B5
:105940006D1CE00324D55B462146179A059800F0AC
:105950004DF805441CE00498002807DBDDE903014D
:10596000884203DD0098405C179901E017993020C8
:105970005A469047049805F10105401C049001988F
:10598000401E019004D12E205A46179990476D1C55
:10599000BAF10001AAF1010ADDDC05E017F8010BFC
:1059A0005A46179990476D1CB8F10001A8F10108FB
:1059B000F4DC5B462146179A0598ABE62D00000003
:1059C0002B000000200000002DE9F04104460025D6
:1059D0001E461746880404D405E039462020B04707
:1059E0006D1C641EF9D52846BDE8F0812DE9F04113
:1059F000044600251E469046C80301D5302700E026
:105A00002027880404D505E041463846B0476D1C80
:105A1000641EF9D52846BDE8F0810A68531C0B6066
:105A20001070704713B54FF6FF73012269460248A4
:105A3000FDF751FC00981CBDE80C002010B50028B3
:105A400021D0114B0022001F196803E0814203D8C6
:105A50000A4649680029F9D152B11368841A9C4258
:105A600004D1006818441060104602E0506000E065
:105A7000186039B102680B1A934203D10B681A44BB
:105A800002604968416010BDCC000020EFF3058042
:105A9000002800D001207047034A13680A460146D7
:105AA0000248FBF703B8000040000020F40F00207C
:105AB000FCF7E0FAFFF7AEF8FEF7A2FBFEF768FC92
:105AC000FEF7F0FBFEF70EFCFEF77EFCFEF72AFC6D
:105AD000FEF796FCFEF724FB00F0B8F9FEE701465E
