:020000040800F2
:10000000581A0020DD010008571F00084F1800088B
:10001000551F00086D060008B1210008000000000F
:100020000000000000000000000000004501000882
:100030006F0600080000000089010008591F000831
:10004000F7010008F7010008F7010008F7010008B0
:10005000F7010008F7010008F7010008F7010008A0
:10006000F7010008F7010008F7010008F701000890
:10007000F7010008F7010008F7010008F701000880
:10008000F7010008F7010008F7010008F701000870
:10009000F7010008F7010008F7010008F701000860
:1000A000F7010008E51F0008F7010008F701000844
:1000B000F7010008F7010008F7010008F701000840
:1000C000F7010008F7010008F7010008F701000830
:1000D000F7010008F7010008F7010008F701000820
:1000E000F7010008F7010008F7010008F701000810
:1000F000F7010008F7010008F7010008F701000800
:10010000F7010008F7010008F7010008F7010008EF
:10011000F7010008F7010008F7010008F7010008DF
:10012000F7010008F7010008F7010008F7010008CF
:10013000DFF80CD000F004FA0048004791260008D0
:10014000581A0020224B19680868B0E8F00F80F3B5
:100150000988BFF36F8F4FF0000080F311884EF0D5
:100160000D0E70470000000006480068006880F32C
:10017000088862B661B6BFF34F8FBFF36F8F00DFA1
:1001800000BF00BF08ED00E0EFF30980BFF36F8F01
:100190000F4B1A6820E9F00F106008B54FF05000BF
:1001A00080F31188BFF34F8FBFF36F8F03F096F981
:1001B0004FF0000080F31188BDE808401968086816
:1001C000B0E8F00F80F30988BFF36F8F704700BF6E
:1001D00038000020EFF30580704700000648804794
:1001E00006480047FEE7FEE7FEE7FEE7FEE7FEE71C
:1001F000FEE7FEE7FEE7FEE7E31F00083101000827
:10020000202A04DB203A21FA02F00021704721FA6B
:1002100002F3D040C2F120029140084319467047D2
:1002200040EA01039B0703D009E008C9121F08C078
:10023000042AFAD203E011F8013B00F8013B521EF8
:10024000F9D27047D2B201E000F8012B491EFBD26F
:1002500070470022F6E710B513460A4604461946D1
:10026000FFF7F0FF204610BD2DE9F04D81EA0304B1
:1002700004F0004B21F0004514464FF0000A23F033
:10028000004150EA050220D054EA01021DD0C5F316
:100290000A570246C5F31303C1F31300C1F30A560C
:1002A00040F4801543F48013A7EB0608101BD646D4
:1002B00008F2FD3873EB050002D308F1010801E0F4
:1002C00092185B41B8F1000F03DA00200146BDE847
:1002D000F08D00204FF48011064684460EE0171B77
:1002E00073EB050705D3121B63EB050306434CEACA
:1002F000010C49084FEA300092185B4150EA0107AF
:10030000EDD152EA030012D082EA040083EA05012B
:10031000084305D0101BAB4106D20122002306E0A2
:1003200000224FF0004302E06FF0010253101AEB7D
:1003300006004CEB085110EB0A0041EB0B01BDE845
:10034000F04D00F0A0B8C10F80EAE0700844CA0781
:100350009623002100F069B800F0004230F0004020
:100360000AD0C10D01F56071C0F3160042EA0151D7
:10037000C20840071143704700200146704701F052
:10038000004330B421F0004150EA010206D00A0DCA
:10039000A2F56072C1F31301002A02DC30BC002018
:1003A0007047440F44EAC104C100E01830BC00EBC0
:1003B000C25000F031B82DE9F05F054600209246AA
:1003C0009B4688460646814640241BE02846414617
:1003D00047462246FFF714FF53465A46C01A91413A
:1003E00010D311461846224600F0BCF82D1A67EBD0
:1003F00001084F4622460120002100F0B3F817EB18
:1004000000094E41201EA4F10104DFDC48463146BC
:100410002A464346BDE8F09F0029A8BF7047401C0C
:10042000490008BF20F00100704710B4B0FA80FC0A
:1004300000FA0CF050EA010404BF10BC704749B147
:10044000CCF1200421FA04F411FA0CF118BF0121B7
:1004500021430843A3EB0C01CB1D4FEA00614FEA97
:10046000102042BF002010BC704700EBC350104466
:100470000029A4BF10BC7047401C490008BF20F0F1
:10048000010010BC704710B5141E73F1000408DAA7
:10049000401C41F1000192185B411A4301D120F048
:1004A000010010BD2DE9F04D92469B4611B1B1FA05
:1004B00081F202E0B0FA80F22032904600F052F869
:1004C00004460F4640EA0A0041EA0B0153465A46E9
:1004D000084313D0114653EA010019D0C8F1400275
:1004E0005046FFF78DFE05460E4650465946424699
:1004F00000F038F8084305D0012004E020463946D2
:10050000BDE8F08D0020054346EAE0762C433743F2
:100510000A986305E40AA0EB08000022FD0A44EAF9
:1005200047540A3002D500200146E9E701051019B9
:100530006941DDE9084500196941BDE8F04DA2E7D0
:10054000064C074D06E0E06840F0010394E8070020
:1005500098471034AC42F6D3FFF7EEFD6042000836
:1005600080420008202A04DB203A00FA02F1002031
:1005700070479140C2F1200320FA03F319439040E1
:10058000704700001CB500200190C82000F072F8F0
:1005900001F0AEFB5FF001048DF8004001216846D8
:1005A00001F062F930B100BF9DF800101BA001F00E
:1005B00001FEF1E710208DF800000121684601F0EE
:1005C00053F90028F0D1C82000F054F802211D484A
:1005D00001F03EF918B11CA001F0ECFDDCE719496F
:1005E000A1F120050878497801EB00202860FFF789
:1005F000AAFEFFF7B1FE4FF033321B4BFFF734FE7C
:10060000FFF7BDFE012301909A1E01A9286903F09E
:1006100083F8012002F051F8BEE700004932435F41
:100620004248313735305F4F7065636F64655F579F
:10063000726974653A20253278204572726F720AA9
:1006400000000000200000204932435F424831375B
:1006500035305F446174615F526561643A202045C2
:1006600072726F720A0000003333F33FFEE7704787
:1006700072B6FEE770B5044600F010F90546601C3E
:1006800002D004480078044400F008F9401BA0425E
:10069000FAD370BD280000202DE9F84FDFF8C8918B
:1006A0000024A9F1040B23460F2709F1040AABF13A
:1006B000040ED1E00125A54006EA0502AA4276D142
:1006C000DFF8A8C14E68A6EB0C0866452BD00DDC00
:1006D000032E34D005DC36B3012E19D0022E2FD1D3
:1006E0001BE0112E16D0122E2AD119E0B8F5881F62
:1006F00019D006DCB8F5803F15D0B8F5801F1FD1A2
:1007000011E0B8F5001F0ED0B8F5041F18D10AE0AB
:10071000CB6815E0CB681B1D12E0CB6808330FE0F7
:10072000CB680C330CE08B682BB1012B4FF0080326
:1007300003D0456104E0042302E0056100E00023EA
:10074000FF2A01D8064601E000F104064FEA8405BD
:1007500001D9A5F12005D6F8008007FA05FC28EAA2
:100760000C0803FA05F548EA0508C6F800804D684C
:10077000ED0070D53E4DAE6946F00106AE61AD6943
:1007800024F0030605F0010500953A4D06EB050C33
:10079000DCF80850A607360F07FA06F825EA080520
:1007A000DFF8D480404503D14FF0000825E052E047
:1007B000DFF8C880404502D14FF001081DE0DFF8A6
:1007C000C080404502D14FF0020816E0DFF8B48047
:1007D000404502D14FF003080FE0DFF8AC80404500
:1007E00002D14FF0040808E0DFF8A080404502D1B4
:1007F0004FF0050801E04FF0060808FA06F848EA4D
:100800000508CCF808804D68D9F80060ED024D4627
:1008100001D5164300E096432E604D68DAF800607B
:10082000AD02554601D5164300E096432E604D6853
:10083000DBF80060AD035D4601D5164300E096434A
:100840002E604D68DEF80060ED03754601D5164355
:1008500000E096432E60641C0A681646E2407FF46E
:1008600029AFBDE8F88F0000080401400000111016
:10087000001002400000014000080140000C01404F
:10088000001001400014014000180140001C01400C
:100890000AB1016170470904FBE700000148806864
:1008A000704700002800002070B5040025D094F89F
:1008B0003D00002520B984F83C50204600F076FA2F
:1008C000242084F83D002068016821F001010160C6
:1008D0002068016841F4004101602068016821F44A
:1008E0000041016000F0FEFB4D4A6168914201D871
:1008F0004C4900E04C49884201D2012070BD4B496F
:100900002368B0FBF1F15E6826F03F060E435E609F
:100910006368934206D94FF4967359434FF47A7340
:10092000B1FBF3F12368491C1E6A26F03F063143F0
:1009300019626168914210D84900401EB0FBF1F283
:10094000521CC2F30B02042A01D2042022E0B0FBA5
:10095000F1F0401CC0F30B001CE0A268F2B301EB05
:10096000C10303EB0116431EB3FBF6F35B1C43F418
:1009700080431B0549D092B301EBC10202EB011188
:10098000401EB0FBF1F0401CC0F30B0040F480406F
:1009900040F400402168CA694CF6FF739A43104343
:1009A000C861D4E9071001432068026822F0C00240
:1009B00011430160D4E9030101432068826848F2D1
:1009C000FF339A4311438160D4E90501084321684C
:1009D000CA6822F0FF021043C86001E00EE016E092
:1009E0002068016841F0010101602564202084F83D
:1009F0003D00256384F83E50002070BD01EB4106A8
:100A0000431EB3FBF6F35B1CB3E70120C2E701EB27
:100A10004101401EB0FBF1F0401CC0F30B00B7E7F2
:100A2000A086010080841E0000093D0040420F00A6
:100A30002DE9F84F0025DDF82890984617468A469C
:100A400004460095FFF72AFF064694F83D0020284B
:100A50007AD11923012286492046009601F018F820
:100A60000028F5D194F83C0001286DD0012084F8CD
:100A70003C0020680168C90703D1016841F0010109
:100A800001602068016821F400610160222084F87F
:100A90003D00102084F83E0025646762A4F82A8097
:100AA000608D20857348E06233464A4651462046B1
:100AB00000F0FEFE00287CD1208DDFF8BC812027CD
:100AC00068B1012814D00228206801681ED041F4C2
:100AD000806101602068416980690090BBE0206806
:100AE000416981690091016841F400710160B2E0DF
:100AF0002068016821F48061016072B62068416954
:100B000081690091016841F400710AE041F40061DB
:100B1000016072B62068416981690091016821F421
:100B20008061016062B696E0032865D801280CD088
:100B300002284B464FF000024146204600960BD05B
:100B400000F0A6FFA8BB0CE090E0324649462046E4
:100B500001F044F868BB71E000F09AFF48BB72B640
:100B600033E02068016821F48061016072B620687A
:100B70000069616A0870606A401C6062208D401ED6
:100B80002085608D401E60853C4846F2A8110068B3
:100B9000B0FBF1F0C0EBC00000EB80000090401E05
:100BA000009007D020684069C04340070DD50098E9
:100BB000F5E727E044F8305F6773A573206940F0DC
:100BC0002000206162B625731CE02068016841F4B2
:100BD0000071016020680069616A0870606A401CE9
:100BE0006062218D491E2185618D491E618562B635
:100BF00021680969017025E032464946204600F027
:100C0000EDFF10B10120BDE8F88F20680069616A2E
:100C10000870606A401C6062208D401E81B2218590
:100C2000608D401E608520684269D243520712D40D
:100C3000032903D1016821F4806101602068006903
:100C4000616A0870606A401C6062208D401E2085C9
:100C5000608D401E6085208D00287FF465AF84F88C
:100C60003D7084F83E5084F83C50CCE70220CAE73F
:100C7000020010000000FFFF04000100340000200B
:100C80002DE9F84F1F4690468A460446DDF8289025
:100C9000FFF704FE054694F83D0020287FD1192374
:100CA000012240492046009500F0F2FE002876D14E
:100CB00094F83C00012872D0012084F83C002068A0
:100CC0000168C90703D1016841F001010160206892
:100CD000016821F400610160212084F83D001020AA
:100CE00084F83E0000262664C4F824806785608D61
:100CF00020852D48E0622B464A465146204600F0AA
:100D00004DFE90B9206841698069009036E02A461E
:100D10004946204600F09AFF50B1206C042804D1C7
:100D20002068016841F4007101600120BDE8F88F7E
:100D3000606A216800780861606A401C6062618DA9
:100D4000491E6185218D491E89B22185226853691A
:100D5000DB435B070BD451B100781061606A401C23
:100D60006062608D401E6085208D401E20852A4671
:100D70004946204600F060FE0028CED1208D002894
:100D8000C5D154F83D0B016841F400710160202089
:100D900004F81E09E67766770020C7E7FFE7022020
:100DA000C4E70000020010000000FFFF10B586B08D
:100DB0000021009101910291039100680F4988423E
:100DC0001AD10F4CA06940F00800A061A0696946E3
:100DD00000F008000490C020009012200190032031
:100DE00003900848FFF758FCE06940F40010E06108
:100DF000E06900F40010049006B010BD00540040FB
:100E000000100240000C0140024881680278114441
:100E10008160704728000020074810B5016841F044
:100E200010010160032000F095F80F2000F006F893
:100E300000F03EF8002010BD0020024000B5014641
:100E400087B00022192000F065F8192000F054F84E
:100E50001348816941F400618161806905A900F44A
:100E600000600690684600F01DF900F04BF90D494E
:100E70000D4AB0FBF1F10D48491E0260416040F29D
:100E8000E7320021C0E90321816000F003FB10B1CB
:100E9000012007B000BD054800F02AFBF9E700007B
:100EA0000010024040420F00002C0140F4070020D7
:100EB0000F4808B5816941F001018161816901F044
:100EC00001010091C16941F08051C161C0690022F6
:100ED00000F0805000900F21901E00F01BF8054894
:100EE000416821F0E06141F00071416008BD0000FF
:100EF0000010024000000140002809DB00F01F0242
:100F0000012191404009800000F1E020C0F800116B
:100F100070470000F0B40E4B1B680C46C3F302236D
:100F2000C3F10705042D00D90425191D072901D295
:100F3000002300E0DB1E012606FA05F1491E2140D0
:100F400099409E40761E16403143F0BC01F042B9F4
:100F50000CED00E0064900F0070208684FF6FF03B9
:100F6000184040EA0220034A10430860704700001E
:100F70000CED00E00000FA052DE9F0470F460500F2
:100F800061D0434E306800F00700B84209D23068A3
:100F900020F0070038433060306800F00700B842A6
:100FA00051D128683B4C810712D5400703D56068B2
:100FB00040F4E06060602878000703D5606840F482
:100FC000605060606068A96820F0F00008436060CD
:100FD0002878C00728D06868012810D02168022826
:100FE00010D0890700292EDA616821F0030101433E
:100FF0006160FFF753FC804641F288390DE02168BB
:101000008903EFE78901EDE7FFF748FCA0EB080152
:10101000494502D90320BDE8F0876068696800F09F
:101020000C00B0EB810FEFD1306800F00700B84240
:101030000BD9306820F0070038433060306800F08A
:101040000700B84201D00120E5E72878400705D520
:101050006068E96820F4E060084360602878000771
:1010600006D56068296920F4605040EAC1006060DC
:1010700000F058F86168084AC1F30311515CC84098
:101080000649086006480068FFF7D8FE0020C2E75E
:1010900000200240001002402242000834000020DC
:1010A0002C0000200F2202600C4A536803F0030357
:1010B0004360536803F0F0038360536803F4E06314
:1010C000C36052684FF4E06303EAD202026104484D
:1010D000006800F007000860704700000010024040
:1010E000002002400448054900684968044AC1F3E9
:1010F0000221515CC84070473400002000100240BB
:10110000324200080448054900684968044AC1F3AE
:10111000C221515CC84070473400002000100240DA
:10112000324200080E4A51680E4801F00C03042BAD
:1011300011D0082B0FD10C48C1F38343C903C05C05
:101140000AD55168084AC1F34041921E515C054AD4
:101150005043B0FBF1F0704704494843704700002A
:101160000010024000127A001242000800093D00FF
:101170002DE9F84F040070D02078C04DC00749D049
:101180006868C0F38100012807D06868C0F3810057
:10119000022809D16868C00306D52868800339D5BC
:1011A00060680028E7D035E06068B0F5803F0BD07C
:1011B00010B1B0F5A02F11D0286820F4803028603D
:1011C000286820F4802002E0286840F480302860FD
:1011D000606890B1FFF762FB06460AE0286840F4B9
:1011E00080202860F0E700BFFFF758FB801B6428D1
:1011F00073D828688003F7D50CE0FFF74FFB06464D
:1012000005E000BFFFF74AFB801B6428F0D8286880
:101210008003F7D420789A4E80074FF001094FF0F1
:10122000000839D5686810F00C0F07D06868C0F363
:101230008100022809D16868C00306D428688007A5
:1012400014D52069012808D110E02069B0B1C6F892
:101250000090FFF723FB074605E00AE1FFF71EFBBE
:10126000C01B0228C4D828688007F7D528686169A0
:1012700020F0F80040EAC10028600DE0C6F80080C8
:10128000FFF70CFB074604E0FFF708FBC01B022832
:1012900023D828688007F7D4207800072CD5794810
:1012A000A169D9B1C0F80090FFF7F8FA074604E049
:1012B000FFF7F4FAC01B02280FD8686A8007F7D539
:1012C00071484FF4FA510068B0FBF1F0009000BF94
:1012D0000098411E0091FAD20EE080E0C0F8008034
:1012E000FFF7DCFA074604E0FFF7D8FAC01B022834
:1012F00075D8686A8007F7D42078400760D5E86918
:101300000027C00008D4E86940F08050E861E8692F
:10131000012700F0805000905C480168C90513D493
:101320000168834641F480710160FFF7B7FA824695
:1013300006E000BFFFF7B2FAA0EB0A0064284ED81F
:10134000DBF80000C005F5D5E06801280AD008B137
:10135000052813D0286A20F001002862286A20F0AE
:10136000040002E0286A40F001002862E06841F2CF
:10137000883B98B1FFF792FA82460BE0286A40F06A
:1013800004002862EEE700BFFFF788FAA0EB0A012D
:1013900059455AD8286A8007F6D50CE0FFF77EFA3F
:1013A000824605E0FFF77AFAA0EB0A0159454CD8CE
:1013B000286A8007F6D41FB1E86920F08050E86100
:1013C000E06988B36968C1F38101022944D0022829
:1013D000C6F8608004D0FFF761FA044638E034E0D4
:1013E000FFF75CFA074604E0FFF758FAC01B022833
:1013F0002BD828688001F7D4206AB0F5803F05D14A
:101400006868A16820F4003008436860D4E90801E6
:101410000843696821F4741108436860C6F8609055
:10142000FFF73CFA044606E025E000BFFFF736FA76
:10143000001B022809D828688001F7D51BE000BFEF
:10144000FFF72CFA001B022802D90320BDE8F88F11
:1014500028688001F4D40EE00128F7D06868226A79
:1014600000F48031914204D1616A00F47010884226
:1014700001D00120EAE70020E8E700000010024068
:1014800000004242800442423400002000700040CC
:101490007047704710B5040003D094F83D0010B1B8
:1014A00007E0012010BD002084F83C00204600F039
:1014B0001EF8022084F83D00211D206800F098FDF0
:1014C000012084F8460084F83E0084F83F0084F848
:1014D000400084F8410084F8420084F8430084F816
:1014E000440084F8450084F83D00002010BD70479A
:1014F00090F83D10012901D001207047022180F8A9
:101500003D100168CA6842F00102CA6000680E49D5
:1015100088420ED00D4988420BD0B0F1804F08D0E0
:101520000B49884205D00B49884202D00A498842BB
:1015300004D1816801F00701062903D0016841F058
:101540000101016000207047002C0140003401407F
:101550000004004000080040000C0040704770B5D7
:101560000446006801694FF00005C943890715D496
:10157000C168C943890711D4E91E016101202077A0
:10158000206880698007204602D0FFF7E7FF04E06B
:1015900000F098F8204600F096F825772068016959
:1015A000C943490717D4C168C943490713D46FF029
:1015B00004010161022020772068806910F4407FD7
:1015C000204602D0FFF7CAFF04E000F07BF8204677
:1015D00000F079F8257720680169C943090716D416
:1015E000C168C943090712D46FF0080101610420E2
:1015F00020772068C0698007204602D0FFF7AEFF41
:1016000004E000F05FF8204600F05DF825772068E0
:101610000169C943C90617D4C168C943C90613D4AF
:101620006FF010010161082020772068C06910F474
:10163000407F204602D0FFF791FF04E000F042F81F
:10164000204600F040F8257720680169C943C907A2
:1016500008D1C168C943C90704D1891E0161204668
:1016600000F032F820680169C943090609D4C1684D
:10167000C943090605D46FF0800101612046FFF7D8
:1016800007FF20680169C943490609D4C168C943F5
:10169000490605D46FF040010161204600F01EF8B4
:1016A00020680169C94389060BD4C168C94389060A
:1016B00007D46FF0200101612046BDE87040FFF7BC
:1016C000E8BE70BD7047704700680349884201D189
:1016D000FFF79ABB70470000002C0140704770B5BF
:1016E000040004D094F84100002510B106E0012068
:1016F00070BD84F84050204600F024F8242084F87F
:1017000041002068C16821F40051C160204600F00A
:10171000B7FC2068016921F49041016120684169AA
:1017200021F02A0141612068C16841F40051C16083
:101730006564202084F8410084F84200656300203D
:1017400070BD000030B585B000240094019402946F
:10175000039400681449884224D11448816941F4F3
:1017600080418161816901F480410491816941F086
:101770000401816180690E4D00F0040004904FF473
:1017800000700090022001900320039069462846D3
:10179000FEF782FF2815CDE9000469462846029429
:1017A000FEF77AFF05B030BD00380140001002405E
:1017B000000801402DE9F843044690F841001F4617
:1017C00016460D46202802D00220BDE8F8837DB1E0
:1017D00076B100206064212084F84100FFF75EF8B4
:1017E000A6848046E684A068B0F5805F02D003E05E
:1017F0000120EAE7206910B12E4600250EE0002600
:101800000CE08021204600F097FCA0B9AEB116F89C
:10181000010B21684860E08C401EE084E08C434668
:101820004FF0000200970028EBD14FF04001204616
:1018300000F082FC30B10320C7E735F8020BC0F39B
:101840000800E6E7202084F841000020BDE7FEE71D
:1018500008B5012200920B46024647210148FFF7D6
:10186000E7F808BD5807002008B5012200920B4692
:10187000024646210148FFF703FA08BD5807002039
:1018800001684A69D24352050FD46FF480624A61FD
:10189000002140F8301F202242738173026942F018
:1018A00004020261017301207047002070470000AC
:1018B0002DE9F84F0446C06A1E4693460D4621683E
:1018C0000A6842F480620A60082807D0012805D01F
:1018D00010F5803F02D0206B112804D120680168E8
:1018E00041F4807101604FF001195B4600224946C6
:1018F0002046009600F0CCF84FF4007840B1206804
:101900000068C00501D5C4F840800320BDE8F88F09
:101910002069DFF884A0B0F5804F0FD00620216841
:1019200000EAD51747F0F000086133465A460AF13D
:101930000601204600F0F4F858BB03E0E8B240F09E
:1019400001001CE02168E8B2086133465A4651465E
:10195000204600F0E5F8E0B920684169816900910E
:10196000016841F4807101605B46002249462046CF
:10197000009600F08DF80028C1D147F0F1002168F1
:10198000086133465A465146204600F0C9F80028FF
:10199000BCD00120BAE7000002000100F8B50446FF
:1019A000C06A1E460D461746082807D0012805D0F4
:1019B00010F5803F02D0206B122804D12068016806
:1019C00041F480710160134600224FF0011120465E
:1019D000009600F05DF840B120680068C00502D5AF
:1019E0004FF4007020640320F8BD2069B0F5804FEB
:1019F0000ED00620216800EAD51040F0F000086102
:101A000033463A460B49204600F08AF878B902E09E
:101A100005F0FE0000E0E8B22168086105493346A0
:101A20003A46891F204600F07BF80028DCD00120D0
:101A3000F8BD00000800010070B516460D460446CA
:101A40001EE02046FFF71CFF08B1012070BD681C96
:101A500016D0FEF723FF801BA84200D885B9206866
:101A60004069C04340070BD5002044F8300F2021C7
:101A70006173A073216941F0200121612073E4E7C3
:101A800020684069C0434007DBD4002070BD0000DF
:101A90002DE9F047984617460D460446C1F3074620
:101AA000DDF820902AE000BFB8F1FF3F26D0FEF716
:101AB000F5FEA0EB0901414502D8B8F1000F1DD198
:101AC0002068012E16D0806925EA00000004000C71
:101AD00012D00020B84211D1002044F8300F20214C
:101AE0006173A073216941F02001216120730120FD
:101AF000BDE8F0874069E7E70120EBE72068012EA9
:101B00000AD0806925EA00000004000C06D00020FD
:101B1000B842C9D00020EBE74069F3E70120F7E7BE
:101B20002DE9F047984616460D4604464FF0000949
:101B30004FF0200AC1F3074723E020684069C04303
:101B4000400515D42068016841F4007101602168E6
:101B50006FF480604861C4F8309084F83DA084F848
:101B60003E90216C41F00401216484F83C9021E016
:101B7000701C06D0FEF792FEA0EB0800B04203D81E
:101B800016B1012F1FD021E02068012F15D08069E8
:101B900025EA00000004000C18D000BF44F8309F74
:101BA00084F80DA084F80E90216941F02001216194
:101BB00084F80C900120BDE8F087406925EA000018
:101BC0000004000CEAD12068406901E020688069C7
:101BD00025EA00000004000CAFD1ECE72DE9F0414C
:101BE000002590460E460446202728E04069C04361
:101BF000C0060CD454F8301B6FF01000486144F854
:101C000010596777A577206A2062257714E0FEF7E0
:101C100045FEA0EB0800B04200D886B920684069B4
:101C2000C04340060BD544F8305F6773A573206945
:101C300040F02000206125730120BDE8F08120687C
:101C40004169C9434906D1D40020F6E770B516466C
:101C50000D4604461EE02046FFF712FE08B10120A3
:101C600070BD681C16D0FEF719FE801BA84200D874
:101C700085B920684069C04300060BD5002044F8B0
:101C8000300F20216173A073216941F0200121618F
:101C90002073E4E720684069C0430006DBD40020DD
:101CA00070BD000008B50B4E4FF0FF3500242A46EA
:101CB0006946706901F03EFE9DF8000008B106A07B
:101CC00000E008A000F076FA8DF80040012000F056
:101CD000F4FCECE7000000204C4544204F4E0D0A78
:101CE000000000004C4544204F46460D0A0000000D
:101CF00008B501208DF8000001466846FFF7B4FDE5
:101D000018B103A000F056FA08BD06A0FAE70000DB
:101D1000496E69745F424831373530204572726FC1
:101D2000720A0000496E69745F42483137353020CD
:101D30004F6B0A001CB500271A4EDFF86C901B4C45
:101D40004FF001087D1E01972A4601A9206901F084
:101D5000F1FD0198B0420DDA00220C214846FEF751
:101D600097FD00238DF800801A461946E06901F0BE
:101D7000D3FC0AE001220C214846FEF789FD8DF8CC
:101D800000700021E06901F071FE012805D10123F6
:101D90002A466946606901F0BFFC012000F08DFC15
:101DA000D2E700000000A041001001400000002028
:101DB00030B5A1B000201D901E9001211DA800F09B
:101DC0009BFC244C244D0022E061D5E90001CDE9C3
:101DD0001F0101211FA800F0D9FC0835A06195E87A
:101DE0000F000DF1540C083D8CE80F00002115A8E0
:101DF00000F06FFC1835206195E80F0019AD85E8FB
:101E00000F00002119A800F064FC134960611C2236
:101E100028316846FEF704FA0021684600F08BFC82
:101E20000D4960601C22443107A8FEF7F9F9002132
:101E300007A800F080FC0849A0601C2260310EA8B1
:101E4000FEF7EEF900210EA800F075FCE06021B06D
:101E500030BD0000000000209441000810B586B09D
:101E6000002000900190029003901A48816941F08F
:101E700020018161816901F020010491816941F0B3
:101E800010018161816901F010010491816941F0C3
:101E900004018161816901F004010491816941F0CB
:101EA0000801816180690C4C00F008000490012257
:101EB0000C212046FEF7ECFC0C200121CDE90001AD
:101EC0000320CDE9021069462046FEF7E5FB06B087
:101ED00010BD000000100240001001400D4810B578
:101EE0000B4901600C49416000214FF48042816040
:101EF000C0E9031241618161C1610162FEF7D4FC56
:101F0000002803D0BDE81040FEF7B2BB10BD0000B2
:101F10000054004058070020A08601000C4810B56E
:101F20000A4901604FF4E1314160002181600C22D7
:101F3000C160C0E904128161C161FFF7D0FB0028D4
:101F400003D0BDE81040FEF793BB10BD0038014040
:101F5000AC070020FEE7FEE710B5502080F31188A3
:101F6000BFF34F8FBFF36F8F01F0ECFE18B1044940
:101F70004FF080500860002080F3118810BD0000F1
:101F800004ED00E030B58FB028216846FEF761F916
:101F900014210AA8FEF75DF901210804CDE900101B
:101FA0000024029402250491CDE907504FF4E0107B
:101FB00009906846FFF7DCF808B172B6FEE70F201B
:101FC000CDE90A054FF48060CDE90C4002210AA852
:101FD0000E94FEF7D1FF002801D072B6FEE70FB0D5
:101FE00030BD70470148FFF7BABA0000F40700207F
:101FF000F0B502681C4B1D4D1D4E1E4F1E4C4FF080
:10200000804C984209D0A04207D0604505D0A84234
:1020100003D0B04201D0B84204D122F0700E4A6819
:1020200042EA0E02984209D0A04207D0604505D08E
:10203000A84203D0B04201D0B84203D122F4407587
:10204000CA682A434D6922F080022A4302608A68E6
:10205000C2620A688262984201D0A04201D1096935
:10206000016301214161F0BD002C014000040040EA
:1020700000080040000C00400034014070470000A0
:1020800070B5044600680169E26821F440511143CB
:1020900001612169A0680843616908432168CA6831
:1020A00041F20C639A430243CA6020684169A26905
:1020B00021F44071114341611E492068884202D1D8
:1020C000FFF720F801E0FFF70DF800EBC00101EB8E
:1020D0000012606864218000B2FBF0F3B3FBF1F3FF
:1020E0006FF018067343B2FBF0F5B2FBF0F605EBA8
:1020F0008305322303EB0515B5FBF1F5B6FBF1F6CD
:1021000005F0F00505EB0615B2FBF0F6B2FBF0F0BA
:10211000B0FBF1F06FF01802504306EB800003EBC8
:102120000010B0FBF1F0216800F00F002844886037
:1021300070BD0000003801402DE9F0419846174677
:102140000E460446069D27E0681C25D02DB1FEF7FB
:10215000A5FBA0EB0800A8421ED920680C3050E86F
:10216000001F21F4D07140E80012002AF5D1206848
:10217000143050E8001F21F0010140E80012002A4D
:10218000F5D1202084F8410084F84200002084F832
:1021900040000320BDE8F0812068006836EA0000B6
:1021A00004D00020B842CFD00020F3E70120F9E7A7
:1021B000FEE700000FB4054B10B503A9044A0298CE
:1021C00000F028F810BC5DF814FB00007926000828
:1021D000AC0000200907090E002804DB00F1E02014
:1021E00080F80014704700F00F0000F1E02080F844
:1021F000141D704702E008C8121F08C1002AFAD156
:1022000070477047002001E001C1121F002AFBD176
:10221000704700002DE9FF4F8DB00F4605460026A0
:1022200006E025280BD0DDE90F1290476D1C761CC7
:1022300028780028F5D111B03046BDE8F08F002491
:10224000A246A1460122EC4900E0044315F8013FF3
:10225000203B02FA03F00842F7D128782A2810D050
:102260006FF02F022878A0F13001092914D80AEB69
:102270008A0102EB410144F0020400EB010A6D1CEB
:10228000F0E701CF5FEA000A03D544F40054CAF135
:10229000000A44F002046D1C28782E2817D115F886
:1022A000010F44F004042A280ED06FF02F02287882
:1022B000A0F1300109290AD809EB890102EB41019B
:1022C00000EB01096D1CF2E757F8049B6D1C2878A0
:1022D0006C280FD006DC4C2817D068280DD06A284F
:1022E00014D104E0742810D07A280FD10DE044F402
:1022F00000140AE044F4801401E044F440146978C6
:10230000814202D104F580146D1C6D1C2A786E2A5E
:102310001FD00CDC632A31D004DC002A8BD0582A71
:1023200011D1A3E0642A68D0692A0CD165E0732A30
:102330002ED004DC6F2A73D0702A04D19BE0752A5A
:102340006FD0782A6ED01046DDE90F129047761CC8
:1023500050E1C4F30250022806D0032809D0042813
:1023600001CF09D0066045E101CFF117C0E9006156
:1023700040E101CF06803DE106703BE117F8040B18
:102380008DF8000000208DF80100EB46012003E0ED
:1023900057F804BB4FF0FF3061074FF0000102D443
:1023A0000DE008F10101884649450FDA8045F8DB68
:1023B0001BF808100029F4D108E008F10101884653
:1023C0008142FADB1BF808100029F6D1DDE90F2362
:1023D000AAEB08008146214600F036F9304400EBB4
:1023E000080604E0DDE90F121BF8010B9047B8F175
:1023F0000108F7D221464846F7E00A21C4F3025308
:102400004FF0000B0891022B04D001CFC117032B12
:1024100009D00AE0FF1D27F00707F7E8020108E0EE
:1024200032E01FE020E000B2C117042B01D140B21E
:10243000C117031E71F1000307DA4FF0000CD0EB57
:102440000C006CEB01012D2302E0230504D52B23A6
:102450008DF82430012303E0E30701D02023F7E7C0
:10246000984658E00A2110E010210EE010204FF0AD
:10247000000B08900CE010214FF0000B44F0040416
:102480004FF00809089103E008214FF0000B089174
:10249000C4F30253022B04D001CF0021032B06D03A
:1024A00006E0FF1D27F00707F7E8020103E080B20E
:1024B000042B00D1C0B24FF0000823072BD5702A9F
:1024C00007D0DDF820C08CF0100C5CEA0B0C05D0B6
:1024D0000EE040238DF82430012308E050EA010388
:1024E00006D030238DF824308DF82520022398461D
:1024F000DDF820C08CF0080C5CEA0B0C0BD150EA24
:10250000010301D1630706D530238DF824304FF045
:102510000108A9F10109582A04D038A20B9208AA8F
:102520000A920BE03AA2F9E75B46089AFDF743FFEF
:102530000B9B9B5C0A9A521E0A92137050EA01028E
:10254000F2D10A98ADEB000000F1200B600702D534
:1025500024F4803401E04FF00109D94502DDA9EBF4
:102560000B0000E0002000EB0B0141440890AAEBB7
:10257000010AE00306D4DDE90F232146504600F0AE
:1025800063F806444FF0000908E009A911F80900B2
:10259000DDE90F12904709F10109761CC145F4DB12
:1025A000E0030CD5DDE90F232146504600F04CF83E
:1025B000064404E0DDE90F1230209047761C0899AC
:1025C000481E08900029F5DC08E00A980A9900786E
:1025D000491C0A91DDE90F129047761CBBF10001FE
:1025E000ABF1010BF1DC21465046DDE90F2300F091
:1025F00019F806446D1C1BE60928010030313233FE
:10260000343536373839616263646566000000002E
:102610003031323334353637383941424344454618
:10262000000000002DE9F041044600251E46174633
:10263000880404D405E039462020B0476D1C641E90
:10264000F9D52846BDE8F0812DE9F0410446002582
:102650001E469046C80301D5302700E02027880495
:1026600004D505E041463846B0476D1C641EF9D5D7
:102670002846BDE8F081000013B54FF6FF73012234
:1026800069460248FFF796F800981CBDAC07002089
:10269000FEF7C2FBFFF776FCFFF7E0FBFFF73EFC1F
:1026A000FFF71CFCFFF784FB00F00EF8FEE7014685
:1026B0000020842900D0C81C704710B500B9012043
:1026C00000F004FE002010BD10B500F0BBFE00209D
:1026D00010BD38B5D0E9011204683AB1C3682BB116
:1026E00000200090204600F09FFF38BD2046BDE846
:1026F0003840002200F074BF38B543684BB101295F
:1027000009D10320002200901146012000F08CFF27
:1027100038BD012901D0002038BD0322002101204D
:1027200000F05EFF040004D000231A46194600F0B2
:10273000F3FF204638BD7FB50D4604464169B0F928
:10274000080081B1A16971B1FFF7B1FFD4E90512A9
:102750008DE80700D4E900102B46226901F0B3FA96
:10276000039004B070BDFFF7A2FF03A9CDE90001FB
:10277000208A2B4682B2D4E9001001F077FA0128B2
:1027800001D00020EDE70398EBE700001CB511C86D
:102790006CB1CDE90004012907D0002013460246A0
:1027A000012109A001F07EFC1CBD0120F6E700908C
:1027B000012907D0002013460246012102A001F0A2
:1027C00057FC1CBD0120F6E7000000002DE9F04198
:1027D0001A4C0F46054666692168002081F85200B0
:1027E0002068001D00F042FC38B9206890F82C10D9
:1027F00001208840A1698143A161681C07D137B1DC
:102800002168BDE8F0410E48091D00F07FBC20683A
:102810003544B5424560216805D2A068BDE8F04165
:10282000091D00F05BBC6068091D00F057FC206BBF
:10283000854200D22563BDE8F08100003800002009
:10284000580900202DE9F041054600F06BFC2E4CA4
:102850002069401C206120682C4F10B1E06940B312
:102860002DE025602069012829D1002606EB86008D
:1028700007EB800000F024FC761C072EF6D32348DB
:102880008C3000F01DFC2148A03000F019FC1F48DE
:10289000B43000F015FC1D48C83000F011FC1B4896
:1028A000DC3000F00DFC19488C3060601430A06002
:1028B00005E02068E96AC06A884200D82560E06ABD
:1028C000401CE062E96A0120A26988401043A061CF
:1028D00001EB810007EB8000291D00F017FC00F0E0
:1028E00041FCE06900280CD02068E96AC06A88428F
:1028F00007D207494FF080500860BFF34F8FBFF3F6
:102900006F8FBDE8F0810000380000207C080020B7
:1029100004ED00E038B500F005FC104CA068C8B923
:102920000F4800F0CDFB0E48143000F0C9FB0C48F6
:102930002060143060600A4B00202833009003F1BF
:1029400048020C210A2000F06FFEA06010B105A122
:1029500000F086FCBDE8384000F004BC74000020A4
:102960006C090020546D72510000000030B4026CFC
:102970000B46002A0BD0C1681144C1604468A142D3
:1029800001D30168C16030BC1846FDF749BC30BCBA
:1029900070472DE9F041856B174604460026026C0E
:1029A00082B1C7B1E068FDF73BFCE168206C091A11
:1029B000E1602268914202D26168081AE060022F49
:1029C00016D017E02068A8B9606801F01FFA064623
:1029D000002060600EE0A068FDF722FC216CA0687A
:1029E0000844A0606168884204D32068A06001E0C8
:1029F00005B16D1E6D1CA5633046BDE8F08110B5B4
:102A0000044690F8510058B101280CD002280FD08C
:102A1000502080F31188BFF34F8FBFF36F8FFEE715
:102A2000206B00F0B3FB2046BDE8104000F0AEBBC9
:102A300010BD000010484FF44061420706D0C01D91
:102A40000D4920F00700411AC1F540610B4A0023EF
:102A50000144C2E900030839103A21F0070111606E
:102A60004B600B600B1AC0E9001393604FF00040FD
:102A70005360D06070470000540A00209800002086
:102A8000144E154CA6F1C8074FF08058DFF84C9053
:102A900012E000BF00F046FBF068C568281D00F09A
:102AA000E5FA2069401E2061E068401EE06000F009
:102AB00059FB2846FFF7A3FFE0680028EAD13868F1
:102AC0000128F9D9C9F80080BFF34F8FBFF36F8F8A
:102AD000F2E70000440900203800002004ED00E087
:102AE0000346009829B10260C0E90F31012100F0CE
:102AF000CFBD0060F8E72DE9F0470E46DDE9098417
:102B00001746824691009946089DA522206BFDF745
:102B100099FB6FF00301206B01EB8701084420F063
:102B20000707780707D0502080F31188BFF34F8F35
:102B3000BFF36F8FFEE72218315C82F83410315CEE
:102B400011B1401C1028F6D3002684F84360072DED
:102B500000D30625E562C4E91156201D00F0BBFA3A
:102B600004F1180000F0B7FA2461C5F107006462AF
:102B7000A061E66484F8506084F852604A46514689
:102B8000384600F061FA2060B8F1000F01D0C8F8B3
:102B90000040BDE8F0872DE9F0471E46DDE90894C6
:102BA00017460D0080460ED0002C14D0FFF7B2FE61
:102BB000C4F80080C4E90657C4E90869201DBDE8CF
:102BC000F04700F088BA502080F31188BFF34F8F90
:102BD000BFF36F8FFEE7BDE8F087000030B5114905
:102BE00000E011460A688242FBD34B685C188442BD
:102BF00003D1406818444860084643681C18944252
:102C000009D1084C103C2468A24209D052681A44E9
:102C100042600A6812680260814200D0086030BDDC
:102C20000460F9E79800002070B5002441600B4D66
:102C30000061914206D8D11A8269914206D2011DE3
:102C4000686807E09A4203D2994201D3012403E065
:102C5000011D286800F042FA204670BD7400002073
:102C600010B5044600F05EFAA06B28B15FF00004D6
:102C700000F078FA204610BD0124F9E730B587B09E
:102C80002C4D4EE0049800284BDB069C606910B187
:102C9000201D00F0EBF902A800F0B8F802460498F5
:102CA0000A283ED2DFE800F00505053D2637050578
:102CB0003D260598A169034601442046FFF7B4FF6D
:102CC00000B3616A20468847E069012829D10020C5
:102CD00000900598A169002342181946204601F08A
:102CE00029FA78B9502080F31188BFF34F8FBFF3D2
:102CF0006F8FFEE70598A06128B181181346204622
:102D0000FFF792FF0DE0502080F31188BFF34F8F43
:102D1000BFF36F8FFEE794F8280010B9204600F04B
:102D200035FA002204A9A86800F004FE0028A9D101
:102D300007B030BD740000202DE9FC410F46054668
:102D400000F0C4FB01A800F061F80446019818B136
:102D500001F02CF9BDE8FC81224EAFB1706800682B
:102D6000A8B30027291B3A46B06800F08DFA01F09D
:102D70001DF90028EED11C494FF080500860BFF3C8
:102D80004F8FBFF36F8FE5E7A542EBD801F00EF947
:102D900030682746C068C468201D00F067F9E06904
:102DA000012810D1A0692B4641193A462046FFF769
:102DB0003BFF40B100200346014600902A462046D2
:102DC00001F0B8F920B1616A20468847C2E707E000
:102DD000502080F31188BFF34F8FBFF36F8FFEE752
:102DE0000127BFE77400002004ED00E006484168B9
:102DF000096829B14168C968C968496801637047B1
:102E00004FF0FF31FAE700003800002070B50546AA
:102E100000F092FF064E04463069844203D200F06F
:102E200009F8012000E0002028602046346170BDD0
:102E300074000020F8B5194D1FE0C068C46806682A
:102E4000201D00F013F9616A20468847E0690128D7
:102E500013D1A0693044B04206D924616060211DBD
:102E6000286800F03BF908E0002003460146009086
:102E70003246204601F05EF938B128680168002921
:102E8000DBD16968C5E90010F8BD502080F31188D6
:102E9000BFF34F8FBFF36F8FFEE700007400002079
:102EA00008484068401C4FF0500080F3118804D05F
:102EB000BFF34F8FBFF36F8FFEE7BFF34F8FBFF3AB
:102EC0006F8FFEE7A0000020074C2068016841B129
:102ED000C0680021D0F80000FFF72EFFFFF7CEFEFC
:102EE000F3E701210020F7E7740000202DE9F0410D
:102EF000044600F017F994F9455004F1240609E05E
:102F0000606A48B1304601F017F808B100F00CFAD9
:102F10006D1E6DB2002DF3DC4FF0FF3684F8456076
:102F200000F020F900F0FEF894F9445004F1100785
:102F300009E0206948B1384600F0FEFF08B100F012
:102F4000F3F96D1E6DB2002DF3DC84F84460BDE82A
:102F5000F04100F007B900002DE9F04105460027D7
:102F600000F0B4FA314E306808B9FFF763FDF0683D
:102F700005424BD1C5B3083568070ED005F00700F0
:102F8000C0F108000544680707D0502080F311887D
:102F9000BFF34F8FBFF36F8FFEE72DB3706885428D
:102FA00034D82248103001460C6801E020460C4617
:102FB0006168A94202D221680029F7D131688C42A8
:102FC00024D007682168016060680837411B102918
:102FD0000FD96019420708D0502080F31188BFF341
:102FE0004F8FBFF36F8FFEE710E041606560FFF722
:102FF000F5FD61687068401A7060B268904200D256
:10300000B060F06801430020C4E9000100F0CEFF89
:10301000780707D0502080F31188BFF34F8FBFF39C
:103020006F8FFEE73846BDE8F08100008800002081
:103030000449086818B10868826C521C82640868E8
:10304000704700003800002010B5031F4FF0807457
:103050001C601B1F21F001011960191F024B0B603E
:10306000143940380A6010BDA12E0008D0E90132A1
:1030700001699A60D0E901235A604A68824201D10D
:1030800082684A60002202610868401E0860086881
:1030900070470000034B036003F154000860802078
:1030A00010607047B0000020044B036003F154002F
:1030B00008604FF480701060704700000403002027
:1030C00000F108014FF0FF32C0E90112C160016157
:1030D00000210160704700210161704730B50B6825
:1030E0005A1C02D000F1080202E0026904E0224604
:1030F000546825689D42FAD953684B6099608A608C
:10310000516008610168491C016030BD42684A6035
:1031100093688B6093685960916008610168491CED
:1031200001607047502080F31188BFF34F8FBFF3C9
:103130006F8F0A494868401C486001280CD1084834
:10314000006810F0FF0F07D0502080F31188BFF304
:103150004F8FBFF36F8FFEE770470000A000002085
:1031600004ED00E00849486828B1401E486001D1DC
:1031700080F311887047502080F31188BFF34F8F80
:10318000BFF36F8FFEE70000A000002070B500289D
:1031900027D0144DA0F108046168E868014207D106
:1031A000502080F31188BFF34F8FBFF36F8FFEE77E
:1031B00022683AB1502080F31188BFF34F8FBFF3DC
:1031C0006F8FFEE78143616000F080F96068696895
:1031D000084468602046FFF701FDBDE8704000F03C
:1031E000E5BE70BD880000204FF0E02000210161A5
:1031F000816105494FF47A720968B1FBF2F1491E09
:1032000041610721016170473400002010B5FCF7CF
:10321000E1FF114910280ED300F1E02090F8F003EF
:103220000A78904207D2502080F31188BFF34F8F65
:10323000BFF36F8FFEE709480068896800F4E0601B
:10324000884207D9502080F31188BFF34F8FBFF316
:103250006F8FFEE710BD0000A00000200CED00E025
:1032600010B5084B002200BF53F832401CB1521C6D
:10327000082AF9D310BD43F8321003EBC2014860AD
:1032800010BD00003C08002070B515460E460446EF
:10329000FFF748FF94F944100020491C01D184F83D
:1032A000440094F94510491C01D184F84500FFF70A
:1032B00059FFA06B28B92A46314604F1240000F0DA
:1032C00051F82046BDE87040FFF710BE10B502006F
:1032D00014D00F48806B38B1502080F31188BFF3B1
:1032E0004F8FBFF36F8FFEE700F0F0F8002110461C
:1032F000FFF76CFA00F05AFE002807D105494FF09D
:1033000080500860BFF34F8FBFF36F8F10BD000078
:103310003800002004ED00E002498A6A0260496931
:103320004160704738000020014901204862704721
:103330003800002010B50C4650B109490968183111
:10334000FFF7CCFE2046BDE810400121FFF73EBA52
:10335000502080F31188BFF34F8FBFF36F8FFEE7CC
:103360003800002070B514460D4668B10A49096856
:103370001831FFF7CBFE0CB14FF0FF352146284640
:10338000BDE87040FFF722BA502080F31188BFF3E8
:103390004F8FBFF36F8FFEE73800002070B5040039
:1033A0004BD0A26CA2B1606C884200D30146E06AA7
:1033B000884242D0012A40D1204D2A6894420FD140
:1033C000502080F31188BFF34F8FBFF36F8FFEE75C
:1033D000502080F31188BFF34F8FBFF36F8FFEE74C
:1033E000E162A269002A02DBC1F10701A161144E6A
:1033F00000EB8000616906EB800081421DD1201D39
:10340000FFF734FE012150B9E06A00EB800256F864
:10341000222022B9AA6901FA00F08243AA61E06A77
:10342000AA6981401143A96100EB800006EB80008E
:10343000211DBDE87040FFF769BE70BD3800002057
:103440007C08002030B587B00024039405AA04A9A5
:1034500003A80494FFF71EFEDDE903010094CDE903
:103460000110002315A11748059A00F02CFC164DF9
:10347000002868631FD000F02DFE012809D0401CF1
:1034800019D1502080F31188BFF34F8FBFF36F8F96
:10349000FEE7502080F31188BFF34F8FBFF36F8F8B
:1034A0004FF0FF3028630120E8616C6107B0BDE890
:1034B000304000F041B807B030BD000049444C45F1
:1034C00000000000812A0008380000200248816BBB
:1034D000491C816370470000380000201448816B4C
:1034E00011B1012141627047002141628169B1FA45
:1034F00081F1C1F11F0101EB81020E4951F8223027
:103500006BB101EB820101F108034A6852684A601D
:103510009A4201D152684A60D168016070475020D8
:1035200080F31188BFF34F8FBFF36F8FFEE700006A
:10353000380000207C0800201CB52649087801903E
:10354000FF20087008788DF800009DF800009DF8B5
:10355000002000F0F000904207D0502080F3118846
:10356000BFF34F8FBFF36F8FFEE79DF800001A4B3C
:1035700000F0500018700720986005E09DF80020CA
:1035800052008DF80020401E9DF800201206F5D450
:103590009860032807D0502080F31188BFF34F8F25
:1035A000BFF36F8FFEE74FF440709860019808708A
:1035B0000A48016841F470010160016841F07041FE
:1035C0000160FFF711FE00205860FCF7CDFD0020E0
:1035D0001CBD000000E400E0A000002020ED00E0A1
:1035E000F8B517460E46050014D0DEB105FB06F00F
:1035F0004830FFF7B1FC04000AD0002084F84600F0
:1036000004F148023B46314628460094FFF768FA29
:103610002046F8BD502080F31188BFF34F8FBFF3D1
:103620006F8FFEE70020E3E738B5049D18B153B172
:10363000CAB181B120E0502080F31188BFF34F8FD1
:10364000BFF36F8FFEE7502080F31188BFF34F8FD9
:10365000BFF36F8FFEE7502080F31188BFF34F8FC9
:10366000BFF36F8FFEE739B1502080F31188BFF3AD
:103670004F8FBFF36F8FFEE748241C46012384F869
:1036800046302B460094FFF72BFA204638BD000049
:1036900070B50D46040025D0FFF744FDD4E90F2096
:1036A000216802FB001161600021A1632168A16013
:1036B0000A46D4E90F01401E00FB0121E1602146CA
:1036C0004FF0FF3001F8440F487004F110008DB145
:1036D000FFF7F6FC04F12400FFF7F2FCFFF742FDD0
:1036E000012070BD502080F31188BFF34F8FBFF3CE
:1036F0006F8FFEE721690029F0D000F01DFC002843
:10370000ECD004494FF080500860BFF34F8FBFF3F7
:103710006F8FE3E704ED00E02DE9FF4782B01D461F
:103720008A464FF00008040003D0BAF1000F08D019
:1037300011E0502080F31188BFF34F8FBFF36F8FDC
:10374000FEE7206C38B1502080F31188BFF34F8F13
:10375000BFF36F8FFEE7022D0AD1E06B012807D07F
:10376000502080F31188BFF34F8FBFF36F8FFEE7B8
:1037700000F0D4FA3F4F4FF000094FF0805648B99F
:10378000049838B1502080F31188BFF34F8FBFF3F6
:103790006F8FFEE7FFF7C6FCA06BE16B884207D393
:1037A000022D05D00498D0B1B8F1000F1AD01EE058
:1037B0002A4651462046FFF7ECF8616A19B104F138
:1037C000240000F0B9FB20B13E60BFF34F8FBFF380
:1037D0006F8FFFF7C7FC012006B0BDE8F087FFF749
:1037E000C1FC22E06846FFF797FD4FF00108FFF7A4
:1037F000B9FCFFF76BFEFFF795FC94F94400401C01
:1038000001D184F8449094F94500401C01D184F81A
:103810004590FFF7A7FC04A9684600F0E3F930B132
:103820002046FFF763FB00F0C1FB0020D4E7FFF761
:1038300079FCA06BE16B884213D1FFF793FC04F194
:1038400010000499FFF776FD2046FFF74FFB00F0CC
:10385000ADFB00289ED13E60BFF34F8FBFF36F8F4B
:1038600098E7FFF77FFC2046FFF740FB00F09EFB48
:1038700090E7000004ED00E02DE9F0471F46904678
:103880008946040003D0B9F1000F08D011E05020A0
:1038900080F31188BFF34F8FBFF36F8FFEE7206C6B
:1038A00038B1502080F31188BFF34F8FBFF36F8F73
:1038B000FEE7022F0AD1E06B012807D0502080F3E9
:1038C0001188BFF34F8FBFF36F8FFEE7FFF79EFCAA
:1038D0005020EFF3118680F31188BFF34F8FBFF3B1
:1038E0006F8FA06BE16B884206D3022F04D00020BB
:1038F00086F31188BDE8F08794F945503A46494669
:103900002046FFF746F8681C04D06D1C84F845502B
:103910000120EDE7606A0028FAD004F1240000F0ED
:103920000BFB0028F4D0B8F1000FF1D00121C8F84A
:103930000010EDE72DE9F747002683B08A46040022
:1039400003D0BAF1000F08D011E0502080F31188A5
:10395000BFF34F8FBFF36F8FFEE7206C38B150205D
:1039600080F31188BFF34F8FBFF36F8FFEE700F036
:10397000D5F9DFF8F4804FF000094FF0805748B9CF
:10398000059838B1502080F31188BFF34F8FBFF3F3
:103990006F8FFEE7FFF7C6FBA56BC5B1514620460A
:1039A000FEF7E4FF6D1EA563206950B104F110001D
:1039B00000F0C2FA28B1C8F80070BFF34F8FBFF310
:1039C0006F8FFFF7CFFB012006B0BDE8F0870598A9
:1039D00008B11EB106E0FFF7C5FB27E06846FFF718
:1039E0009BFC0126FFF7BEFBFFF770FDFFF79AFB7C
:1039F00094F94400401C01D184F8449094F94500A6
:103A0000401C01D184F84590FFF7ACFB05A968463E
:103A100000F0E8F8002820460AD0FFF767FA00F027
:103A2000C5FA2046FFF71CF90028B3D00020CBE7E9
:103A3000FFF716F990B104F124000599FFF77AFC1D
:103A40002046FFF753FA00F0B1FA0028A2D1C8F8D7
:103A50000070BFF34F8FBFF36F8F9BE72046FFF7D8
:103A600045FA00F0A3FA95E704ED00E02DE9F343F1
:103A7000002683B00400354609D0206C78B1502070
:103A800080F31188BFF34F8FBFF36F8FFEE7502095
:103A900080F31188BFF34F8FBFF36F8FFEE700F005
:103AA0003DF9DFF83C814FF000094FF0805748B9ED
:103AB000049838B1502080F31188BFF34F8FBFF3C3
:103AC0006F8FFEE7FFF72EFBA06BC8B1401EA0630F
:103AD000206810B9FFF7ACFA6060206950B104F1BA
:103AE000100000F029FA28B1C8F80070BFF34F8F1A
:103AF000BFF36F8FFFF736FB012005B0BDE8F08301
:103B0000049808B166B10FE03DB1502080F31188F0
:103B1000BFF34F8FBFF36F8FFEE7FFF723FB5DE02F
:103B20006846FFF7F9FB0126FFF71CFBFFF7CEFC09
:103B3000FFF7F8FA94F94400401C01D184F844904E
:103B400094F94500401C01D184F84590FFF70AFB29
:103B500004A9684600F046F80028204612D0FFF776
:103B6000C5F900F023FA2046FFF77AF80028A9D01B
:103B70009DB3FFF7D7FA606A50B3206B0068C0F1BD
:103B8000070126E0FFF76CF8E0B1206838B9FFF7CD
:103B9000C9FA606800F086F90546FFF7E3FA04F118
:103BA00024000499FFF7C6FB2046FFF79FF900F0B9
:103BB000FDF9002886D1C8F80070BFF34F8FBFF31E
:103BC0006F8F7FE72046FFF791F900F0EFF979E773
:103BD00000216068FFF7E2FB9FE7FFE700208CE72A
:103BE00004ED00E02DE9F0410C4605000FD0B4B122
:103BF000FFF798FA1C4B5A696E681868911B0027EA
:103C000090F8520098B1186880F852701AE050206D
:103C100080F31188BFF34F8FBFF36F8FFEE7502003
:103C200080F31188BFF34F8FBFF36F8FFEE72068DB
:103C3000B0F1FF3F08D0D5F800C09B6A9C4509D081
:103C4000964207D8012400E00024FFF78BFA2046B3
:103C5000BDE8F081884205D9401A20602846FFF768
:103C60005BFBF1E72760EDE7380000202DE9FF5FFF
:103C70008346DDE90E87994616468A469000FFF78F
:103C80006BF905001CD05420FFF766F9040014D02E
:103C90000020256384F85100CDE90240CDE900877A
:103CA0004B46324651465846FEF725FF2046FEF762
:103CB000C9FD012004B0BDE8F09F2846FFF766FA71
:103CC0004FF0FF30F6E7F0B585B0DDE90B640A9DF3
:103CD000A6B1DCB1542700972663022684F8516010
:103CE000002604AFCDE90246CDE90057FEF703FFF9
:103CF0002046FEF7A7FD049805B0F0BD502080F3E4
:103D00001188BFF34F8FBFF36F8FFEE7502080F312
:103D10001188BFF34F8FBFF36F8FFEE70548C1696E
:103D200019B1806B18B10020704701207047022044
:103D300070470000380000200148406970470000CB
:103D4000380000202DE9F0412E4C0027A06B40B137
:103D5000206A401C2062606A00B101273846BDE835
:103D6000F0816669761C666113D16068006838B1BD
:103D7000502080F31188BFF34F8FBFF36F8FFEE7A2
:103D80006068A1686160A060A06A401CA062FFF743
:103D90002DF8206BDFF87080864209D360680068D8
:103DA00080B16068C068C568686886420DD22063CB
:103DB0002068C06A00EB800158F821000128CAD9A8
:103DC0000127C8E74FF0FF30F1E7281DFFF74EF954
:103DD000A86A18B105F11800FFF748F9E86A01214F
:103DE000A26981401143A16100EB800108EB8100D1
:103DF000291DFFF78BF9E86A2168C96A8842CDD38B
:103E00000127CBE7380000207C08002070B50400B3
:103E10004FF0000140D0214D2868844207D0502047
:103E200080F31188BFF34F8FBFF36F8FFEE7A06C55
:103E300038B1401EA064636CE26A9A422CD040B153
:103E40002AE0502080F31188BFF34F8FBFF36F8FAC
:103E5000FEE7201DFFF70AF9114A012150B9E06A77
:103E600000EB800352F8233023B9AB6901FA00F06C
:103E70008343AB61606CE062C0F10700A061E06A5F
:103E8000AB6981401943A96100EB800002EB80001F
:103E9000211DFFF73BF90121084670BD38000020C5
:103EA0007C08002070B504004FF0000038D0204D91
:103EB000E16A2A68D26A914233D2A069002804DB01
:103EC0002868C06AC0F10700A0611A4E01EB8101A9
:103ED000606906EB810188421ED1201DFFF7C6F8FC
:103EE000012150B9E06A00EB800256F8222022B985
:103EF000AA6901FA00F08243AA612868C06AE062F8
:103F0000AA6981401143A96100EB800006EB8000A3
:103F1000211DFFF7FBF802E02868C06AE06201207B
:103F200070BD616C2A68D26A9142F8D370BD0000FE
:103F3000380000207C0800202DE9F041C068C468EA
:103F4000ACB104F118000746FFF790F8154DA86BC7
:103F50000126A0B139461448FFF7D8F8E06A29686D
:103F6000C96A88421CD901206E62BDE8F0815020E8
:103F700080F31188BFF34F8FBFF36F8FFEE7201DD3
:103F8000FFF774F8E16AAA6906FA01F01043A86124
:103F900001EB81000449B43901EB8000211DDBE70E
:103FA0000020E2E738000020300900202DE9F0472A
:103FB0002C4D00242746A86B38B1FFF7B3F8A86B47
:103FC000401EA863A86B40B146E0502080F31188E2
:103FD000BFF34F8FBFF36F8FFEE72969224E012099
:103FE000D1B3A6F1B40980463068E8B1F068C4687E
:103FF00004F11800FFF73AF8201DFFF737F8E06AE0
:10400000AA6908FA00F11143A96100EB800109EBEC
:104010008100211DFFF77AF8E06A2968C96A8842A1
:10402000E2D3C5F82480DFE70CB1FEF7DFFE2C6A8F
:1040300044B14646FFF786FE00B16E62641EF9D1B8
:1040400000202862686A38B10849012738070860EB
:10405000BFF34F8FBFF36F8FFFF784F83846BDE88B
:10406000F0870000380000203009002004ED00E057
:104070002DE9FC4781461E46174688462C200A9D9E
:10408000FEF76AFF04000AD0CDE9005433463A46F1
:1040900041464846FEF77FFD002084F82800204670
:1040A000BDE8FC877CB52C26DDE90654009644B1BA
:1040B000CDE90054FEF76FFD012084F8280020466A
:1040C0007CBD502080F31188BFF34F8FBFF36F8FFB
:1040D000FEE7000010B586B0FEF71CFC114CA0688E
:1040E000B8B100200390049005AA04A903A8FEF724
:1040F000DBFFDDE9032102208DE8070000230AA190
:104100000B48059AFFF7DFFDE06010B106B0012013
:1041100010BD502080F31188BFF34F8FBFF36F8F16
:10412000FEE7000074000020546D72205376630097
:10413000C92E0008FEB51E4613460200089D4FF02A
:10414000000014D0124CA768002F0FD0CDE9001347
:104150000292062915DAFFF7E1FD02284FF000036D
:104160000DD000226946A068FFF7D6FAFEBD5020A8
:1041700080F31188BFF34F8FBFF36F8FFEE72A469E
:10418000F0E70023324669463846FFF775FBFEBD6F
:10419000740000207D2000080000000010000000D6
:1041A00004000000000000000000000010000000FB
:1041B000010000000000000000000000484200086C
:1041C00085050008000000000000000080000000DD
:1041D00000000000000000003C420008351D0008FF
:1041E000000000000000000080000000000000004F
:1041F0000000000054420008A51C0008FDFF00005C
:10420000000000008000000000000000000000002E
:10421000010202030405060708090A0B0C0D0E0F24
:104220001010000000000000000001020304060757
:104230000809000000000102030400004C45445F2F
:104240005441534B000000004248313735305F5431
:1042500061736B00494E464F5F5461736B00000001
:104260008042000800000020B0000000F421000897
:1042700030430008B0000020A81900000422000804
:10428000000000000000000000000000000000002E
:10429000000000000000000000000000000000001E
:1042A00000000000000000000100000010000000FD
:1042B000000000000024F4000000000000000000E6
:1042C00000000000000000000000000000000000EE
:1042D00000000000000000000000000000000000DE
:1042E00000000000000000000000000000000000CE
:1042F00000000000000000000000000000000000BE
:1043000000000000000000000000000000000000AD
:10431000000000000000000000000000000000009D
:1043200000000000AAAAAAAA0000000000000000E5
:0400000508000131BD
:00000001FF
