:020000040800F2
:10000000181F0020DD0100089F310008E7230008C9
:100010009D310008D5090008413B000800000000A0
:100020000000000000000000000000004501000882
:10003000D709000800000000890100087D3700088A
:10004000F7010008F7010008F7010008F7010008B0
:10005000F7010008F7010008F7010008F7010008A0
:10006000F7010008F7010008F7010008F701000890
:10007000F7010008F7010008F7010008F701000880
:10008000F7010008F7010008F7010008F701000870
:10009000F7010008F7010008F7010008F701000860
:1000A000F701000809380008F7010008F701000807
:1000B000F7010008F7010008F7010008F701000840
:1000C000F7010008F7010008F7010008F701000830
:1000D000F7010008F7010008F53A0008F7010008E9
:1000E000F7010008F7010008F7010008F701000810
:1000F000F7010008F7010008F7010008F701000800
:10010000F7010008F7010008F7010008F7010008EF
:10011000F7010008F7010008F7010008F7010008DF
:10012000F7010008F7010008F7010008F7010008CF
:10013000DFF80CD000F0A6FB004800477945000826
:10014000181F0020224B19680868B0E8F00F80F3F0
:100150000988BFF36F8F4FF0000080F311884EF0D5
:100160000D0E70470000000006480068006880F32C
:10017000088862B661B6BFF34F8FBFF36F8F00DFA1
:1001800000BF00BF08ED00E0EFF30980BFF36F8F01
:100190000F4B1A6820E9F00F106008B54FF05000BF
:1001A00080F31188BFF34F8FBFF36F8F05F044F9D1
:1001B0004FF0000080F31188BDE808401968086816
:1001C000B0E8F00F80F30988BFF36F8F704700BF6E
:1001D00038000020EFF30580704700000648804794
:1001E00006480047FEE7FEE7FEE7FEE7FEE7FEE71C
:1001F000FEE7FEE7FEE7FEE70738000831010008EA
:10020000202A04DB203A21FA02F00021704721FA6B
:1002100002F3D040C2F120029140084319467047D2
:1002200040EA01039B0703D009E008C9121F08C078
:10023000042AFAD203E011F8013B00F8013B521EF8
:10024000F9D27047D2B201E000F8012B491EFBD26F
:1002500070470022F6E710B513460A4604461946D1
:10026000FFF7F0FF204610BD421E12F8013F002BA1
:10027000FBD111F8013B02F8013B002BF9D170478B
:1002800030B505462A460B4612F8010B13F8014B10
:1002900008B1A042F8D01CB1002802D06D1CF1E7D3
:1002A000284630BDCAB2401E10F8011F8A4202D053
:1002B0000029F9D100207047421C10F8011B0029C9
:1002C000FBD1801A704710B5044600E0401C03784B
:1002D000002BFBD100E0401C521E04D311F8013B5F
:1002E0000370002BF7D100210170204610BD2DE9CD
:1002F000F04D81EA030404F0004B21F00045144660
:100300004FF0000A23F0004150EA050220D054EAE1
:1003100001021DD0C5F30A570246C5F31303C1F30A
:100320001300C1F30A5640F4801543F48013A7EB81
:100330000608101BD64608F2FD3873EB050002D301
:1003400008F1010801E092185B41B8F1000F03DAEF
:1003500000200146BDE8F08D00204FF480110646D4
:1003600084460EE0171B73EB050705D3121B63EBE6
:10037000050306434CEA010C49084FEA3000921885
:100380005B4150EA0107EDD152EA030012D082EA44
:10039000040083EA0501084305D0101BAB4106D2D7
:1003A0000122002306E000224FF0004302E06FF03C
:1003B000010253101AEB06004CEB085110EB0A0037
:1003C00041EB0B01BDE8F04D00F0B6B8C10F80EA7B
:1003D000E0700844CA079623002100F07FB800F0BF
:1003E000004230F000400AD0C10D01F56071C0F349
:1003F000160042EA0151C20840071143704700202D
:100400000146704701F0004330B421F0004150EA4A
:10041000010206D00A0DA2F56072C1F31301002A91
:1004200002DC30BC00207047440F44EAC104C10024
:10043000E01830BC00EBC25000F047B830B50B46B6
:10044000014600202022012409E021FA02F59D4204
:1004500005D303FA02F5491B04FA02F52844151ED8
:10046000A2F10102F1DC30BD2DE9F05F054600206C
:1004700092469B4688460646814640241BE0284615
:10048000414647462246FFF7BBFE53465A46C01A2E
:10049000914110D311461846224600F005FA2D1A54
:1004A00067EB01084F4622460120002100F0FCF9CD
:1004B00017EB00094E41201EA4F10104DFDC484681
:1004C00031462A464346BDE8F09F0029A8BF704741
:1004D000401C490008BF20F00100704710B4B0FA7A
:1004E00080FC00FA0CF050EA010404BF10BC704715
:1004F00049B1CCF1200421FA04F411FA0CF118BF2F
:10050000012121430843A3EB0C01CB1D4FEA0061FD
:100510004FEA102042BF002010BC704700EBC350D0
:1005200010440029A4BF10BC7047401C490008BFFC
:1005300020F0010010BC704710B5141E73F10004C8
:1005400008DA401C41F1000192185B411A4301D1C5
:1005500020F0010010BD2DE9F04D92469B4611B1EF
:10056000B1FA81F202E0B0FA80F22032904600F057
:100570009BF904460F4640EA0A0041EA0B01534644
:100580005A46084313D0114653EA010019D0C8F166
:1005900040025046FFF734FE05460E465046594687
:1005A000424600F081F9084305D0012004E02046CE
:1005B0003946BDE8F08D0020054346EAE0762C433D
:1005C00037430A986305E40AA0EB08000022FD0AFD
:1005D00044EA47540A3002D500200146E9E7010504
:1005E00010196941DDE9084500196941BDE8F04D80
:1005F000A2E72DE9FE4F804681EA0300C00F0C46BA
:10060000009021F0004123F00045B8EB0200A94121
:1006100005D24046214690461C460B46024623F032
:100620000040104347D0270DC7F30A00C3F30A5117
:100630000290401A019040286BDAC3F3130040F493
:10064000801B0098924620B10023D2EB030A63EB93
:100650000B0B01985946C0F14002504600F024F9B6
:1006600006460D4650465946019A00F02CF910EB0B
:1006700008006141002487EA115284EAE7731A43B3
:1006800040D0009A62B3019A012A4FEA075215DC62
:10069000001B61EB02014FF0004202EA0752CDE974
:1006A0000042001C41F5801132462B46FFF753FFF4
:1006B00003B0BDE8F08F40462146F9E7001B61EB2F
:1006C0000201001C41F5801300185B412018A2F5BF
:1006D000001747EB030140EAD570B6196D4111E0F0
:1006E0006D084FEA360645EAC0754FEA0752001B0F
:1006F00061EB0201001C41F5801149084FEA30000E
:100700000019514132462B4603B0BDE8F04FFFF7C8
:1007100013BF0098012240000023D0EB020263EBDC
:10072000E073009821464FEAE074B8EB000061EBFB
:100730000401E9E783F000435BE781F0004158E7FB
:100740002DE9FE4F81EA030404F0004421F000414A
:1007500000944FF0000B23F0004350EA01045ED0F8
:1007600052EA03045BD0C3F30A54C1F30A552C4484
:10077000A4F2F3340194A0FB0254C1F3130141F439
:100780008011C3F3130343F4801301FB024400FB05
:10079000034E840A970A44EA815447EA8357A4FB2C
:1007A000076802958D0A05FB07854FEA932C04FB29
:1007B0000C542705029D4FEA065847EA1637B5EB59
:1007C00008056EEB070C870E920E47EA811742EA86
:1007D0008312A7FB0201B6EB0B0164EB00042B0DA7
:1007E00043EA0C335E1844EB1C50DA465146E7FBF3
:1007F0000201C5F313044FEA0B3343EA14534FEAE3
:100800000432019C43EA0603A4F10C040294009C08
:10081000CDE900B4FFF79FFE03B0BDE8F08F0020E4
:100820000146F9E7C1F30A52C1F3130140F2FF3365
:1008300041F480119A4202DA00200146704740F2EA
:1008400033439A42A2F2334202DC5242FFF7D8BC51
:1008500000F02AB830B5041E71F1000404DB4FF03B
:100860000044404264EB0101141E73F1000405DBF7
:100870001C464FF00043524263EB0403994208BF09
:10088000904230BD064C074D06E0E06840F00103A1
:1008900094E8070098471034AC42F6D3FFF74CFCBD
:1008A000E461000804620008202A04DB203A00FA10
:1008B00002F1002070479140C2F1200320FA03F3B7
:1008C000194390407047202A06DBCB17203A41FAA3
:1008D00002F043EAE07306E041FA02F3D040C2F1CD
:1008E0002002914008431946704700001FB50020C0
:1008F00002900090019001F0C7FFC82000F0AAFA12
:100900005FF001048DF80C40012103A801F078FD8F
:1009100030B100BF9DF80C101AA003F045F9F1E7C3
:1009200010208DF80C00012103A801F069FD0028BA
:10093000F0D1C82000F08EFA0221684601F054FD83
:1009400018B11AA003F030F9DCE79DF800009DF81B
:10095000011001EB0020FFF739FDFFF740FD4FF0DC
:1009600033321A4BFFF7C3FCFFF74CFD02901848D7
:1009700001239A1E02A9006904F07CFE012003F005
:100980004BFEBFE74932435F4248313735305F4F56
:100990007065636F64655F57726974653A202532CC
:1009A00078204572726F720A000000004932435F7E
:1009B0004248313735305F446174615F526561642C
:1009C0003A20204572726F720A0000003333F33F01
:1009D00000000020FEE7704710B580210348FFF7B4
:1009E00038FC03490020088010BD0000700A002078
:1009F0002000002010B5044600F05EF980B90C4AD2
:100A00000CA10E4803F09EF80DA10948FFF738FC31
:100A100030B13A21FFF746FC002800D0401C10BD41
:100A2000052000F017FA2046641EA4B2E4D210BDDF
:100A3000700A002025730D0A00000000080800203D
:100A40004950442C00000000334810B50068C168CC
:100A500041F02001C160FFF7BFFF30A1314803F032
:100A600071F802E0C82000F0F5F92FA12FA000F0E6
:100A7000DBF80028F6D12FA12A4803F063F82CA157
:100A80002FA000F0D1F8C82000F0E4F928A12FA091
:100A900000F0CAF8C82000F0DDF930A1214803F0C9
:100AA00051F802E0C82000F0D5F91FA12EA000F0F7
:100AB000BBF80028F6D130A11A4803F043F802E051
:100AC000C82000F0C7F918A12FA000F0ADF8002849
:100AD000F6D131A1134803F035F802E0C82000F048
:100AE000B9F930A131A000F09FF80028F6D137A164
:100AF0000C4803F027F802E0C82000F0ABF937A15A
:100B000038A000F091F80028F6D1BDE8104040A1CF
:100B1000044803F017B8000050080020302E204190
:100B2000540D0A00080800204F4B000041540D0AE4
:100B300000000000312E205253540D0A0000000026
:100B400041542B5253540D0A0000000041542B43D2
:100B50004950434C4F53450D0A000000322E2043AC
:100B6000574D4F44450D0A0041542B43574D4F44B8
:100B7000453D310D0A000000332E2041542B4357D0
:100B8000444843500D0A000041542B435744484306
:100B9000503D312C310D0A00342E2043574A41502C
:100BA0000D0A0000474F54204950000041542B4388
:100BB000574A41503D2241636532222C2231323363
:100BC000373830383037220D0A000000352E2043E8
:100BD000495053544152540D0A000000434F4E4EA9
:100BE0004543540041542B43495053544152543DC2
:100BF00022544350222C223138332E3233302E34BB
:100C0000302E3339222C363030320D0A00000000ED
:100C1000362E204553503832363620496E697420BE
:100C20004F4B0D0A0000000070B50E460546C82463
:100C3000FFF742FB82B229460B4802F0A3FF0EE009
:100C400000F03AF840B931460848FFF719FB18B1EF
:100C5000FFF7C2FE002070BD0A2000F0FBF8641E02
:100C6000E4B2EDD2012070BD50080020700A0020CF
:100C700030B589B00C460546FFF7AEFE224608A106
:100C8000684602F0A1FF0AA16846FFF7CDFF0028E1
:100C900004D122462946074802F074FF09B030BD4E
:100CA00041542B43495053454E443D25640D0A00A1
:100CB0003E000000500800200648018831B14288FB
:100CC000914205D1002101800846704701207047FC
:100CD0004180FBE72000002072B6FEE710B590F8D7
:100CE00021100022022905D00421816380F82020F0
:100CF000012010BD01680B6823F00E030B60016832
:100D00000B6823F001030B6090F84030C46B0121A5
:100D100001FA03F3636080F8211080F82020104668
:100D200010BD00002DE9F05F90F821100024022989
:100D300003D004218163012485E001680A6822F060
:100D40000E020A6001680A6822F001020A603F4E42
:100D50003E4FB215DFF8F4C0DFF8F090DFF8ECA0FA
:100D6000DFF8E8B0DFF8E4E00168783F130115022E
:100D7000ACF1640CA9F15009AAF13C0AABF1280BC3
:100D8000AEF1140E4FF48018B14227D9B9420ED0FB
:100D9000614512D049451DD0514518D0594518D04C
:100DA000714501D1424615E0294EB14201D10122DF
:100DB00010E0274E1436B14201D110220AE0244E31
:100DC0002836B14206D0224A3C32914201D11A461D
:100DD00000E02A461E49091F0A602BE0B94213D0E1
:100DE000614517D0494522D051451DD059451DD0E8
:100DF000714501D142461AE0B14202D14FF08072F2
:100E000015E0134EB14201D1012210E0104E14360C
:100E1000B14201D110220AE00D4E2836B14206D06F
:100E20000B4A3C32914201D11A4600E02A4607495A
:100E300080394A60012180F82110002180F82010BB
:100E4000416B01B188472046BDE8F09F8000024019
:100E50000804024070B5044600F010F90546601C15
:100E600002D004480078044400F008F9401BA04276
:100E7000FAD370BD280000202DE9F84FDFF8C891A3
:100E80000024A9F1040B23460F2709F1040AABF152
:100E9000040ED1E00125A54006EA0502AA4276D15A
:100EA000DFF8A8C14E68A6EB0C0866452BD00DDC18
:100EB000032E34D005DC36B3012E19D0022E2FD1EB
:100EC0001BE0112E16D0122E2AD119E0B8F5881F7A
:100ED00019D006DCB8F5803F15D0B8F5801F1FD1BA
:100EE00011E0B8F5001F0ED0B8F5041F18D10AE0C4
:100EF000CB6815E0CB681B1D12E0CB6808330FE010
:100F0000CB680C330CE08B682BB1012B4FF008033E
:100F100003D0456104E0042302E0056100E0002302
:100F2000FF2A01D8064601E000F104064FEA8405D5
:100F300001D9A5F12005D6F8008007FA05FC28EABA
:100F40000C0803FA05F548EA0508C6F800804D6864
:100F5000ED0070D53E4DAE6946F00106AE61AD695B
:100F600024F0030605F0010500953A4D06EB050C4B
:100F7000DCF80850A607360F07FA06F825EA080538
:100F8000DFF8D480404503D14FF0000825E052E05F
:100F9000DFF8C880404502D14FF001081DE0DFF8BE
:100FA000C080404502D14FF0020816E0DFF8B4805F
:100FB000404502D14FF003080FE0DFF8AC80404518
:100FC00002D14FF0040808E0DFF8A080404502D1CC
:100FD0004FF0050801E04FF0060808FA06F848EA65
:100FE0000508CCF808804D68D9F80060ED024D4640
:100FF00001D5164300E096432E604D68DAF8006094
:10100000AD02554601D5164300E096432E604D686B
:10101000DBF80060AD035D4601D5164300E0964362
:101020002E604D68DEF80060ED03754601D516436D
:1010300000E096432E60641C0A681646E2407FF486
:1010400029AFBDE8F88F000008040140000011102E
:10105000001002400000014000080140000C014067
:10106000001001400014014000180140001C014024
:101070000AB1016170470904FBE70000014880687C
:10108000704700002800002070B5040025D094F8B7
:101090003D00002520B984F83C50204600F076FA47
:1010A000242084F83D002068016821F001010160DE
:1010B0002068016841F4004101602068016821F462
:1010C0000041016000F01CFC4D4A6168914201D86A
:1010D0004C4900E04C49884201D2012070BD4B4987
:1010E0002368B0FBF1F15E6826F03F060E435E60B8
:1010F0006368934206D94FF4967359434FF47A7359
:10110000B1FBF3F12368491C1E6A26F03F06314308
:1011100019626168914210D84900401EB0FBF1F29B
:10112000521CC2F30B02042A01D2042022E0B0FBBD
:10113000F1F0401CC0F30B001CE0A268F2B301EB1D
:10114000C10303EB0116431EB3FBF6F35B1C43F430
:1011500080431B0549D092B301EBC10202EB0111A0
:10116000401EB0FBF1F0401CC0F30B0040F4804087
:1011700040F400402168CA694CF6FF739A4310435B
:10118000C861D4E9071001432068026822F0C00258
:1011900011430160D4E9030101432068826848F2E9
:1011A000FF339A4311438160D4E905010843216864
:1011B000CA6822F0FF021043C86001E00EE016E0AA
:1011C0002068016841F0010101602564202084F855
:1011D0003D00256384F83E50002070BD01EB4106C0
:1011E000431EB3FBF6F35B1CB3E70120C2E701EB40
:1011F0004101401EB0FBF1F0401CC0F30B00B7E70B
:10120000A086010080841E0000093D0040420F00BE
:101210002DE9F84F0025DDF82890984617468A46B4
:1012200004460095FFF72AFF064694F83D00202863
:101230007AD11923012286492046009601F0F4F95B
:101240000028F5D194F83C0001286DD0012084F8E5
:101250003C0020680168C90703D1016841F0010121
:1012600001602068016821F400610160222084F897
:101270003D00102084F83E0025646762A4F82A80AF
:10128000608D20857348E06233464A4651462046C9
:1012900001F0DAF800287CD1208DDFF8BC8120270E
:1012A00068B1012814D00228206801681ED041F4DA
:1012B000806101602068416980690090BBE020681E
:1012C000416981690091016841F400710160B2E0F7
:1012D0002068016821F48061016072B6206841696C
:1012E00081690091016841F400710AE041F40061F4
:1012F000016072B62068416981690091016821F43A
:101300008061016062B696E0032865D801280CD0A0
:1013100002284B464FF000024146204600960BD073
:1013200001F082F9A8BB0CE090E032464946204625
:1013300001F020FA68BB71E001F076F948BB72B6A3
:1013400033E02068016821F48061016072B6206892
:101350000069616A0870606A401C6062208D401EEE
:101360002085608D401E60853C4846F2A8110068CB
:10137000B0FBF1F0C0EBC00000EB80000090401E1D
:10138000009007D020684069C04340070DD5009801
:10139000F5E727E044F8305F6773A573206940F0F4
:1013A0002000206162B625731CE02068016841F4CA
:1013B0000071016020680069616A0870606A401C01
:1013C0006062218D491E2185618D491E618562B64D
:1013D00021680969017025E032464946204601F03E
:1013E000C9F910B10120BDE8F88F20680069616A71
:1013F0000870606A401C6062208D401E81B22185A9
:10140000608D401E608520684269D243520712D425
:10141000032903D1016821F480610160206800691B
:10142000616A0870606A401C6062208D401E2085E1
:10143000608D401E6085208D00287FF465AF84F8A4
:101440003D7084F83E5084F83C50CCE70220CAE757
:10145000020010000000FFFF040001003400002023
:101460002DE9F84F1F4690468A460446DDF828903D
:10147000FFF704FE054694F83D0020287FD119238C
:10148000012240492046009501F0CEF8002876D18F
:1014900094F83C00012872D0012084F83C002068B8
:1014A0000168C90703D1016841F0010101602068AA
:1014B000016821F400610160212084F83D001020C2
:1014C00084F83E0000262664C4F824806785608D79
:1014D00020852D48E0622B464A465146204601F0C1
:1014E00029F890B9206841698069009036E02A4661
:1014F0004946204601F076F950B1206C042804D109
:101500002068016841F4007101600120BDE8F88F96
:10151000606A216800780861606A401C6062618DC1
:10152000491E6185218D491E89B221852268536932
:10153000DB435B070BD451B100781061606A401C3B
:101540006062608D401E6085208D401E20852A4689
:101550004946204601F03CF80028CED1208D0028D5
:10156000C5D154F83D0B016841F4007101602020A1
:1015700004F81E09E67766770020C7E7FFE7022038
:10158000C4E70000020010000000FFFF30B585B086
:10159000002100910191029103911E4D03681E4CA0
:1015A000122103221D48AB4216D1A36943F0080360
:1015B000A361A369039203F008030493C023CDE958
:1015C00000316946FFF758FCE06940F40010E06123
:1015D000E06900F4001019E0114DAB4217D1A36986
:1015E00043F00803A361A369039203F00803049383
:1015F0004FF44063CDE900316946FFF73DFCE069F7
:1016000040F48000E061E06900F48000049005B0DF
:1016100030BD00000054004000100240000C0140AA
:101620000058004002488168027811448160704788
:1016300028000020074810B5016841F01001016042
:10164000032000F095F80F2000F006F800F03EF8B7
:10165000002010BD0020024000B5014687B00022E6
:10166000192000F065F8192000F054F8134881693A
:1016700041F400618161806905A900F40060069071
:10168000684600F01DF900F04BF90D490D4AB0FB1A
:10169000F1F10D48491E0260416040F2E73200213D
:1016A000C0E90321816000F003FB10B1012007B005
:1016B00000BD054800F02AFBF9E7000000100240D9
:1016C00040420F00002C0140980800200F4808B548
:1016D000816941F001018161816901F0010100919D
:1016E000C16941F08051C161C069002200F08050A1
:1016F00000900F21901E00F01BF80548416821F072
:10170000E06141F00071416008BD0000001002403E
:1017100000000140002809DB00F01F020121914078
:101720004009800000F1E020C0F80011704700007F
:10173000F0B40E4B1B680C46C3F30223C3F107053C
:10174000042D00D90425191D072901D2002300E02A
:10175000DB1E012606FA05F1491E214099409E40F4
:10176000761E16403143F0BC02F054BA0CED00E096
:10177000064900F0070208684FF6FF03184040EAE8
:101780000220034A10430860704700000CED00E09F
:101790000000FA052DE9F0470F46050061D0434EE1
:1017A000306800F00700B84209D2306820F0070026
:1017B00038433060306800F00700B84251D12868E3
:1017C0003B4C810712D5400703D5606840F4E060C8
:1017D00060602878000703D5606840F4605060605E
:1017E0006068A96820F0F000084360602878C007AE
:1017F00028D06868012810D02168022810D08907F5
:1018000000292EDA616821F0030101436160FFF7CE
:1018100035FC804641F288390DE021688903EFE705
:101820008901EDE7FFF72AFCA0EB0801494502D941
:101830000320BDE8F0876068696800F00C00B0EB39
:10184000810FEFD1306800F00700B8420BD9306843
:1018500020F0070038433060306800F00700B842DD
:1018600001D00120E5E72878400705D56068E968E0
:1018700020F4E060084360602878000706D56068BF
:10188000296920F4605040EAC100606000F058F817
:101890006168084AC1F30311515CC84006490860F9
:1018A00006480068FFF7D8FE0020C2E7002002408B
:1018B000001002409A610008340000202C00002033
:1018C0000F2202600C4A536803F00303436053681D
:1018D00003F0F0038360536803F4E063C36052686D
:1018E0004FF4E06303EAD20202610448006800F0AA
:1018F000070008607047000000100240002002400E
:101900000448054900684968044AC1F30221515C52
:10191000C84070473400002000100240AA6100084F
:101920000448054900684968044AC1F3C221515C72
:10193000C84070473400002000100240AA6100082F
:101940000E4A51680E4801F00C03042B11D0082BED
:101950000FD10C48C1F38343C903C05C0AD5516859
:10196000084AC1F34041921E515C054A5043B0FB06
:10197000F1F07047044948437047000000100240EE
:1019800000127A008A61000800093D002DE9F84F35
:10199000040070D02078C04DC00749D06868C0F3FB
:1019A0008100012807D06868C0F38100022809D1AE
:1019B0006868C00306D52868800339D560680028A8
:1019C000E7D035E06068B0F5803F0BD010B1B0F5DE
:1019D000A02F11D0286820F480302860286820F4D7
:1019E000802002E0286840F480302860606890B170
:1019F000FFF744FB06460AE0286840F48020286090
:101A0000F0E700BFFFF73AFB801B642873D8286813
:101A10008003F7D50CE0FFF731FB064605E000BF79
:101A2000FFF72CFB801B6428F0D828688003F7D4CC
:101A300020789A4E80074FF001094FF0000839D501
:101A4000686810F00C0F07D06868C0F381000228A6
:101A500009D16868C00306D42868800714D52069B6
:101A6000012808D110E02069B0B1C6F80090FFF756
:101A700005FB074605E00AE1FFF700FBC01B022853
:101A8000C4D828688007F7D52868616920F0F80075
:101A900040EAC10028600DE0C6F80080FFF7EEFACA
:101AA000074604E0FFF7EAFAC01B022823D828689B
:101AB0008007F7D4207800072CD57948A169D9B1DF
:101AC000C0F80090FFF7DAFA074604E0FFF7D6FA0D
:101AD000C01B02280FD8686A8007F7D571484FF4F9
:101AE000FA510068B0FBF1F0009000BF0098411E71
:101AF0000091FAD20EE080E0C0F80080FFF7BEFA55
:101B0000074604E0FFF7BAFAC01B022875D8686AD6
:101B10008007F7D42078400760D5E8690027C00027
:101B200008D4E86940F08050E861E869012700F0D6
:101B3000805000905C480168C90513D40168834651
:101B400041F480710160FFF799FA824606E000BF18
:101B5000FFF794FAA0EB0A0064284ED8DBF80000E7
:101B6000C005F5D5E06801280AD008B1052813D0D2
:101B7000286A20F001002862286A20F0040002E0B0
:101B8000286A40F001002862E06841F2883B98B181
:101B9000FFF774FA82460BE0286A40F004002862DE
:101BA000EEE700BFFFF76AFAA0EB0A0159455AD8E1
:101BB000286A8007F6D50CE0FFF760FA824605E058
:101BC000FFF75CFAA0EB0A0159454CD8286A800758
:101BD000F6D41FB1E86920F08050E861E06988B36D
:101BE0006968C1F38101022944D00228C6F86080E7
:101BF00004D0FFF743FA044638E034E0FFF73EFA3A
:101C0000074604E0FFF73AFAC01B02282BD82868E1
:101C10008001F7D4206AB0F5803F05D16868A168DB
:101C200020F4003008436860D4E90801084369687B
:101C300021F4741108436860C6F86090FFF71EFA3B
:101C4000044606E025E000BFFFF718FA001B022853
:101C500009D828688001F7D51BE000BFFFF70EFA0E
:101C6000001B022802D90320BDE8F88F28688001F4
:101C7000F4D40EE00128F7D06868226A00F48031BD
:101C8000914204D1616A00F47010884201D00120B1
:101C9000EAE70020E8E700000010024000004242AE
:101CA00080044242340000200070004070477047BA
:101CB00010B5040003D094F83D0010B107E00120F6
:101CC00010BD002084F83C00204600F01EF80220E1
:101CD00084F83D00211D206801F09CFD012084F85E
:101CE000460084F83E0084F83F0084F8400084F801
:101CF000410084F8420084F8430084F8440084F8EA
:101D0000450084F83D00002010BD704790F83D105C
:101D1000012901D001207047022180F83D1001689F
:101D2000CA6842F00102CA6000680E4988420ED0BB
:101D30000D4988420BD0B0F1804F08D00B49884242
:101D400005D00B49884202D00A49884204D18168F3
:101D500001F00701062903D0016841F0010101608B
:101D600000207047002C0140003401400004004076
:101D700000080040000C0040704770B50446006841
:101D800001694FF00005C943890715D4C168C943EB
:101D9000890711D4E91E016101202077206880693C
:101DA0008007204602D0FFF7E7FF04E000F098F834
:101DB000204600F096F8257720680169C943490755
:101DC00017D4C168C943490713D46FF004010161F6
:101DD000022020772068806910F4407F204602D0DE
:101DE000FFF7CAFF04E000F07BF8204600F079F826
:101DF000257720680169C943090716D4C168C9431A
:101E0000090712D46FF008010161042020772068CF
:101E1000C0698007204602D0FFF7AEFF04E000F063
:101E20005FF8204600F05DF8257720680169C94316
:101E3000C90617D4C168C943C90613D46FF010018D
:101E40000161082020772068C06910F4407F204697
:101E500002D0FFF791FF04E000F042F8204600F0C6
:101E600040F8257720680169C943C90708D1C168CE
:101E7000C943C90704D1891E0161204600F032F828
:101E800020680169C943090609D4C168C943090624
:101E900005D46FF0800101612046FFF707FF20683D
:101EA0000169C943490609D4C168C943490605D433
:101EB0006FF040010161204600F01EF820680169C2
:101EC000C94389060BD4C168C943890607D46FF09A
:101ED000200101612046BDE87040FFF7E8BE70BDFB
:101EE0007047704700680349884201D1FFF79ABBE9
:101EF00070470000002C0140704770477047000099
:101F0000F8B5016804460868CA684B6910F00F0FFD
:101F10004FF0000559D003F0010602F490773743E3
:101F200065D0C10705D0D10503D5616C41F0010131
:101F30006164410705D5D90703D0616C41F0020106
:101F40006164810705D5D90703D0616C41F00401B4
:101F50006164010707D502F02001314303D0616CB1
:101F600041F008016164616C00293AD0800604D513
:101F7000900602D5204601F0C3FC20684069616CE0
:101F8000C0F38010090700D460B3204601F091FC33
:101F900020684069400621D52068143050E8001FB1
:101FA00021F0400140E80012002AF5D1E06BA8B111
:101FB0006D494163E06BFEF7B5FE002811D0E06B80
:101FC000416B01B0BDE8F040084783060FD593068A
:101FD0000DD52046BDE8F84001F092BC2046FFF741
:101FE0008DFFF8BD2046FFF789FF6564F8BD266BBD
:101FF0002023012E7CD1C6067AD5D60678D508686E
:102000004868009048694FF00206400640D5E16BF1
:10201000086840680004000CE8D0A28D8242E5D92F
:10202000E085886920282DD020680C3050E8001FFA
:1020300021F4807140E80012002AF5D120681430A4
:1020400050E8001F21F0010140E80012002AF5D1FC
:102050002068143050E8001F21F0400140E80012D1
:10206000002AF5D184F84230256320680C3050E80E
:10207000001F21F0100140E80012002AF5D1E06BAA
:10208000FEF72CFE6663A08DE18D401A81B22AE036
:10209000A08DE18D401A81B2E08D0028A6D00029E4
:1020A000A4D022680C3252E8000F20F4907042E86D
:1020B0000007002FF5D12068143050E8002F22F0DF
:1020C000010240E80027002FF5D184F84230256353
:1020D00020680C3050E8002F22F0100240E8002366
:1020E000002BF5D166632046FFF707FFF8BDFFE739
:1020F00005062BD5150629D594F841002128F5D1E0
:10210000A068B0F5805F01D12069B0B1206A411CA0
:102110002162216800784860E08C401E0004000CB9
:10212000E084E3D12068C16821F08001C1602068AB
:10213000C16841F04001C160D8E7206A0088C0F35F
:1021400008004860206A801C2062E5E74006CDD583
:102150005006CBD5CA68204622F04002CA6084F8F7
:10216000413000F03FF9C1E7A338000870B5040022
:1021700004D094F84100002510B106E0012070BDA4
:1021800084F84050204600F023F8242084F84100D1
:102190002068C16821F40051C160204601F012FCA2
:1021A0002068016921F4904101612068416921F0B2
:1021B0002A0141612068C16841F40051C160656431
:1021C000202084F8410084F842006563002070BD3F
:1021D00070B586B0002400940194029403942B4EB1
:1021E00003682B49022003222A4DB34221D18B6977
:1021F00043F480438B618B6903F4804304938B69C0
:1022000043F004038B618969039201F00401049196
:102210000102CDE9001069462846FEF72DFE28157B
:10222000CDE90004694628460294FEF725FE06B073
:1022300070BD194EB342FAD1CB6943F40033CB6180
:10224000CB6903F4003304938B6943F004038B617F
:102250008969039201F0040104910421CDE9001081
:1022600069462846FEF708FE0820CDE900046946C5
:1022700028460294FEF700FE002205212620FFF7E3
:1022800057FA2620FFF746FAD1E700000038014050
:102290000010024000080140004400402DE9F843CE
:1022A000044690F84200994616460D46202802D072
:1022B0000220BDE8F883ADB1A6B100206064222100
:1022C00084F842102063FEF7D9FEA6858046E68595
:1022D000A0684FF48057B84201D1206920B12E4642
:1022E000002526E00120E4E7002622E04346002204
:1022F00020212046CDF8009001F0C0FB08B103205A
:10230000D7E726B1A068B8421BD038B108E02068F2
:102310004068C0F3080025F8020B07E0206980B18F
:102320002068406800F07F0006F8010BE08D401E39
:10233000E085E08D0028D9D1202084F842000020DB
:10234000B7E720684068EFE770472DE9F843044697
:1023500090F841001F4616460D46202802D0022064
:10236000BDE8F8837DB176B100206064212084F857
:102370004100FEF783FEA6848046E684A068B0F59F
:10238000805F02D003E00120EAE7206910B12E4609
:1023900000250EE000260CE08021204601F06EFBB7
:1023A000A0B9AEB116F8010B21684860E08C401E60
:1023B000E084E08C43464FF0000200970028EBD108
:1023C0004FF04001204601F059FB30B10320C7E730
:1023D00035F8020BC0F30800E6E7202084F841003E
:1023E0000020BDE77047FEE708B5012200920B46CA
:1023F000024647210148FEF70BFF08BD6007002099
:1024000008B5012200920B46024646210148FFF71B
:1024100027F808BD6007002001684A69D2435205C9
:102420000FD46FF480624A61002140F8301F2022EF
:1024300042738173026942F0040202610173012058
:1024400070470020704700002DE9F84F0446C06A2D
:102450001E4693460D4621680A6842F480620A606F
:10246000082807D0012805D010F5803F02D0206B46
:10247000112804D12068016841F4807101604FF097
:1024800001195B46002249462046009600F0CCF830
:102490004FF4007840B120680068C00501D5C4F849
:1024A00040800320BDE8F88F2069DFF884A0B0F5F4
:1024B000804F0FD00620216800EAD51747F0F000C2
:1024C000086133465A460AF10601204600F0F4F846
:1024D00058BB03E0E8B240F001001CE02168E8B21C
:1024E000086133465A465146204600F0E5F8E0B907
:1024F0002068416981690091016841F4807101603F
:102500005B46002249462046009600F08DF80028E0
:10251000C1D147F0F1002168086133465A4651465F
:10252000204600F0C9F80028BCD00120BAE700001E
:1025300002000100F8B50446C06A1E460D46174663
:10254000082807D0012805D010F5803F02D0206B65
:10255000122804D12068016841F48071016013469B
:1025600000224FF001112046009600F05DF840B1C6
:1025700020680068C00502D54FF400702064032075
:10258000F8BD2069B0F5804F0ED00620216800EA22
:10259000D51040F0F000086133463A460B4920461A
:1025A00000F08AF878B902E005F0FE0000E0E8B239
:1025B00021680861054933463A46891F204600F0E4
:1025C0007BF80028DCD00120F8BD000008000100E5
:1025D00070B516460D4604461EE02046FFF71CFF68
:1025E00008B1012070BD681C16D0FEF747FD801BA6
:1025F000A84200D885B920684069C04340070BD580
:10260000002044F8300F20216173A073216941F04C
:10261000200121612073E4E720684069C04340073E
:10262000DBD4002070BD00002DE9F0479846174626
:102630000D460446C1F30746DDF820902AE000BFAE
:10264000B8F1FF3F26D0FEF719FDA0EB0901414587
:1026500002D8B8F1000F1DD12068012E16D0806974
:1026600025EA00000004000C12D00020B84211D16D
:10267000002044F8300F20216173A073216941F0DC
:102680002001216120730120BDE8F0874069E7E760
:102690000120EBE72068012E0AD0806925EA0000BE
:1026A0000004000C06D00020B842C9D00020EBE79F
:1026B0004069F3E70120F7E72DE9F0479846164611
:1026C0000D4604464FF000094FF0200AC1F30747BA
:1026D00023E020684069C043400515D420680168A4
:1026E00041F40071016021686FF480604861C4F8B2
:1026F000309084F83DA084F83E90216C41F00401B4
:10270000216484F83C9021E0701C06D0FEF7B6FCF2
:10271000A0EB0800B04203D816B1012F1FD021E072
:102720002068012F15D0806925EA00000004000C04
:1027300018D000BF44F8309F84F80DA084F80E90A4
:10274000216941F02001216184F80C900120BDE84D
:10275000F087406925EA00000004000CEAD12068F7
:10276000406901E02068806925EA00000004000C4F
:10277000AFD1ECE72DE9F041002590460E46044626
:10278000202728E04069C043C0060CD454F8301B11
:102790006FF01000486144F810596777A577206AF8
:1027A0002062257714E0FEF769FCA0EB0800B04238
:1027B00000D886B920684069C04340060BD544F86C
:1027C000305F6773A573206940F020002061257396
:1027D0000120BDE8F08120684169C9434906D1D490
:1027E0000020F6E770B516460D4604461EE020466A
:1027F000FFF712FE08B1012070BD681C16D0FEF76D
:102800003DFC801BA84200D885B920684069C043C0
:1028100000060BD5002044F8300F20216173A0730F
:10282000216941F0200121612073E4E720684069BB
:10283000C0430006DBD4002070BD000008B50B4E7D
:102840004FF0FF3500242A466946706903F020F8EE
:102850009DF8000008B106A000E008A001F0A4F96E
:102860008DF80040012001F0D7FEECE700000020C9
:102870004C4544204F4E0D0A000000004C454420BA
:102880004F46460D0A00000008B501208DF80000F3
:1028900001466846FFF7B4FD18B103A001F084F9C2
:1028A00008BD06A0FAE70000496E69745F4248312E
:1028B000373530204572726F720D0A00496E6974A7
:1028C0005F424831373530204F6B0D0A0000000061
:1028D0001CB500271A4EDFF86C901B4C4FF0010816
:1028E0007D1E01972A4601A9206902F0D1FF0198B7
:1028F000B0420DDA00220C214846FEF7B9FB002356
:102900008DF800801A461946E06902F0B3FE0AE02D
:1029100001220C214846FEF7ABFB8DF80070002128
:10292000E06903F051F8012805D101232A466946E0
:10293000606902F09FFE012001F06EFED2E7000008
:102940000000A041001001400000002010B5044626
:10295000007B012802D1206801F0E6FD0020206004
:102960006060A060207310BD5FF0010200F07F0383
:102970000B70C00909D043F08003521C01F8013BE1
:10298000042AF3DD4FF0FF307047104670472DE901
:10299000F0410446002500680F462E4610B1022083
:1029A000207315E001202073084601F0FFFD206030
:1029B000002808D0C4E9016702E0206846556D1C74
:1029C000A068A842F9D8BDE8F081206846556D1C82
:1029D000A068A842F9D866608842F4D22660F2E77F
:1029E0002DE9FF47174688468146FDF765FC84B20E
:1029F0004046FDF761FC0026A01D01F0D7FD050053
:102A000025D0A11DFDF725FC12A0224601682960F2
:102A10008088A88049462846FDF755FC4046FDF7CA
:102A20004BFC034600200DF1040A012100908AE8C6
:102A30008300424629460A2000F042F900B10126EF
:102A4000284601F071FD304604B0BDE8F087012052
:102A5000FAE7000024637273702F00002DE9FF5F16
:102A60009A46934600251046DDF844900E9F139C2D
:102A7000FDF722FC06B2BBF1000F1FD006F11100DA
:102A80001FFA80F807B10225109868B145F00405D7
:102A9000FDF712FCC7B24846FDF70EFCC11901EB69
:102AA0000800001D1FFA80F80F9870B1012807D0A8
:102AB000022808D0022004B0BDE8F09F0120FAE708
:102AC00045F00C0501E045F01405129808B145F0F9
:102AD0002405009860B3019850B345F0C0070098F2
:102AE000FDF7EAFB05460198FDF7E6FB291801EB27
:102AF0000800001D85B229462046FFF748FF2068E0
:102B0000C0B12946FDF7A5FBD4E90030411C1022D5
:102B100061601A54D4E900010144681FFFF724FFE3
:102B200000B2002808DA2046FFF710FF0520C2E7B0
:102B30000320C0E70420BEE7616823680844411C05
:102B4000616000221A54D4E90030421C0421626002
:102B50001954D4E90050421C4D2362602B54D4E92F
:102B60000050421C626051232B54D4E90030451CB4
:102B7000542265601A54D4E90050431C63602A54FF
:102B8000D4E90030421C62601954D4E90020411C91
:102B900061601754D4E90030411C4FEA1A22616089
:102BA0001A54D4E90030421C626003F800A0D4E952
:102BB0000030411C320A61601A54D4E90020411CE3
:102BC00061601654D4E90001084432465946FDF7C5
:102BD0007AFB606830446060780736D5B9F1000F41
:102BE00001D10FF2D8091098FDF766FB85B2D4E940
:102BF0000030411C2A0A61601A54D4E90020411CAB
:102C000061601554D4E9000108442A461099FDF783
:102C10005AFB6068284460604846FDF74DFB85B26A
:102C2000D4E90030411C2A0A61601A54D4E900201A
:102C3000411C61601554D4E9000108442A46494604
:102C4000FDF741FB606828446060380618D500989D
:102C5000FDF732FB85B2D4E90030411C2A0A6160DD
:102C60001A54D4E90020411C61601554D4E90001D4
:102C700008442A460099FDF726FB606828446060F6
:102C8000780618D50198FDF717FB85B2D4E9003016
:102C9000411C2A0A61601A54D4E90020411C616079
:102CA0001554D4E9000108442A460199FDF70BFBAD
:102CB0006068284460600020FDE60000000000001D
:102CC0002DE9FF5F8B46DDE90EA24FF00005119C58
:102CD00099465FEA0008294608D1012004B0BDE802
:102CE000F09F232817D02B2815D06D1C1BF805004A
:102CF0000028F6D141F030070AB147F0010705EB93
:102D00000906B61C5FEA0A000DD0012805D002288A
:102D100006D00320E2E70220E0E747F0020701E0E7
:102D200047F00407B61CF11C2046FFF730FE206870
:102D3000A0B1F11CFDF78DFAD4E90020411C6160BF
:102D40001754D4E9000101443046FFF70DFE002876
:102D500006DA2046FFF7FAFD0520BFE70420BDE7AD
:102D6000616823680844411C2A0A61601A54D4E946
:102D70000020411C61601554D4E9000108442A4632
:102D80005946FDF7A0FA6068BAF1000F2844606068
:102D90000BD02368411C4FEA182261601A54D4E911
:102DA0000030421C626003F80080029850B1D4E900
:102DB000000108444A460299FDF785FA616801EB73
:102DC00009006060002089E77FB50D460120089C5E
:102DD0000021CDE90204CDE900011E460A46EB1CA4
:102DE0000CA10A20FFF76CFF10B1012004B070BDE8
:102DF000D4E90020411C61601654D4E90030411C24
:102E00002A0A61601A54D4E90020411C61601554FB
:102E10000020EBE724647000F0B504460020012395
:102E20005D05106012E0275C166807F07F0707FB5E
:102E300003661660265C360601D4401CF0BDDB013B
:102E4000AB4202D36FF00100F0BD401C8842EADBC8
:102E50004FF0FF30F0BD2DE9F8430E4607461D4602
:102E600090462F21C01CFDF71DFA0021009150B3A0
:102E7000441C6A460421781CFFF7CEFF252001F090
:102E800095FB306008B32521FDF7E3F924222146A4
:102E90003068FDF7C5F9009824342C3880B22880BA
:102EA000401C01F083FBC8F8000080B12988491C50
:102EB000FDF7CFF92A882146D8F80000FDF7B0F9D0
:102EC0000020BDE8F8830120FBE70220F9E7306825
:102ED00001F02AFB0320F4E74178022901D0012008
:102EE0007047817819B1012901D0FF207047C0785F
:102EF00070474178022904D1817811B9C0780A2835
:102F000001D00120704700207047000038B504460A
:102F10000078FF210009421E0E2A01D3084638BD61
:102F20000328FCD1002000906A460421601CFFF7B2
:102F300073FF20440099401C022907D32278D2074E
:102F400004D1028852BA921C8A4201D9FF2038BDAE
:102F500004A1801CFDF794F908B10F2038BD0320AF
:102F600038BD0000246372657100000030B5A9B05F
:102F7000002024902590012124A801F06CFB294C0D
:102F8000294D0022E061D5E90001CDE926010121AA
:102F900026A801F0A9FB0835A06195E80F000DF106
:102FA000700C083D8CE80F0000211CA801F040FBCC
:102FB0001835206195E80F0020AD85E80F0000214D
:102FC00020A801F035FB184960611C2228316846B1
:102FD000FDF726F90021684601F05CFB12492060EC
:102FE0001C22443107A8FDF71BF9002107A801F0B6
:102FF00051FB0D4960601C2260310EA8FDF710F9ED
:1030000000210EA801F046FB0749A0601C227C317C
:1030100015A8FDF705F9002115A801F03BFBE060BC
:1030200029B030BD00000020F060000810B586B067
:10303000002000900190029003901A48816941F0AD
:1030400020018161816901F020010491816941F0D1
:1030500010018161816901F010010491816941F0E1
:1030600004018161816901F004010491816941F0E9
:103070000801816180690C4C00F008000490012275
:103080000C212046FDF7F4FF0C200121CDE90001C1
:103090000320CDE9021069462046FDF7EDFE06B09B
:1030A00010BD000000100240001001400D4810B596
:1030B0000B4901600C49416000214FF4804281605E
:1030C000C0E9031241618161C1610162FDF7DCFF6A
:1030D000002803D0BDE81040FDF7FEBD10BD000084
:1030E0000054004060070020A08601000D4810B584
:1030F0000B4901600C49416000214FF4804281601E
:10310000C0E9031241618161C1610162FDF7BCFF49
:10311000002803D0BDE81040FDF7DEBD10BD000063
:1031200000580040B4070020A08601000C4810B5EC
:103130000A4901604FF4E1314160002181600C22B5
:10314000C160C0E904128161C161FFF70FF8002876
:1031500003D0BDE81040FDF7BFBD10BD00380140F1
:10316000080800200C4810B50A4901604FF4E1310D
:103170004160002181600C22C160C0E904128161BC
:10318000C161FEF7F3FF002803D0BDE81040FDF752
:10319000A3BD10BD0044004050080020FEE7FEE73C
:1031A0000024FDF751FC00BF00F024F80028FBD1FB
:1031B0000AA000F0F9FC641CA4B2642C04D300F053
:1031C0006DFA0024FDF708FC0320FDF713FC08B19D
:1031D00000F0B6F9012001F01FFAECE7C1ACBDD355
:1031E0004F4E454E4554B3C9B9A6095B4F4B5D0DD3
:1031F0000A00000030B58BB000242FA00090069488
:103200000794089401252FA32FA231A109943C48CB
:1032100000F098FC06A8CDE90440029403940094C1
:103220002B0225A227A128A00194FFF717FC50B17B
:1032300034A1334800F086FC36A1314800F082FC0E
:103240000BB0284630BD079881B20698FDF710FDF7
:1032500039A12B4800F076FCFA20FDF7CBFB0400E7
:1032600024D03CA1264800F06DFC2046FFF74EFE1E
:1032700002281BD12046FFF72FFE06281AD2DFE8CE
:1032800000F003090B0D0F1136A11D4800F05AFC88
:1032900000250BE038A106E03EA104E046A102E0D3
:1032A0004DA100E055A1164800F04CFC06A8FFF720
:1032B0004DFBC5E75CA1F6E739373037353132349D
:1032C00035000000313233003533353134360000FB
:1032D0004F6E654E65745F4465764C696E6B0D0A82
:1032E00050524F49443A2025732C09415549463ADA
:1032F0002025732C0944455649443A25730D0A008C
:1033000008080020C6BDCCA8CEDECFECD3A60D0A9F
:10331000000000005741524E3A094D5154545F503D
:1033200061636B6574436F6E6E656374204661699B
:103330006C65640D0A000000C1ACBDD3C9CFB4AB4D
:10334000CDEAB3C90D0AB5C8B4FDCFECD3A60D0ABA
:1033500000000000C6BDCCA8D2D1CFECD3A60D0A88
:1033600000000000546970733A09C1ACBDD3B3C901
:10337000B9A60D0A000000005741524E3A09C1ACEF
:10338000BDD3CAA7B0DCA3BAD0ADD2E9B4EDCEF3B9
:103390000D0A00005741524E3A09C1ACBDD3CAA72D
:1033A000B0DCA3BAB7C7B7A8B5C4636C69656E745F
:1033B00069640D0A000000005741524E3A09C1AC41
:1033C000BDD3CAA7B0DCA3BAB7FECEF1C6F7CAA771
:1033D000B0DC0D0A000000005741524E3A09C1AC62
:1033E000BDD3CAA7B0DCA3BAD3C3BBA7C3FBBBF290
:1033F000C3DCC2EBB4EDCEF30D0A00005741524ED0
:103400003A09C1ACBDD3CAA7B0DCA3BAB7C7B7A845
:10341000C1B4BDD328B1C8C8E7746F6B656EB7C7B8
:10342000B7A8290D0A0000004552523A09C1ACBDA7
:10343000D3CAA7B0DCA3BACEB4D6AAB4EDCEF30DEE
:103440000A00000070B5054610212548FCF701FF71
:10345000244C2078012803D028B302281CD01DE07A
:103460000022114620A000F09FFB25A0102100881B
:1034700028801B48FCF7EDFE00231A4621A11848BE
:1034800000F0A2FB16492846FCF7EEFE21A12846D3
:10349000FCF7EAFE02202070002020702846FCF78E
:1034A0000BFFC0B270BD002211461BA000F07CFBD8
:1034B00013A01021008828800948FCF7CAFE0023C9
:1034C0001A461BA1064800F07FFB05492846FCF779
:1034D000CBFE10A12846FCF7C7FE0120DDE7000067
:1034E000F00A0020240000200D0AB1BEB4CECAE4C8
:1034F000B3F6CEC2B6C83A2025642E25640D0A0064
:103500007B0000002254656D70223A25642E2564EC
:10351000000000007D0000000D0AB1BEB4CECAE478
:10352000B3F6CAAAB6C83A2025642E25640D0A004F
:103530002248756D69223A25642E2564000000003A
:1035400030B589B0054600200690029003900490A3
:1035500005900190ADF81C002846FFF7D7FC044603
:1035600004282ED00F2C03D0FDF736FA09B030BD59
:1035700007AB01AA02A92846FFF76DFC050004D09D
:10358000FDF72AFA6D1CF1D025E0BDF81C00009073
:10359000DDE901321DA1264800F0D4FADDE9011071
:1035A00003AAFFF71DFAA0B922A1214800F0CAFA28
:1035B000049881B20398FDF75BFB03A8FFF7C6F9F7
:1035C00007E02846FFF795FC18B920A1184800F03D
:1035D000B9FAFDF701FA25A10198FCF751FE08B1EF
:1035E00024A105E027A10198FCF74AFE18B127A104
:1035F0000F4800F0A7FA0F2C01D0032CB6D1029887
:1036000000F092FF019800F08FFFAFE7636D6469EF
:10361000643A2025732C207265713A2025732C2082
:103620007265715F6C656E3A2025640D0A000000BA
:1036300008080020546970733A0953656E6420438A
:103640006D64526573700D0A000000005469707358
:103650003A094D515454205075626C697368205377
:10366000656E64204F4B0D0A000000004F50454E20
:1036700000000000426C75655F4C65645F4F4E0D45
:103680000A000000434C4F4544000000426C756541
:103690005F4C65645F4F46460D0A000030B5A7B029
:1036A0000020239024902590044626901BA12348B7
:1036B00000F048FA802101A8FCF7CBFD01A8FFF734
:1036C000C1FE05000CD023A8009003230022294648
:1036D0001BA0FFF779FB78B11CA1184800F032FA63
:1036E00027B030BD015DDDE92323D1542499491C65
:1036F000641C24B2249100E001A8AC42F2DB2498BF
:1037000081B22398FDF7B4FA18A10C48249A00F06E
:1037100019FA23A8FFF71AF9E2E700005469707359
:103720003A094F6E654E65745F53656E644461740B
:10373000612D4D5154540D0A00000000080800206E
:103740003937303735313234350000005741524E69
:103750003A094544505F4E6577427566666572204A
:103760004661696C65640D0A0000000053656E6473
:103770002025642042797465730D0A0010B550202D
:1037800080F31188BFF34F8FBFF36F8F02F088FA79
:1037900018B104494FF080500860002080F3118870
:1037A00010BD000004ED00E030B58FB02821684660
:1037B000FCF74FFD14210AA8FCF74BFD012108047A
:1037C000CDE900100024029402250491CDE90750B0
:1037D0004FF4E01009906846FEF7D8F808B172B6C9
:1037E000FEE70F20CDE90A054FF48060CDE90C40DB
:1037F00002210AA80E94FDF7CDFF002801D072B671
:10380000FEE70FB030BD70470148FEF7B6BA0000C2
:1038100098080020F0B502681C4B1D4D1D4E1E4F30
:103820001E4C4FF0804C984209D0A04207D0604512
:1038300005D0A84203D0B04201D0B84204D122F052
:10384000700E4A6842EA0E02984209D0A04207D0A0
:10385000604505D0A84203D0B04201D0B84203D1A0
:1038600022F44075CA682A434D6922F080022A4337
:1038700002608A68C2620A688262984201D0A042ED
:1038800001D10969016301214161F0BD002C0140B2
:103890000004004000080040000C004000340140DB
:1038A000704710B5406A0021C185C184FEF726FB30
:1038B00010BD01680C3151E8002F22F4907241E8EC
:1038C0000023002BF5D10168143151E8002F22F0BC
:1038D000010241E80023002BF5D1016B012909D138
:1038E00001680C3151E8002F22F0100241E800235A
:1038F000002BF5D1202180F8421000210163704790
:1039000008B590F84210222901D0022008BD826833
:103910004FF480539A4201D1016921B1816A9A42E0
:103920001BD04AB10AE00268816A5268C2F30802F9
:103930000A80816A891C08E0026972B102685268D3
:1039400002F07F020A70816A491C8162C18D491EA2
:103950000904090CC18503D01BE002685268F1E735
:103960000168CA6822F02002CA600168CA6822F4AD
:103970008072CA6001684A6922F001024A6120210E
:1039800080F8421000214163026B012A03D0FEF748
:10399000DBFC002008BD016301680C3151E8002FF9
:1039A00022F0100241E80023002BF5D101680A68DB
:1039B000D20602D50A6849680091818DFEF79DFA0A
:1039C000E7E7000070B5044600680169E26821F489
:1039D0004051114301612169A068084361690843AE
:1039E0002168CA6841F20C639A430243CA602068A6
:1039F0004169A26921F44071114341611E49206867
:103A0000884202D1FDF78CFF01E0FDF779FF00EB62
:103A1000C00101EB0012606864218000B2FBF0F38A
:103A2000B3FBF1F36FF018067343B2FBF0F5B2FB92
:103A3000F0F605EB8305322303EB0515B5FBF1F535
:103A4000B6FBF1F605F0F00505EB0615B2FBF0F656
:103A5000B2FBF0F0B0FBF1F06FF01802504306EB50
:103A6000800003EB0010B0FBF1F0216800F00F00C4
:103A70002844886070BD0000003801402DE9F04105
:103A8000984617460E460446069D27E0681C25D03A
:103A90002DB1FDF7F3FAA0EB0800A8421ED920686B
:103AA0000C3050E8001F21F4D07140E80012002AC9
:103AB000F5D12068143050E8001F21F0010140E8E2
:103AC0000012002AF5D1202084F8410084F8420039
:103AD000002084F840000320BDE8F08120680068E1
:103AE00036EA000004D00020B842CFD00020F3E72F
:103AF0000120F9E708B50F48FEF702FA0D48006803
:103B00000068C043800613D44FF47A7301226946DB
:103B10000848FEF7C3FB08490888802801D3002025
:103B20000880064B80B29DF800201A54401C088083
:103B300008BD00005008002020000020700A00206E
:103B4000FEE700000FB40D4870B506AA059900F015
:103B50004FF80A48FCF7B0FB81B2094A0020074B36
:103B6000141D06E015686D06FCD51D5C2560401C23
:103B700080B28842F6D370BC5DF814FBE0080020E8
:103B80000038014030B5074B00201C1D07E01D68C0
:103B90006D06FCD511F8015B2560401C80B2904297
:103BA000F5D330BD004400400FB4054B10B503A958
:103BB000044A029800F010F910BC5DF814FB0000F4
:103BC00011450008AC0000200FB4084B10B504A943
:103BD00002AA039800F000F9044602A9002000F0B0
:103BE00092FC204610BC5DF814FB0000074500085D
:103BF00037B514460846064B6A46214600F0ECF8F5
:103C000004466946002000F07EFC20463EBD0000D0
:103C1000074500080907090E002804DB00F1E02031
:103C200080F80014704700F00F0000F1E02080F8E9
:103C3000141D704702E008C8121F08C1002AFAD1FB
:103C400070477047002001E001C1121F002AFBD11C
:103C5000704700002DE9FF5F82B00021DDE90430EC
:103C6000020DDDF840B0034318D044F61050A2F224
:103C7000FF3242431514119801281FD0A5EB0B0009
:103C8000401C5FEA000A4FF000064E4FDFF8389103
:103C9000B046504615D5CAF1000413E0119801242E
:103CA0004AA3012801D16FEA0B010298119AC0E9D9
:103CB0000031C0E9024206B0BDE8F09FCBF1000040
:103CC000DFE704460021404A491842EB0450CDE9A1
:103CD000001012E0E00707D032463B464046494616
:103CE000FCF72EFD8046894632463B461046194673
:103CF000FCF726FD06460F466410002CEAD1DDE9EC
:103D00000401DDE90023BAF1000F06DAFCF718FD23
:103D100042464B46FCF714FD05E0FCF7E8FA424644
:103D20004B46FCF7E4FA04460E460022284BFCF70B
:103D300091FD03D84FF0FF30014607E00022254BEC
:103D400020463146FCF755FCFCF76CFD102409E0D9
:103D5000002C0ADB0A220023FCF786FB039B30328F
:103D60001A55641E50EA0102F2D1641C039AC4F190
:103D700011031444119A012A03D0012208430DD1E2
:103D80000AE0084304D000204FF0110B119072E7B5
:103D9000A3EB0B056D1E0DE05B4504DD4FF000024B
:103DA00005F1010504E003DA4FF00002A5F1010579
:103DB000002AECD002981199C0E90231C0E900450F
:103DC00079E70000000014400000F03F30000000E0
:103DD0000000F0430000E03F2DE9FF4F95B09B4607
:103DE0008946064600250FE2252877D1002427467C
:103DF000F84A0121059400E0044316F8013F203BF6
:103E000001FA03F01042F7D130782A2811D06FF070
:103E10002F033078A0F13002092A16D8059A44F011
:103E2000020402EB820203EB42021044761C05906E
:103E3000EFE759F8042B0592002A03DA504244F4C4
:103E40000054059044F00204761C30782E2816D1D8
:103E500016F8010F44F004042A280DD06FF02F0249
:103E60003078A0F13003092B09D807EB870302EB68
:103E70004303C718761CF3E759F8047B761C3078A7
:103E80006C280FD006DC4C2817D068280DD06A2883
:103E900014D104E0742810D07A280FD10DE044F436
:103EA00000140AE044F4801401E044F440147278F1
:103EB000824202D104F58014761C761C3078662884
:103EC0000BD013DC582877D009DC002875D04528A2
:103ED000F6D04628F4D047281AD19DE118E063288F
:103EE00035D0642879D0652812D195E1702873D037
:103EF00008DC6728F1D069286FD06E280DD06F28B4
:103F000006D1B5E073282CD0752875D0782874D0E8
:103F10005A46179990476D1C75E1C4F30250022868
:103F200009D003280DD0D9F8001004280DD00D6059
:103F300009F1040967E1D9F80010EA17C1E9005254
:103F4000F6E7D9F800100D80F2E70D70F0E719F8E8
:103F5000041B8DF8001000208DF80100EA460120B6
:103F600003E059F804AB4FF0FF3061074FF0000158
:103F700002D40DE008F101018846B9420FDA80450C
:103F8000F8DB1AF808100029F4D108E008F1010163
:103F900088468142FADB1AF808100029F6D1059804
:103FA0005B46A0EB080721463846179A00F094FAC2
:103FB000284400EB080507E04DE029E10DE01AF880
:103FC000010B5A4617999047B8F10108F7D25B46A2
:103FD00021463846179A13E142E00A220092C4F3C0
:103FE00002524FF0000A022A08D059F804CB032AE3
:103FF0004FEAEC710AD00DE029E02AE009F107014F
:1040000021F00702F2E802C1914609E00FFA8CFCA8
:104010004FEAEC71042A03D14FFA8CFC4FEAEC71A1
:10402000002907DA0A460021DCF1000C61EB0201ED
:104030002D2202E0220504D52B228DF80420012236
:1040400003E0E20701D02022F7E7904659E00A2179
:1040500002E010220DE010214FF0000A00910BE069
:1040600010224FF0000A44F004040827009203E0F5
:1040700008224FF0000A0092C4F30252022A05D02F
:1040800059F804CB0021032A08D009E009F10701FF
:1040900021F00702F2E802C1914605E01FFA8CFC0C
:1040A000042A01D10CF0FF0C4FF00008220728D59C
:1040B000702806D0009B83F0100353EA0A0305D052
:1040C0000EE040228DF80420012208E05CEA0102A3
:1040D00006D030228DF804208DF80500022290468B
:1040E000009B83F0080353EA0A030AD15CEA010249
:1040F00001D1620705D530228DF804204FF0010868
:104100007F1E582804D034A003900EA802900DE022
:1041100036A0F9E753466046009AFCF7A5F98446B5
:104120000398825C0298401E029002705CEA0100D3
:10413000F0D1029806A9081A00F1200A600702D5FA
:1041400024F4803400E00127574502DDA7EB0A0084
:1041500000E0002000EB0A01009005984144401A5D
:104160000590E00306D45B462146179A059800F0B7
:10417000B3F90544002706E001A85A46C05D179927
:1041800090476D1C7F1C4745F6DBE0030CD55B4672
:104190002146179A059800F09FF9054404E0302065
:1041A0005A46179990476D1C0099481E00900029A7
:1041B000F5DC08E0029802995A460078491C029101
:1041C000179990476D1CBAF10001AAF1010AF1DCC0
:1041D00065E10000092801003031323334353637CB
:1041E0003839616263646566000000003031323343
:1041F00034353637383941424344454600000000E3
:1042000000F058F90544761C307800287FF4ECADB6
:1042100019B02846BDE8F08F620700D4062709F1DF
:10422000070222F0070CFCE80223E14603F00048F5
:104230005FEA080C02D00FF2702C0DE05FEA045C1C
:1042400002D50FF2682C07E05FEAC47C02D00FF2BF
:10425000602C01E0AFF2700C4FF0FF3823F0004308
:10426000CDF850C065280CD006DC452809D046287A
:104270001DD047283DD13DE0662818D067287ED163
:1042800038E00021112F01DB112000E0781CCDE97E
:10429000000106A90EA8FFF7DDFCDDE90F010E9A6B
:1042A00003910021009207F1010A04914DE04FF0C3
:1042B00000400097CDE9011006A90EA8FFF7CAFC3F
:1042C000DDE90F0203920E9B11990022DDF80CA08C
:1042D0000093049211B9791C00EB010AB7EB0A00B4
:1042E00004D4C0F1FF3007F1010A0490AAEB0700E3
:1042F000019044E0012F00DA01270021112F01DD98
:10430000112000E03846CDE9000106A90EA8FFF70C
:10431000A1FCDDE90F010E9A0391002104910092A6
:10432000BA4621070CD40399514500DA8A46BAF1FE
:10433000010F05DD009AAAF10101515C302908D076
:10434000B84202DA10F1040F06DA0121CDE90110BA
:1043500015E0AAF10101E9E7002805DC0499014410
:104360000491AAEB000102E0411C514500DD8A46A0
:104370000499401A401C01904FF000400290200721
:1043800004D40198504501DBCDF8048000208DF85D
:104390004F0002980DF14F07B0F1004F25D02B20B0
:1043A0000E9002984FF0020800280CDA404202906A
:1043B0002D200E9007E00A210298FCF73FF83031DB
:1043C000029007F8011DB8F10001A8F10108F2DC24
:1043D00002980028EFD1791E0E980870307800F00E
:1043E000200040F0450007F8020D12A8C01B00F1A4
:1043F00007081498007800B1012000EB0A01019829
:1044000001EBE07105984144401A401E0590E0031D
:1044100006D45B462146179A059800F05DF80544DE
:104420001498007818B15A46179990476D1CE0030C
:1044300024D55B462146179A059800F04DF80544AF
:104440001CE00498002807DBDDE90301884203DD56
:104450000098405C179901E0179930205A46904720
:10446000049805F10105401C04900198401E01903C
:1044700004D12E205A46179990476D1CBAF10001BD
:10448000AAF1010ADDDC05E017F8010B5A4617997D
:1044900090476D1CB8F10001A8F10108F4DC5B46FF
:1044A0002146179A0598ABE62D0000002B0000006E
:1044B000200000002DE9F041044600251E46174665
:1044C000880404D405E039462020B0476D1C641EE2
:1044D000F9D52846BDE8F0812DE9F04104460025D4
:1044E0001E469046C80301D5302700E020278804E7
:1044F00004D505E041463846B0476D1C641EF9D529
:104500002846BDE8F0810A68531C0B6010707047A4
:1045100013B54FF6FF73012269460248FDF715FFF8
:1045200000981CBD0808002010B5002821D0114BB0
:104530000022001F196803E0814203D80A46496837
:104540000029F9D152B11368841A9C4204D1006841
:1045500018441060104602E0506000E0186039B165
:1045600002680B1A934203D10B681A44026049682F
:10457000416010BDB0000020FDF75CF8FFF714F9B2
:10458000FEF754FDFEF7D2FDFEF790FDFEF7AEFDFF
:10459000FEF7E8FDFEF7EAFC00F045F8FEE701460D
:1045A0000020842900D0C81C70470000F0B50B30F3
:1045B000154D20F007010024144A0FE003688B42D8
:1045C0000BD38B4205D95E1A43184768C3E90067CD
:1045D00000E04368136002C004E0021D1068002878
:1045E000ECD12046002802D1286808B10020F0BD97
:1045F000064A07481060074A121A22F00702C0E96B
:10460000002401202860D7E7B4000020B00000207B
:104610001C190020181B002010B500B9012000F063
:1046200003FE002010BD10B500F0BAFE002010BD42
:1046300038B5D0E9011204683AB1C3682BB1002043
:104640000090204600F09EFF38BD2046BDE838406F
:10465000002200F073BF38B543684BB1012909D17E
:104660000320002200901146012000F08BFF38BD8E
:10467000012901D0002038BD03220021012000F0D3
:104680005DFF040004D000231A46194600F0F2FF33
:10469000204638BD7FB50D4604464169B0F9080093
:1046A00081B1A16971B1FFF77AFFD4E905128DE8F4
:1046B0000700D4E900102B46226901F0B2FA0390FA
:1046C00004B070BDFFF76BFF03A9CDE90001208A9C
:1046D0002B4682B2D4E9001001F076FA012801D00D
:1046E0000020EDE70398EBE71CB511C86CB1CDE9EC
:1046F0000004012907D0002013460246012109A029
:1047000001F07EFC1CBD0120F6E70090012907D0D6
:10471000002013460246012102A001F057FC1CBDF7
:104720000120F6E7000000002DE9F0411A4C0F4689
:10473000054666692168002081F852002068001D46
:1047400000F042FC38B9206890F82C100120884015
:10475000A1698143A161681C07D137B12168BDE817
:10476000F0410E48091D00F07FBC20683544B54279
:104770004560216805D2A068BDE8F041091D00F040
:104780005BBC6068091D00F057FC206B854200D2BD
:104790002563BDE8F0810000380000201C0C0020DB
:1047A0002DE9F041054600F06BFC2E4C2069401CC1
:1047B000206120682C4F10B1E06940B32DE02560E6
:1047C0002069012829D1002606EB860007EB80002E
:1047D00000F024FC761C072EF6D323488C3000F022
:1047E0001DFC2148A03000F019FC1F48B43000F037
:1047F00015FC1D48C83000F011FC1B48DC3000F0EF
:104800000DFC19488C3060601430A06005E0206811
:10481000E96AC06A884200D82560E06A401CE0620C
:10482000E96A0120A26988401043A06101EB810080
:1048300007EB8000291D00F017FC00F041FCE06947
:1048400000280CD02068E96AC06A884207D207496C
:104850004FF080500860BFF34F8FBFF36F8FBDE8FC
:10486000F081000038000020400B002004ED00E043
:1048700038B500F005FC104CA068C8B90F4800F02E
:10488000CDFB0E48143000F0C9FB0C4820601430FA
:1048900060600A4B00202833009003F148020C218D
:1048A0000A2000F06FFEA06010B105A100F086FCA8
:1048B000BDE8384000F004BC74000020300C00203B
:1048C000546D72510000000030B4026C0B46002A97
:1048D0000BD0C1681144C1604468A14201D3016892
:1048E000C16030BC1846FBF79BBC30BC70472DE95B
:1048F000F041856B174604460026026C82B1C7B1B1
:10490000E068FBF78DFCE168206C091AE160226821
:10491000914202D26168081AE060022F16D017E0B7
:104920002068A8B9606801F01FFA064600206060A0
:104930000EE0A068FBF774FC216CA0680844A0603E
:104940006168884204D32068A06001E005B16D1E53
:104950006D1CA5633046BDE8F08110B5044690F8A3
:10496000510058B101280CD002280FD0502080F3FC
:104970001188BFF34F8FBFF36F8FFEE7206B00F0FE
:10498000B3FB2046BDE8104000F0AEBB10BD0000F8
:1049900010484FF44061420706D0C01D0D4920F079
:1049A0000700411AC1F540610B4A00230144C2E9E6
:1049B00000030839103A21F0070111604B600B60C9
:1049C0000B1AC0E9001393604FF000405360D060B1
:1049D00070470000180D002098000020144E154C60
:1049E000A6F1C8074FF08058DFF84C9012E000BFE6
:1049F00000F046FBF068C568281D00F0E5FA206964
:104A0000401E2061E068401EE06000F059FB28462F
:104A1000FFF7A3FFE0680028EAD138680128F9D938
:104A2000C9F80080BFF34F8FBFF36F8FF2E700002C
:104A3000080C00203800002004ED00E00346009838
:104A400029B10260C0E90F31012100F0CFBD006043
:104A5000F8E72DE9F0470E46DDE90984174682465E
:104A600091009946089DA522206BFBF7EBFB6FF0A8
:104A70000301206B01EB8701084420F0070778074A
:104A800007D0502080F31188BFF34F8FBFF36F8F93
:104A9000FEE72218315C82F83410315C11B1401C01
:104AA0001028F6D3002684F84360072D00D306258E
:104AB000E562C4E91156201D00F0BBFA04F11800AC
:104AC00000F0B7FA2461C5F107006462A061E664F2
:104AD00084F8506084F852604A465146384600F0E7
:104AE00061FA2060B8F1000F01D0C8F80040BDE8BD
:104AF000F0872DE9F0471E46DDE9089417460D00C2
:104B000080460ED0002C14D0FFF7B2FEC4F800800F
:104B1000C4E90657C4E90869201DBDE8F04700F064
:104B200088BA502080F31188BFF34F8FBFF36F8F87
:104B3000FEE7BDE8F087000030B5114900E01146FE
:104B40000A688242FBD34B685C18844203D14068F8
:104B500018444860084643681C18944209D1084C20
:104B6000103C2468A24209D052681A4442600A6884
:104B700012680260814200D0086030BD0460F9E72D
:104B80009800002070B5002441600B4D00619142F7
:104B900006D8D11A8269914206D2011D686807E0E1
:104BA0009A4203D2994201D3012403E0011D2868EF
:104BB00000F042FA204670BD7400002010B5044693
:104BC00000F05EFAA06B28B15FF0000400F078FA04
:104BD000204610BD0124F9E730B587B02C4D4EE0DA
:104BE000049800284BDB069C606910B1201D00F082
:104BF000EBF902A800F0B8F8024604980A283ED261
:104C0000DFE800F00505053D263705053D2605983A
:104C1000A169034601442046FFF7B4FF00B3616A6F
:104C200020468847E069012829D100200090059896
:104C3000A169002342181946204601F029FA78B9E3
:104C4000502080F31188BFF34F8FBFF36F8FFEE7C3
:104C50000598A06128B1811813462046FFF792FFFE
:104C60000DE0502080F31188BFF34F8FBFF36F8F9B
:104C7000FEE794F8280010B9204600F035FA00222B
:104C800004A9A86800F004FE0028A9D107B030BD2F
:104C9000740000202DE9FC410F46054600F0C4FBDE
:104CA00001A800F061F80446019818B101F02CF950
:104CB000BDE8FC81224EAFB170680068A8B3002740
:104CC000291B3A46B06800F08DFA01F01DF9002862
:104CD000EED11C494FF080500860BFF34F8FBFF3F7
:104CE0006F8FE5E7A542EBD801F00EF93068274653
:104CF000C068C468201D00F067F9E069012810D180
:104D0000A0692B4641193A462046FFF73BFF40B1C8
:104D100000200346014600902A46204601F0B8F9DB
:104D200020B1616A20468847C2E707E0502080F33F
:104D30001188BFF34F8FBFF36F8FFEE70127BFE7E7
:104D40007400002004ED00E006484168096829B1BC
:104D50004168C968C9684968016370474FF0FF310D
:104D6000FAE700003800002070B5054600F092FF19
:104D7000064E04463069844203D200F009F801204F
:104D800000E0002028602046346170BD74000020DF
:104D9000F8B5194D1FE0C068C4680668201D00F012
:104DA00013F9616A20468847E069012813D1A06998
:104DB0003044B04206D924616060211D286800F0AB
:104DC0003BF908E0002003460146009032462046A9
:104DD00001F05EF938B1286801680029DBD1696803
:104DE000C5E90010F8BD502080F31188BFF34F8F44
:104DF000BFF36F8FFEE70000740000200848406892
:104E0000401C4FF0500080F3118804D0BFF34F8F47
:104E1000BFF36F8FFEE7BFF34F8FBFF36F8FFEE7D8
:104E2000A0000020074C2068016841B1C068002143
:104E3000D0F80000FFF72EFFFFF7CEFEF3E70121C9
:104E40000020F7E7740000202DE9F041044600F04F
:104E500017F994F9455004F1240609E0606A48B155
:104E6000304601F017F808B100F00CFA6D1E6DB273
:104E7000002DF3DC4FF0FF3684F8456000F020F998
:104E800000F0FEF894F9445004F1100709E020699D
:104E900048B1384600F0FEFF08B100F0F3F96D1E8E
:104EA0006DB2002DF3DC84F84460BDE8F04100F001
:104EB00007B900002DE9F0410546002700F0B4FADB
:104EC000314E306808B9FFF763FDF06805424BD1F9
:104ED000C5B3083568070ED005F00700C0F108001B
:104EE0000544680707D0502080F31188BFF34F8F27
:104EF000BFF36F8FFEE72DB37068854234D8224828
:104F0000103001460C6801E020460C466168A94259
:104F100002D221680029F7D131688C4224D0076879
:104F20002168016060680837411B10290FD960199A
:104F3000420708D0502080F31188BFF34F8FBFF392
:104F40006F8FFEE710E041606560FFF7F5FD616877
:104F50007068401A7060B268904200D2B060F06829
:104F600001430020C4E9000100F0CEFF780707D01C
:104F7000502080F31188BFF34F8FBFF36F8FFEE790
:104F80003846BDE8F0810000880000200449086828
:104F900018B10868826C521C82640868704700006F
:104FA0003800002010B5031F4FF080741C601B1FD9
:104FB00021F001011960191F024B0B6014394038B0
:104FC0000A6010BDFD4D0008D0E9013201699A6008
:104FD000D0E901235A604A68824201D182684A605E
:104FE000002202610868401E0860086870470000DF
:104FF000034B036003F15400086080201060704789
:10500000B8000020044B036003F1540008604FF423
:1050100080701060704700000C03002000F1080150
:105020004FF0FF32C0E90112C1600161002101604F
:10503000704700210161704730B50B685A1C02D0DF
:1050400000F1080202E0026904E022465468256883
:105050009D42FAD953684B6099608A60516008613B
:105060000168491C016030BD42684A6093688B60EA
:1050700093685960916008610168491C016070473C
:10508000502080F31188BFF34F8FBFF36F8F0A4911
:105090004868401C486001280CD10848006810F09E
:1050A000FF0F07D0502080F31188BFF34F8FBFF35D
:1050B0006F8FFEE770470000A000002004ED00E0C5
:1050C0000849486828B1401E486001D180F3118822
:1050D0007047502080F31188BFF34F8FBFF36F8F5D
:1050E000FEE70000A000002070B5002827D0144D76
:1050F000A0F108046168E868014207D1502080F3FC
:105100001188BFF34F8FBFF36F8FFEE722683AB16C
:10511000502080F31188BFF34F8FBFF36F8FFEE7EE
:105120008143616000F080F96068696808446860E4
:105130002046FFF701FDBDE8704000F0E5BE70BD00
:10514000880000204FF0E0200021016181610549C5
:105150004FF47A720968B1FBF2F1491E41610721EF
:10516000016170473400002010B5FBF733F8114996
:1051700010280ED300F1E02090F8F0030A78904256
:1051800007D2502080F31188BFF34F8FBFF36F8F8A
:10519000FEE709480068896800F4E060884207D9A2
:1051A000502080F31188BFF34F8FBFF36F8FFEE75E
:1051B00010BD0000A00000200CED00E010B5084B71
:1051C000002200BF53F832401CB1521C082AF9D308
:1051D00010BD43F8321003EBC201486010BD00005F
:1051E000000B002070B515460E460446FFF748FF39
:1051F00094F944100020491C01D184F8440094F92A
:105200004510491C01D184F84500FFF759FFA06BF8
:1052100028B92A46314604F1240000F051F820460E
:10522000BDE87040FFF710BE10B5020014D00F4863
:10523000806B38B1502080F31188BFF34F8FBFF3DC
:105240006F8FFEE700F0F0F800211046FFF76CFAD0
:1052500000F05AFE002807D105494FF08050086041
:10526000BFF34F8FBFF36F8F10BD000038000020D9
:1052700004ED00E002498A6A0260496941607047B2
:1052800038000020014901204862704738000020A2
:1052900010B50C4650B1094909681831FFF7CCFE2A
:1052A0002046BDE810400121FFF73EBA502080F3B0
:1052B0001188BFF34F8FBFF36F8FFEE738000020D8
:1052C00070B514460D4668B10A4909681831FFF7F0
:1052D000CBFE0CB14FF0FF3521462846BDE87040AB
:1052E000FFF722BA502080F31188BFF34F8FBFF32E
:1052F0006F8FFEE73800002070B504004BD0A26C21
:10530000A2B1606C884200D30146E06A884242D074
:10531000012A40D1204D2A6894420FD1502080F3B9
:105320001188BFF34F8FBFF36F8FFEE7502080F3DC
:105330001188BFF34F8FBFF36F8FFEE7E162A26961
:10534000002A02DBC1F10701A161144E00EB8000CD
:10535000616906EB800081421DD1201DFFF734FEFC
:10536000012150B9E06A00EB800256F8222022B9F0
:10537000AA6901FA00F08243AA61E06AAA69814041
:105380001143A96100EB800006EB8000211DBDE800
:105390007040FFF769BE70BD38000020400B002050
:1053A00030B587B00024039405AA04A903A8049487
:1053B000FFF71EFEDDE903010094CDE90110002393
:1053C00015A11748059A00F02CFC164D00286863BB
:1053D0001FD000F02DFE012809D0401C19D150200B
:1053E00080F31188BFF34F8FBFF36F8FFEE750201C
:1053F00080F31188BFF34F8FBFF36F8F4FF0FF30F3
:1054000028630120E8616C6107B0BDE8304000F01E
:1054100041B807B030BD000049444C4500000000D1
:10542000DD490008380000200248816B491C816377
:1054300070470000380000201448816B11B1012131
:1054400041627047002141628169B1FA81F1C1F185
:105450001F0101EB81020E4951F822306BB101EBC3
:10546000820101F108034A6852684A609A4201D1F8
:1054700052684A60D16801607047502080F31188FB
:10548000BFF34F8FBFF36F8FFEE70000380000209F
:10549000400B00201CB5264908780190FF200870B9
:1054A00008788DF800009DF800009DF8002000F0BD
:1054B000F000904207D0502080F31188BFF34F8F47
:1054C000BFF36F8FFEE79DF800001A4B00F050000D
:1054D00018700720986005E09DF8002052008DF8B4
:1054E0000020401E9DF800201206F5D49860032885
:1054F00007D0502080F31188BFF34F8FBFF36F8F19
:10550000FEE74FF440709860019808700A480168FF
:1055100041F470010160016841F070410160FFF7E2
:1055200011FE00205860FAF71FFE00201CBD00008D
:1055300000E400E0A000002020ED00E0F8B51746F0
:105540000E46050014D0DEB105FB06F04830FFF72B
:10555000B1FC04000AD0002084F8460004F148029F
:105560003B46314628460094FFF768FA2046F8BDCE
:10557000502080F31188BFF34F8FBFF36F8FFEE78A
:105580000020E3E738B5049D18B153B1CAB181B129
:1055900020E0502080F31188BFF34F8FBFF36F8F4F
:1055A000FEE7502080F31188BFF34F8FBFF36F8F5A
:1055B000FEE7502080F31188BFF34F8FBFF36F8F4A
:1055C000FEE739B1502080F31188BFF34F8FBFF34E
:1055D0006F8FFEE748241C46012384F846302B4693
:1055E0000094FFF72BFA204638BD000070B50D4639
:1055F000040025D0FFF744FDD4E90F20216802FB09
:10560000001161600021A1632168A1600A46D4E90C
:105610000F01401E00FB0121E16021464FF0FF30E9
:1056200001F8440F487004F110008DB1FFF7F6FC4B
:1056300004F12400FFF7F2FCFFF742FD012070BDEA
:10564000502080F31188BFF34F8FBFF36F8FFEE7B9
:1056500021690029F0D000F01DFC0028ECD004499D
:105660004FF080500860BFF34F8FBFF36F8FE3E7B9
:1056700004ED00E02DE9FF4782B01D468A464FF059
:105680000008040003D0BAF1000F08D011E0502048
:1056900080F31188BFF34F8FBFF36F8FFEE7206C4D
:1056A00038B1502080F31188BFF34F8FBFF36F8F55
:1056B000FEE7022D0AD1E06B012807D0502080F3CD
:1056C0001188BFF34F8FBFF36F8FFEE700F0D4FA5E
:1056D0003F4F4FF000094FF0805648B9049838B159
:1056E000502080F31188BFF34F8FBFF36F8FFEE719
:1056F000FFF7C6FCA06BE16B884207D3022D05D0F3
:105700000498D0B1B8F1000F1AD01EE02A465146D5
:105710002046FFF7ECF8616A19B104F1240000F0AB
:10572000B9FB20B13E60BFF34F8FBFF36F8FFFF720
:10573000C7FC012006B0BDE8F087FFF7C1FC22E0FE
:105740006846FFF797FD4FF00108FFF7B9FCFFF738
:105750006BFEFFF795FC94F94400401C01D184F8DE
:10576000449094F94500401C01D184F84590FFF71E
:10577000A7FC04A9684600F0E3F930B12046FFF722
:1057800063FB00F0C1FB0020D4E7FFF779FCA06BBE
:10579000E16B884213D1FFF793FC04F110000499E8
:1057A000FFF776FD2046FFF74FFB00F0ADFB00282A
:1057B0009ED13E60BFF34F8FBFF36F8F98E7FFF727
:1057C0007FFC2046FFF740FB00F09EFB90E70000C7
:1057D00004ED00E02DE9F0471F469046894604009D
:1057E00003D0B9F1000F08D011E0502080F31188E8
:1057F000BFF34F8FBFF36F8FFEE7206C38B150209F
:1058000080F31188BFF34F8FBFF36F8FFEE7022F36
:105810000AD1E06B012807D0502080F31188BFF334
:105820004F8FBFF36F8FFEE7FFF79EFC5020EFF323
:10583000118680F31188BFF34F8FBFF36F8FA06B7A
:10584000E16B884206D3022F04D0002086F3118832
:10585000BDE8F08794F945503A4649462046FFF79F
:1058600046F8681C04D06D1C84F845500120EDE713
:10587000606A0028FAD004F1240000F00BFB002835
:10588000F4D0B8F1000FF1D00121C8F80010EDE715
:105890002DE9F747002683B08A46040003D0BAF109
:1058A000000F08D011E0502080F31188BFF34F8F14
:1058B000BFF36F8FFEE7206C38B1502080F3118862
:1058C000BFF34F8FBFF36F8FFEE700F0D5F9DFF81E
:1058D000F4804FF000094FF0805748B9059838B16F
:1058E000502080F31188BFF34F8FBFF36F8FFEE717
:1058F000FFF7C6FBA56BC5B151462046FEF7E4FF96
:105900006D1EA563206950B104F1100000F0C2FAC9
:1059100028B1C8F80070BFF34F8FBFF36F8FFFF748
:10592000CFFB012006B0BDE8F087059808B11EB195
:1059300006E0FFF7C5FB27E06846FFF79BFC012662
:10594000FFF7BEFBFFF770FDFFF79AFB94F94400E9
:10595000401C01D184F8449094F94500401C01D1C9
:1059600084F84590FFF7ACFB05A9684600F0E8F81D
:10597000002820460AD0FFF767FA00F0C5FA204653
:10598000FFF71CF90028B3D00020CBE7FFF716F98A
:1059900090B104F124000599FFF77AFC2046FFF747
:1059A00053FA00F0B1FA0028A2D1C8F80070BFF392
:1059B0004F8FBFF36F8F9BE72046FFF745FA00F04C
:1059C000A3FA95E704ED00E02DE9F343002683B048
:1059D0000400354609D0206C78B1502080F311883E
:1059E000BFF34F8FBFF36F8FFEE7502080F3118816
:1059F000BFF34F8FBFF36F8FFEE700F03DF9DFF885
:105A00003C814FF000094FF0805748B9049838B1F5
:105A1000502080F31188BFF34F8FBFF36F8FFEE7E5
:105A2000FFF72EFBA06BC8B1401EA063206810B921
:105A3000FFF7ACFA6060206950B104F1100000F08B
:105A400029FA28B1C8F80070BFF34F8FBFF36F8FEA
:105A5000FFF736FB012005B0BDE8F083049808B1DC
:105A600066B10FE03DB1502080F31188BFF34F8F36
:105A7000BFF36F8FFEE7FFF723FB5DE06846FFF79C
:105A8000F9FB0126FFF71CFBFFF7CEFCFFF7F8FA46
:105A900094F94400401C01D184F8449094F94500E5
:105AA000401C01D184F84590FFF70AFB04A9684621
:105AB00000F046F80028204612D0FFF7C5F900F0A4
:105AC00023FA2046FFF77AF80028A9D09DB3FFF704
:105AD000D7FA606A50B3206B0068C0F1070126E076
